{
  "_format": "hh-sol-artifact-1",
  "contractName": "DeployChallenge",
  "sourceName": "contracts/DeployChallenge.sol",
  "abi": [
    {
      "constant": true,
      "inputs": [],
      "name": "isComplete",
      "outputs": [
        {
          "name": "",
          "type": "bool"
        }
      ],
      "payable": false,
      "stateMutability": "pure",
      "type": "function"
    }
  ],
  "bytecode": "0x60606040523415600e57600080fd5b60a38061001c6000396000f300606060405260043610603f576000357c0100000000000000000000000000000000000000000000000000000000900463ffffffff168063b2fa1c9e146044575b600080fd5b3415604e57600080fd5b6054606e565b604051808215151515815260200191505060405180910390f35b600060019050905600a165627a7a723058201373de235103dea9ea309d2337f574aeba182d967b8dc28ffb6be86e4f97a8980029",
  "linkReferences": {},
  "deployedLinkReferences": {}
}