{
  "_format": "hh-sol-artifact-1",
  "contractName": "DonationChallenge",
  "sourceName": "contracts/DonationChallenge.sol",
  "abi": [
    {
      "constant": false,
      "inputs": [],
      "name": "withdraw",
      "outputs": [],
      "payable": false,
      "stateMutability": "nonpayable",
      "type": "function"
    },
    {
      "constant": true,
      "inputs": [],
      "name": "owner",
      "outputs": [
        {
          "name": "",
          "type": "address"
        }
      ],
      "payable": false,
      "stateMutability": "view",
      "type": "function"
    },
    {
      "constant": true,
      "inputs": [],
      "name": "isComplete",
      "outputs": [
        {
          "name": "",
          "type": "bool"
        }
      ],
      "payable": false,
      "stateMutability": "view",
      "type": "function"
    },
    {
      "constant": false,
      "inputs": [
        {
          "name": "etherAmount",
          "type": "uint256"
        }
      ],
      "name": "donate",
      "outputs": [],
      "payable": true,
      "stateMutability": "payable",
      "type": "function"
    },
    {
      "constant": true,
      "inputs": [
        {
          "name": "",
          "type": "uint256"
        }
      ],
      "name": "donations",
      "outputs": [
        {
          "name": "timestamp",
          "type": "uint256"
        },
        {
          "name": "etherAmount",
          "type": "uint256"
        }
      ],
      "payable": false,
      "stateMutability": "view",
      "type": "function"
    },
    {
      "inputs": [],
      "payable": true,
      "stateMutability": "payable",
      "type": "constructor"
    }
  ],
  "bytecode": "0x6060604052670de0b6b3a76400003414151561001a57600080fd5b33600160006101000a81548173ffffffffffffffffffffffffffffffffffffffff021916908373ffffffffffffffffffffffffffffffffffffffff1602179055506103a18061006a6000396000f30060606040526004361061006d576000357c0100000000000000000000000000000000000000000000000000000000900463ffffffff1680633ccfd60b146100725780638da5cb5b14610087578063b2fa1c9e146100dc578063f14faf6f14610109578063f8626af814610121575b600080fd5b341561007d57600080fd5b61008561015f565b005b341561009257600080fd5b61009a610214565b604051808273ffffffffffffffffffffffffffffffffffffffff1673ffffffffffffffffffffffffffffffffffffffff16815260200191505060405180910390f35b34156100e757600080fd5b6100ef61023a565b604051808215151515815260200191505060405180910390f35b61011f600480803590602001909190505061025b565b005b341561012c57600080fd5b61014260048080359060200190919050506102e1565b604051808381526020018281526020019250505060405180910390f35b600160009054906101000a900473ffffffffffffffffffffffffffffffffffffffff1673ffffffffffffffffffffffffffffffffffffffff163373ffffffffffffffffffffffffffffffffffffffff161415156101bb57600080fd5b3373ffffffffffffffffffffffffffffffffffffffff166108fc3073ffffffffffffffffffffffffffffffffffffffff16319081150290604051600060405180830381858888f19350505050151561021257600080fd5b565b600160009054906101000a900473ffffffffffffffffffffffffffffffffffffffff1681565b6000803073ffffffffffffffffffffffffffffffffffffffff163114905090565b6000806ec097ce7bc90715b34b9f10000000009150818381151561027b57fe5b043414151561028957600080fd5b428160000181905550828160010181905550600080548060010182816102af9190610314565b916000526020600020906002020160008390919091506000820154816000015560018201548160010155505050505050565b6000818154811015156102f057fe5b90600052602060002090600202016000915090508060000154908060010154905082565b815481835581811511610341576002028160020283600052602060002091820191016103409190610346565b5b505050565b61037291905b8082111561036e5760008082016000905560018201600090555060020161034c565b5090565b905600a165627a7a72305820c74813fe92c4af5c6aaf0cdec576eba062a1dc58cdb8f5c45faac09ac99b4dab0029",
  "linkReferences": {},
  "deployedLinkReferences": {}
}