{
  "_format": "hh-sol-artifact-1",
  "contractName": "FuzzyIdentityChallenge",
  "sourceName": "contracts/FuzzyIdentityChallenge.sol",
  "abi": [
    {
      "constant": false,
      "inputs": [],
      "name": "authenticate",
      "outputs": [],
      "payable": false,
      "stateMutability": "nonpayable",
      "type": "function"
    },
    {
      "constant": true,
      "inputs": [],
      "name": "isComplete",
      "outputs": [
        {
          "name": "",
          "type": "bool"
        }
      ],
      "payable": false,
      "stateMutability": "view",
      "type": "function"
    }
  ],
  "bytecode": "0x6060604052341561000f57600080fd5b61028e8061001e6000396000f30060606040526004361061004c576000357c0100000000000000000000000000000000000000000000000000000000900463ffffffff168063380c7a6714610051578063b2fa1c9e14610066575b600080fd5b341561005c57600080fd5b610064610093565b005b341561007157600080fd5b6100796100d7565b604051808215151515815260200191505060405180910390f35b61009c336100e9565b15156100a757600080fd5b6100b033610196565b15156100bb57600080fd5b60016000806101000a81548160ff021916908315150217905550565b6000809054906101000a900460ff1681565b60007f736d617278000000000000000000000000000000000000000000000000000000600019168273ffffffffffffffffffffffffffffffffffffffff166306fdde036040518163ffffffff167c0100000000000000000000000000000000000000000000000000000000028152600401602060405180830381600087803b151561017357600080fd5b5af1151561018057600080fd5b5050506040518051905060001916149050919050565b6000806000806000856c010000000000000000000000000293506f0badc0de00000000000000000000000092506f0fffffff0000000000000000000000009150600090505b602281101561025457826bffffffffffffffffffffffff19168285166bffffffffffffffffffffffff191614156102155760019450610259565b6004826bffffffffffffffffffffffff19169060020a0291506004836bffffffffffffffffffffffff19169060020a02925080806001019150506101db565b600094505b505050509190505600a165627a7a72305820d84ed366acbbc6f77fea8cf283cfed267765e5d328b8d5413cfa5083b2b6f2330029",
  "linkReferences": {},
  "deployedLinkReferences": {}
}