{
  "_format": "hh-sol-artifact-1",
  "contractName": "MyGovernor",
  "sourceName": "contracts/MyGovernor.sol",
  "abi": [
    {
      "inputs": [
        {
          "internalType": "contract IVotes",
          "name": "_token",
          "type": "address"
        },
        {
          "internalType": "contract TimelockController",
          "name": "_timelock",
          "type": "address"
        },
        {
          "internalType": "uint256",
          "name": "_votingDelay",
          "type": "uint256"
        },
        {
          "internalType": "uint256",
          "name": "_votingPeriod",
          "type": "uint256"
        },
        {
          "internalType": "uint256",
          "name": "_proposalThreshold",
          "type": "uint256"
        },
        {
          "internalType": "uint256",
          "name": "_quorumPercentage",
          "type": "uint256"
        }
      ],
      "stateMutability": "nonpayable",
      "type": "constructor"
    },
    {
      "inputs": [],
      "name": "CheckpointUnorderedInsertion",
      "type": "error"
    },
    {
      "inputs": [],
      "name": "FailedCall",
      "type": "error"
    },
    {
      "inputs": [
        {
          "internalType": "address",
          "name": "voter",
          "type": "address"
        }
      ],
      "name": "GovernorAlreadyCastVote",
      "type": "error"
    },
    {
      "inputs": [
        {
          "internalType": "uint256",
          "name": "proposalId",
          "type": "uint256"
        }
      ],
      "name": "GovernorAlreadyQueuedProposal",
      "type": "error"
    },
    {
      "inputs": [],
      "name": "GovernorDisabledDeposit",
      "type": "error"
    },
    {
      "inputs": [
        {
          "internalType": "address",
          "name": "proposer",
          "type": "address"
        },
        {
          "internalType": "uint256",
          "name": "votes",
          "type": "uint256"
        },
        {
          "internalType": "uint256",
          "name": "threshold",
          "type": "uint256"
        }
      ],
      "name": "GovernorInsufficientProposerVotes",
      "type": "error"
    },
    {
      "inputs": [
        {
          "internalType": "uint256",
          "name": "targets",
          "type": "uint256"
        },
        {
          "internalType": "uint256",
          "name": "calldatas",
          "type": "uint256"
        },
        {
          "internalType": "uint256",
          "name": "values",
          "type": "uint256"
        }
      ],
      "name": "GovernorInvalidProposalLength",
      "type": "error"
    },
    {
      "inputs": [
        {
          "internalType": "uint256",
          "name": "quorumNumerator",
          "type": "uint256"
        },
        {
          "internalType": "uint256",
          "name": "quorumDenominator",
          "type": "uint256"
        }
      ],
      "name": "GovernorInvalidQuorumFraction",
      "type": "error"
    },
    {
      "inputs": [
        {
          "internalType": "address",
          "name": "voter",
          "type": "address"
        }
      ],
      "name": "GovernorInvalidSignature",
      "type": "error"
    },
    {
      "inputs": [],
      "name": "GovernorInvalidVoteParams",
      "type": "error"
    },
    {
      "inputs": [],
      "name": "GovernorInvalidVoteType",
      "type": "error"
    },
    {
      "inputs": [
        {
          "internalType": "uint256",
          "name": "votingPeriod",
          "type": "uint256"
        }
      ],
      "name": "GovernorInvalidVotingPeriod",
      "type": "error"
    },
    {
      "inputs": [
        {
          "internalType": "uint256",
          "name": "proposalId",
          "type": "uint256"
        }
      ],
      "name": "GovernorNonexistentProposal",
      "type": "error"
    },
    {
      "inputs": [
        {
          "internalType": "uint256",
          "name": "proposalId",
          "type": "uint256"
        }
      ],
      "name": "GovernorNotQueuedProposal",
      "type": "error"
    },
    {
      "inputs": [
        {
          "internalType": "address",
          "name": "account",
          "type": "address"
        }
      ],
      "name": "GovernorOnlyExecutor",
      "type": "error"
    },
    {
      "inputs": [],
      "name": "GovernorQueueNotImplemented",
      "type": "error"
    },
    {
      "inputs": [
        {
          "internalType": "address",
          "name": "proposer",
          "type": "address"
        }
      ],
      "name": "GovernorRestrictedProposer",
      "type": "error"
    },
    {
      "inputs": [
        {
          "internalType": "uint256",
          "name": "proposalId",
          "type": "uint256"
        },
        {
          "internalType": "address",
          "name": "account",
          "type": "address"
        }
      ],
      "name": "GovernorUnableToCancel",
      "type": "error"
    },
    {
      "inputs": [
        {
          "internalType": "uint256",
          "name": "proposalId",
          "type": "uint256"
        },
        {
          "internalType": "enum IGovernor.ProposalState",
          "name": "current",
          "type": "uint8"
        },
        {
          "internalType": "bytes32",
          "name": "expectedStates",
          "type": "bytes32"
        }
      ],
      "name": "GovernorUnexpectedProposalState",
      "type": "error"
    },
    {
      "inputs": [
        {
          "internalType": "address",
          "name": "account",
          "type": "address"
        },
        {
          "internalType": "uint256",
          "name": "currentNonce",
          "type": "uint256"
        }
      ],
      "name": "InvalidAccountNonce",
      "type": "error"
    },
    {
      "inputs": [],
      "name": "InvalidShortString",
      "type": "error"
    },
    {
      "inputs": [
        {
          "internalType": "uint8",
          "name": "bits",
          "type": "uint8"
        },
        {
          "internalType": "uint256",
          "name": "value",
          "type": "uint256"
        }
      ],
      "name": "SafeCastOverflowedUintDowncast",
      "type": "error"
    },
    {
      "inputs": [
        {
          "internalType": "string",
          "name": "str",
          "type": "string"
        }
      ],
      "name": "StringTooLong",
      "type": "error"
    },
    {
      "anonymous": false,
      "inputs": [],
      "name": "EIP712DomainChanged",
      "type": "event"
    },
    {
      "anonymous": false,
      "inputs": [
        {
          "indexed": false,
          "internalType": "uint256",
          "name": "proposalId",
          "type": "uint256"
        }
      ],
      "name": "ProposalCanceled",
      "type": "event"
    },
    {
      "anonymous": false,
      "inputs": [
        {
          "indexed": false,
          "internalType": "uint256",
          "name": "proposalId",
          "type": "uint256"
        },
        {
          "indexed": false,
          "internalType": "address",
          "name": "proposer",
          "type": "address"
        },
        {
          "indexed": false,
          "internalType": "address[]",
          "name": "targets",
          "type": "address[]"
        },
        {
          "indexed": false,
          "internalType": "uint256[]",
          "name": "values",
          "type": "uint256[]"
        },
        {
          "indexed": false,
          "internalType": "string[]",
          "name": "signatures",
          "type": "string[]"
        },
        {
          "indexed": false,
          "internalType": "bytes[]",
          "name": "calldatas",
          "type": "bytes[]"
        },
        {
          "indexed": false,
          "internalType": "uint256",
          "name": "voteStart",
          "type": "uint256"
        },
        {
          "indexed": false,
          "internalType": "uint256",
          "name": "voteEnd",
          "type": "uint256"
        },
        {
          "indexed": false,
          "internalType": "string",
          "name": "description",
          "type": "string"
        }
      ],
      "name": "ProposalCreated",
      "type": "event"
    },
    {
      "anonymous": false,
      "inputs": [
        {
          "indexed": false,
          "internalType": "uint256",
          "name": "proposalId",
          "type": "uint256"
        }
      ],
      "name": "ProposalExecuted",
      "type": "event"
    },
    {
      "anonymous": false,
      "inputs": [
        {
          "indexed": false,
          "internalType": "uint256",
          "name": "proposalId",
          "type": "uint256"
        },
        {
          "indexed": false,
          "internalType": "uint256",
          "name": "etaSeconds",
          "type": "uint256"
        }
      ],
      "name": "ProposalQueued",
      "type": "event"
    },
    {
      "anonymous": false,
      "inputs": [
        {
          "indexed": false,
          "internalType": "uint256",
          "name": "oldProposalThreshold",
          "type": "uint256"
        },
        {
          "indexed": false,
          "internalType": "uint256",
          "name": "newProposalThreshold",
          "type": "uint256"
        }
      ],
      "name": "ProposalThresholdSet",
      "type": "event"
    },
    {
      "anonymous": false,
      "inputs": [
        {
          "indexed": false,
          "internalType": "uint256",
          "name": "oldQuorumNumerator",
          "type": "uint256"
        },
        {
          "indexed": false,
          "internalType": "uint256",
          "name": "newQuorumNumerator",
          "type": "uint256"
        }
      ],
      "name": "QuorumNumeratorUpdated",
      "type": "event"
    },
    {
      "anonymous": false,
      "inputs": [
        {
          "indexed": false,
          "internalType": "address",
          "name": "oldTimelock",
          "type": "address"
        },
        {
          "indexed": false,
          "internalType": "address",
          "name": "newTimelock",
          "type": "address"
        }
      ],
      "name": "TimelockChange",
      "type": "event"
    },
    {
      "anonymous": false,
      "inputs": [
        {
          "indexed": true,
          "internalType": "address",
          "name": "voter",
          "type": "address"
        },
        {
          "indexed": false,
          "internalType": "uint256",
          "name": "proposalId",
          "type": "uint256"
        },
        {
          "indexed": false,
          "internalType": "uint8",
          "name": "support",
          "type": "uint8"
        },
        {
          "indexed": false,
          "internalType": "uint256",
          "name": "weight",
          "type": "uint256"
        },
        {
          "indexed": false,
          "internalType": "string",
          "name": "reason",
          "type": "string"
        }
      ],
      "name": "VoteCast",
      "type": "event"
    },
    {
      "anonymous": false,
      "inputs": [
        {
          "indexed": true,
          "internalType": "address",
          "name": "voter",
          "type": "address"
        },
        {
          "indexed": false,
          "internalType": "uint256",
          "name": "proposalId",
          "type": "uint256"
        },
        {
          "indexed": false,
          "internalType": "uint8",
          "name": "support",
          "type": "uint8"
        },
        {
          "indexed": false,
          "internalType": "uint256",
          "name": "weight",
          "type": "uint256"
        },
        {
          "indexed": false,
          "internalType": "string",
          "name": "reason",
          "type": "string"
        },
        {
          "indexed": false,
          "internalType": "bytes",
          "name": "params",
          "type": "bytes"
        }
      ],
      "name": "VoteCastWithParams",
      "type": "event"
    },
    {
      "anonymous": false,
      "inputs": [
        {
          "indexed": false,
          "internalType": "uint256",
          "name": "oldVotingDelay",
          "type": "uint256"
        },
        {
          "indexed": false,
          "internalType": "uint256",
          "name": "newVotingDelay",
          "type": "uint256"
        }
      ],
      "name": "VotingDelaySet",
      "type": "event"
    },
    {
      "anonymous": false,
      "inputs": [
        {
          "indexed": false,
          "internalType": "uint256",
          "name": "oldVotingPeriod",
          "type": "uint256"
        },
        {
          "indexed": false,
          "internalType": "uint256",
          "name": "newVotingPeriod",
          "type": "uint256"
        }
      ],
      "name": "VotingPeriodSet",
      "type": "event"
    },
    {
      "inputs": [],
      "name": "BALLOT_TYPEHASH",
      "outputs": [
        {
          "internalType": "bytes32",
          "name": "",
          "type": "bytes32"
        }
      ],
      "stateMutability": "view",
      "type": "function"
    },
    {
      "inputs": [],
      "name": "CLOCK_MODE",
      "outputs": [
        {
          "internalType": "string",
          "name": "",
          "type": "string"
        }
      ],
      "stateMutability": "view",
      "type": "function"
    },
    {
      "inputs": [],
      "name": "COUNTING_MODE",
      "outputs": [
        {
          "internalType": "string",
          "name": "",
          "type": "string"
        }
      ],
      "stateMutability": "pure",
      "type": "function"
    },
    {
      "inputs": [],
      "name": "EXTENDED_BALLOT_TYPEHASH",
      "outputs": [
        {
          "internalType": "bytes32",
          "name": "",
          "type": "bytes32"
        }
      ],
      "stateMutability": "view",
      "type": "function"
    },
    {
      "inputs": [
        {
          "internalType": "address[]",
          "name": "targets",
          "type": "address[]"
        },
        {
          "internalType": "uint256[]",
          "name": "values",
          "type": "uint256[]"
        },
        {
          "internalType": "bytes[]",
          "name": "calldatas",
          "type": "bytes[]"
        },
        {
          "internalType": "bytes32",
          "name": "descriptionHash",
          "type": "bytes32"
        }
      ],
      "name": "cancel",
      "outputs": [
        {
          "internalType": "uint256",
          "name": "",
          "type": "uint256"
        }
      ],
      "stateMutability": "nonpayable",
      "type": "function"
    },
    {
      "inputs": [
        {
          "internalType": "uint256",
          "name": "proposalId",
          "type": "uint256"
        },
        {
          "internalType": "uint8",
          "name": "support",
          "type": "uint8"
        }
      ],
      "name": "castVote",
      "outputs": [
        {
          "internalType": "uint256",
          "name": "",
          "type": "uint256"
        }
      ],
      "stateMutability": "nonpayable",
      "type": "function"
    },
    {
      "inputs": [
        {
          "internalType": "uint256",
          "name": "proposalId",
          "type": "uint256"
        },
        {
          "internalType": "uint8",
          "name": "support",
          "type": "uint8"
        },
        {
          "internalType": "address",
          "name": "voter",
          "type": "address"
        },
        {
          "internalType": "bytes",
          "name": "signature",
          "type": "bytes"
        }
      ],
      "name": "castVoteBySig",
      "outputs": [
        {
          "internalType": "uint256",
          "name": "",
          "type": "uint256"
        }
      ],
      "stateMutability": "nonpayable",
      "type": "function"
    },
    {
      "inputs": [
        {
          "internalType": "uint256",
          "name": "proposalId",
          "type": "uint256"
        },
        {
          "internalType": "uint8",
          "name": "support",
          "type": "uint8"
        },
        {
          "internalType": "string",
          "name": "reason",
          "type": "string"
        }
      ],
      "name": "castVoteWithReason",
      "outputs": [
        {
          "internalType": "uint256",
          "name": "",
          "type": "uint256"
        }
      ],
      "stateMutability": "nonpayable",
      "type": "function"
    },
    {
      "inputs": [
        {
          "internalType": "uint256",
          "name": "proposalId",
          "type": "uint256"
        },
        {
          "internalType": "uint8",
          "name": "support",
          "type": "uint8"
        },
        {
          "internalType": "string",
          "name": "reason",
          "type": "string"
        },
        {
          "internalType": "bytes",
          "name": "params",
          "type": "bytes"
        }
      ],
      "name": "castVoteWithReasonAndParams",
      "outputs": [
        {
          "internalType": "uint256",
          "name": "",
          "type": "uint256"
        }
      ],
      "stateMutability": "nonpayable",
      "type": "function"
    },
    {
      "inputs": [
        {
          "internalType": "uint256",
          "name": "proposalId",
          "type": "uint256"
        },
        {
          "internalType": "uint8",
          "name": "support",
          "type": "uint8"
        },
        {
          "internalType": "address",
          "name": "voter",
          "type": "address"
        },
        {
          "internalType": "string",
          "name": "reason",
          "type": "string"
        },
        {
          "internalType": "bytes",
          "name": "params",
          "type": "bytes"
        },
        {
          "internalType": "bytes",
          "name": "signature",
          "type": "bytes"
        }
      ],
      "name": "castVoteWithReasonAndParamsBySig",
      "outputs": [
        {
          "internalType": "uint256",
          "name": "",
          "type": "uint256"
        }
      ],
      "stateMutability": "nonpayable",
      "type": "function"
    },
    {
      "inputs": [],
      "name": "clock",
      "outputs": [
        {
          "internalType": "uint48",
          "name": "",
          "type": "uint48"
        }
      ],
      "stateMutability": "view",
      "type": "function"
    },
    {
      "inputs": [],
      "name": "eip712Domain",
      "outputs": [
        {
          "internalType": "bytes1",
          "name": "fields",
          "type": "bytes1"
        },
        {
          "internalType": "string",
          "name": "name",
          "type": "string"
        },
        {
          "internalType": "string",
          "name": "version",
          "type": "string"
        },
        {
          "internalType": "uint256",
          "name": "chainId",
          "type": "uint256"
        },
        {
          "internalType": "address",
          "name": "verifyingContract",
          "type": "address"
        },
        {
          "internalType": "bytes32",
          "name": "salt",
          "type": "bytes32"
        },
        {
          "internalType": "uint256[]",
          "name": "extensions",
          "type": "uint256[]"
        }
      ],
      "stateMutability": "view",
      "type": "function"
    },
    {
      "inputs": [
        {
          "internalType": "address[]",
          "name": "targets",
          "type": "address[]"
        },
        {
          "internalType": "uint256[]",
          "name": "values",
          "type": "uint256[]"
        },
        {
          "internalType": "bytes[]",
          "name": "calldatas",
          "type": "bytes[]"
        },
        {
          "internalType": "bytes32",
          "name": "descriptionHash",
          "type": "bytes32"
        }
      ],
      "name": "execute",
      "outputs": [
        {
          "internalType": "uint256",
          "name": "",
          "type": "uint256"
        }
      ],
      "stateMutability": "payable",
      "type": "function"
    },
    {
      "inputs": [
        {
          "internalType": "address[]",
          "name": "targets",
          "type": "address[]"
        },
        {
          "internalType": "uint256[]",
          "name": "values",
          "type": "uint256[]"
        },
        {
          "internalType": "bytes[]",
          "name": "calldatas",
          "type": "bytes[]"
        },
        {
          "internalType": "bytes32",
          "name": "descriptionHash",
          "type": "bytes32"
        }
      ],
      "name": "getProposalId",
      "outputs": [
        {
          "internalType": "uint256",
          "name": "",
          "type": "uint256"
        }
      ],
      "stateMutability": "view",
      "type": "function"
    },
    {
      "inputs": [
        {
          "internalType": "address",
          "name": "account",
          "type": "address"
        },
        {
          "internalType": "uint256",
          "name": "blockNumber",
          "type": "uint256"
        }
      ],
      "name": "getVotes",
      "outputs": [
        {
          "internalType": "uint256",
          "name": "",
          "type": "uint256"
        }
      ],
      "stateMutability": "view",
      "type": "function"
    },
    {
      "inputs": [
        {
          "internalType": "address",
          "name": "account",
          "type": "address"
        },
        {
          "internalType": "uint256",
          "name": "timepoint",
          "type": "uint256"
        },
        {
          "internalType": "bytes",
          "name": "params",
          "type": "bytes"
        }
      ],
      "name": "getVotesWithParams",
      "outputs": [
        {
          "internalType": "uint256",
          "name": "",
          "type": "uint256"
        }
      ],
      "stateMutability": "view",
      "type": "function"
    },
    {
      "inputs": [
        {
          "internalType": "uint256",
          "name": "proposalId",
          "type": "uint256"
        },
        {
          "internalType": "address",
          "name": "account",
          "type": "address"
        }
      ],
      "name": "hasVoted",
      "outputs": [
        {
          "internalType": "bool",
          "name": "",
          "type": "bool"
        }
      ],
      "stateMutability": "view",
      "type": "function"
    },
    {
      "inputs": [
        {
          "internalType": "address[]",
          "name": "targets",
          "type": "address[]"
        },
        {
          "internalType": "uint256[]",
          "name": "values",
          "type": "uint256[]"
        },
        {
          "internalType": "bytes[]",
          "name": "calldatas",
          "type": "bytes[]"
        },
        {
          "internalType": "bytes32",
          "name": "descriptionHash",
          "type": "bytes32"
        }
      ],
      "name": "hashProposal",
      "outputs": [
        {
          "internalType": "uint256",
          "name": "",
          "type": "uint256"
        }
      ],
      "stateMutability": "pure",
      "type": "function"
    },
    {
      "inputs": [],
      "name": "name",
      "outputs": [
        {
          "internalType": "string",
          "name": "",
          "type": "string"
        }
      ],
      "stateMutability": "view",
      "type": "function"
    },
    {
      "inputs": [
        {
          "internalType": "address",
          "name": "owner",
          "type": "address"
        }
      ],
      "name": "nonces",
      "outputs": [
        {
          "internalType": "uint256",
          "name": "",
          "type": "uint256"
        }
      ],
      "stateMutability": "view",
      "type": "function"
    },
    {
      "inputs": [
        {
          "internalType": "address",
          "name": "",
          "type": "address"
        },
        {
          "internalType": "address",
          "name": "",
          "type": "address"
        },
        {
          "internalType": "uint256[]",
          "name": "",
          "type": "uint256[]"
        },
        {
          "internalType": "uint256[]",
          "name": "",
          "type": "uint256[]"
        },
        {
          "internalType": "bytes",
          "name": "",
          "type": "bytes"
        }
      ],
      "name": "onERC1155BatchReceived",
      "outputs": [
        {
          "internalType": "bytes4",
          "name": "",
          "type": "bytes4"
        }
      ],
      "stateMutability": "nonpayable",
      "type": "function"
    },
    {
      "inputs": [
        {
          "internalType": "address",
          "name": "",
          "type": "address"
        },
        {
          "internalType": "address",
          "name": "",
          "type": "address"
        },
        {
          "internalType": "uint256",
          "name": "",
          "type": "uint256"
        },
        {
          "internalType": "uint256",
          "name": "",
          "type": "uint256"
        },
        {
          "internalType": "bytes",
          "name": "",
          "type": "bytes"
        }
      ],
      "name": "onERC1155Received",
      "outputs": [
        {
          "internalType": "bytes4",
          "name": "",
          "type": "bytes4"
        }
      ],
      "stateMutability": "nonpayable",
      "type": "function"
    },
    {
      "inputs": [
        {
          "internalType": "address",
          "name": "",
          "type": "address"
        },
        {
          "internalType": "address",
          "name": "",
          "type": "address"
        },
        {
          "internalType": "uint256",
          "name": "",
          "type": "uint256"
        },
        {
          "internalType": "bytes",
          "name": "",
          "type": "bytes"
        }
      ],
      "name": "onERC721Received",
      "outputs": [
        {
          "internalType": "bytes4",
          "name": "",
          "type": "bytes4"
        }
      ],
      "stateMutability": "nonpayable",
      "type": "function"
    },
    {
      "inputs": [
        {
          "internalType": "uint256",
          "name": "proposalId",
          "type": "uint256"
        }
      ],
      "name": "proposalDeadline",
      "outputs": [
        {
          "internalType": "uint256",
          "name": "",
          "type": "uint256"
        }
      ],
      "stateMutability": "view",
      "type": "function"
    },
    {
      "inputs": [
        {
          "internalType": "uint256",
          "name": "proposalId",
          "type": "uint256"
        }
      ],
      "name": "proposalEta",
      "outputs": [
        {
          "internalType": "uint256",
          "name": "",
          "type": "uint256"
        }
      ],
      "stateMutability": "view",
      "type": "function"
    },
    {
      "inputs": [
        {
          "internalType": "uint256",
          "name": "proposalId",
          "type": "uint256"
        }
      ],
      "name": "proposalNeedsQueuing",
      "outputs": [
        {
          "internalType": "bool",
          "name": "",
          "type": "bool"
        }
      ],
      "stateMutability": "view",
      "type": "function"
    },
    {
      "inputs": [
        {
          "internalType": "uint256",
          "name": "proposalId",
          "type": "uint256"
        }
      ],
      "name": "proposalProposer",
      "outputs": [
        {
          "internalType": "address",
          "name": "",
          "type": "address"
        }
      ],
      "stateMutability": "view",
      "type": "function"
    },
    {
      "inputs": [
        {
          "internalType": "uint256",
          "name": "proposalId",
          "type": "uint256"
        }
      ],
      "name": "proposalSnapshot",
      "outputs": [
        {
          "internalType": "uint256",
          "name": "",
          "type": "uint256"
        }
      ],
      "stateMutability": "view",
      "type": "function"
    },
    {
      "inputs": [],
      "name": "proposalThreshold",
      "outputs": [
        {
          "internalType": "uint256",
          "name": "",
          "type": "uint256"
        }
      ],
      "stateMutability": "view",
      "type": "function"
    },
    {
      "inputs": [
        {
          "internalType": "uint256",
          "name": "proposalId",
          "type": "uint256"
        }
      ],
      "name": "proposalVotes",
      "outputs": [
        {
          "internalType": "uint256",
          "name": "againstVotes",
          "type": "uint256"
        },
        {
          "internalType": "uint256",
          "name": "forVotes",
          "type": "uint256"
        },
        {
          "internalType": "uint256",
          "name": "abstainVotes",
          "type": "uint256"
        }
      ],
      "stateMutability": "view",
      "type": "function"
    },
    {
      "inputs": [
        {
          "internalType": "address[]",
          "name": "targets",
          "type": "address[]"
        },
        {
          "internalType": "uint256[]",
          "name": "values",
          "type": "uint256[]"
        },
        {
          "internalType": "bytes[]",
          "name": "calldatas",
          "type": "bytes[]"
        },
        {
          "internalType": "string",
          "name": "description",
          "type": "string"
        }
      ],
      "name": "propose",
      "outputs": [
        {
          "internalType": "uint256",
          "name": "proposalId",
          "type": "uint256"
        }
      ],
      "stateMutability": "nonpayable",
      "type": "function"
    },
    {
      "inputs": [
        {
          "internalType": "address[]",
          "name": "targets",
          "type": "address[]"
        },
        {
          "internalType": "uint256[]",
          "name": "values",
          "type": "uint256[]"
        },
        {
          "internalType": "bytes[]",
          "name": "calldatas",
          "type": "bytes[]"
        },
        {
          "internalType": "bytes32",
          "name": "descriptionHash",
          "type": "bytes32"
        }
      ],
      "name": "queue",
      "outputs": [
        {
          "internalType": "uint256",
          "name": "",
          "type": "uint256"
        }
      ],
      "stateMutability": "nonpayable",
      "type": "function"
    },
    {
      "inputs": [
        {
          "internalType": "uint256",
          "name": "blockNumber",
          "type": "uint256"
        }
      ],
      "name": "quorum",
      "outputs": [
        {
          "internalType": "uint256",
          "name": "",
          "type": "uint256"
        }
      ],
      "stateMutability": "view",
      "type": "function"
    },
    {
      "inputs": [],
      "name": "quorumDenominator",
      "outputs": [
        {
          "internalType": "uint256",
          "name": "",
          "type": "uint256"
        }
      ],
      "stateMutability": "view",
      "type": "function"
    },
    {
      "inputs": [
        {
          "internalType": "uint256",
          "name": "timepoint",
          "type": "uint256"
        }
      ],
      "name": "quorumNumerator",
      "outputs": [
        {
          "internalType": "uint256",
          "name": "",
          "type": "uint256"
        }
      ],
      "stateMutability": "view",
      "type": "function"
    },
    {
      "inputs": [],
      "name": "quorumNumerator",
      "outputs": [
        {
          "internalType": "uint256",
          "name": "",
          "type": "uint256"
        }
      ],
      "stateMutability": "view",
      "type": "function"
    },
    {
      "inputs": [
        {
          "internalType": "address",
          "name": "target",
          "type": "address"
        },
        {
          "internalType": "uint256",
          "name": "value",
          "type": "uint256"
        },
        {
          "internalType": "bytes",
          "name": "data",
          "type": "bytes"
        }
      ],
      "name": "relay",
      "outputs": [],
      "stateMutability": "payable",
      "type": "function"
    },
    {
      "inputs": [
        {
          "internalType": "uint256",
          "name": "newProposalThreshold",
          "type": "uint256"
        }
      ],
      "name": "setProposalThreshold",
      "outputs": [],
      "stateMutability": "nonpayable",
      "type": "function"
    },
    {
      "inputs": [
        {
          "internalType": "uint48",
          "name": "newVotingDelay",
          "type": "uint48"
        }
      ],
      "name": "setVotingDelay",
      "outputs": [],
      "stateMutability": "nonpayable",
      "type": "function"
    },
    {
      "inputs": [
        {
          "internalType": "uint32",
          "name": "newVotingPeriod",
          "type": "uint32"
        }
      ],
      "name": "setVotingPeriod",
      "outputs": [],
      "stateMutability": "nonpayable",
      "type": "function"
    },
    {
      "inputs": [
        {
          "internalType": "uint256",
          "name": "proposalId",
          "type": "uint256"
        }
      ],
      "name": "state",
      "outputs": [
        {
          "internalType": "enum IGovernor.ProposalState",
          "name": "",
          "type": "uint8"
        }
      ],
      "stateMutability": "view",
      "type": "function"
    },
    {
      "inputs": [
        {
          "internalType": "bytes4",
          "name": "interfaceId",
          "type": "bytes4"
        }
      ],
      "name": "supportsInterface",
      "outputs": [
        {
          "internalType": "bool",
          "name": "",
          "type": "bool"
        }
      ],
      "stateMutability": "view",
      "type": "function"
    },
    {
      "inputs": [],
      "name": "timelock",
      "outputs": [
        {
          "internalType": "address",
          "name": "",
          "type": "address"
        }
      ],
      "stateMutability": "view",
      "type": "function"
    },
    {
      "inputs": [],
      "name": "token",
      "outputs": [
        {
          "internalType": "contract IERC5805",
          "name": "",
          "type": "address"
        }
      ],
      "stateMutability": "view",
      "type": "function"
    },
    {
      "inputs": [
        {
          "internalType": "uint256",
          "name": "newQuorumNumerator",
          "type": "uint256"
        }
      ],
      "name": "updateQuorumNumerator",
      "outputs": [],
      "stateMutability": "nonpayable",
      "type": "function"
    },
    {
      "inputs": [
        {
          "internalType": "contract TimelockController",
          "name": "newTimelock",
          "type": "address"
        }
      ],
      "name": "updateTimelock",
      "outputs": [],
      "stateMutability": "nonpayable",
      "type": "function"
    },
    {
      "inputs": [],
      "name": "version",
      "outputs": [
        {
          "internalType": "string",
          "name": "",
          "type": "string"
        }
      ],
      "stateMutability": "view",
      "type": "function"
    },
    {
      "inputs": [],
      "name": "votingDelay",
      "outputs": [
        {
          "internalType": "uint256",
          "name": "",
          "type": "uint256"
        }
      ],
      "stateMutability": "view",
      "type": "function"
    },
    {
      "inputs": [],
      "name": "votingPeriod",
      "outputs": [
        {
          "internalType": "uint256",
          "name": "",
          "type": "uint256"
        }
      ],
      "stateMutability": "view",
      "type": "function"
    },
    {
      "stateMutability": "payable",
      "type": "receive"
    }
  ],
  "bytecode": "0x61018060405234801561001157600080fd5b5060405161893638038061893683398181016040528101906100339190610c85565b8481878686866040518060400160405280600d81526020017f4d79476f7665726e6f7244414f000000000000000000000000000000000000008152508061007e6101ca60201b60201c565b61009260008361020760201b90919060201c565b61012081815250506100ae60018261020760201b90919060201c565b6101408181525050818051906020012060e08181525050808051906020012061010081815250504660a081815250506100eb61025760201b60201c565b608081815250503073ffffffffffffffffffffffffffffffffffffffff1660c08173ffffffffffffffffffffffffffffffffffffffff1681525050505080600390816101379190610f58565b5050610148836102b260201b60201c565b6101578261032760201b60201c565b610166816103e260201b60201c565b5050508073ffffffffffffffffffffffffffffffffffffffff166101608173ffffffffffffffffffffffffffffffffffffffff1681525050506101ae8161042760201b60201c565b506101be8161050360201b60201c565b50505050505050611501565b60606040518060400160405280600181526020017f3100000000000000000000000000000000000000000000000000000000000000815250905090565b600060208351101561022957610222836105a260201b60201c565b9050610251565b826102398361060a60201b60201c565b60000190816102489190610f58565b5060ff60001b90505b92915050565b60007f8b73c3c69bb8fe3d512ecc4cf759cc79239f7b179b0ffacaa9a75d522b39400f60e051610100514630604051602001610297959493929190611061565b60405160208183030381529060405280519060200120905090565b7fc565b045403dc03c2eea82b81a0465edad9e2e7fc4d97e11421c209da93d7a93600860009054906101000a900465ffffffffffff16826040516102f79291906110f7565b60405180910390a180600860006101000a81548165ffffffffffff021916908365ffffffffffff16021790555050565b60008163ffffffff16036103735760006040517ff1cfbf0500000000000000000000000000000000000000000000000000000000815260040161036a919061115b565b60405180910390fd5b7f7e3f7f0708a84de9203036abaa450dccc85ad5ff52f78c170f3edb55cf5e8828600860069054906101000a900463ffffffff16826040516103b69291906111b7565b60405180910390a180600860066101000a81548163ffffffff021916908363ffffffff16021790555050565b7fccb45da8d5717e6c4544694297c4ba5cf151d455c9bb0ed4fc7a38411bc05461600754826040516104159291906111e0565b60405180910390a18060078190555050565b600061043761061460201b60201c565b9050808211156104805781816040517f243e54450000000000000000000000000000000000000000000000000000000081526004016104779291906111e0565b60405180910390fd5b600061049061061d60201b60201c565b90506104c36104a361065060201b60201c565b6104b2856106e860201b60201c565b600a61075660201b9092919060201c565b50507f0553476bf02ef2726e8ce5ced78d63e26e602e4a2257b1f559418e24b463399781846040516104f69291906111e0565b60405180910390a1505050565b7f08f74ea46ef7894f65eabfb5e6e695de773a000b47c529ab559178069b226401600b60009054906101000a900473ffffffffffffffffffffffffffffffffffffffff1682604051610556929190611209565b60405180910390a180600b60006101000a81548173ffffffffffffffffffffffffffffffffffffffff021916908373ffffffffffffffffffffffffffffffffffffffff16021790555050565b600080829050601f815111156105ef57826040517f305a27a90000000000000000000000000000000000000000000000000000000081526004016105e691906112b7565b60405180910390fd5b8051816105fb90611309565b60001c1760001b915050919050565b6000819050919050565b60006064905090565b600061062f600a61077960201b60201c565b79ffffffffffffffffffffffffffffffffffffffffffffffffffff16905090565b60006106606107e760201b60201c565b73ffffffffffffffffffffffffffffffffffffffff166391ddadf46040518163ffffffff1660e01b8152600401602060405180830381865afa9250505080156106c757506040513d601f19601f820116820180604052508101906106c4919061139c565b60015b6106e0576106d96107f260201b60201c565b90506106e5565b809150505b90565b600079ffffffffffffffffffffffffffffffffffffffffffffffffffff801682111561074e5760d0826040517f6dfcc650000000000000000000000000000000000000000000000000000000008152600401610745929190611411565b60405180910390fd5b819050919050565b60008061076d85600001858561080860201b60201c565b91509150935093915050565b60008082600001805490509050600081146107dc576107ad836000016001836107a29190611469565b610b1b60201b60201c565b60000160069054906101000a900479ffffffffffffffffffffffffffffffffffffffffffffffffffff166107df565b60005b915050919050565b600061016051905090565b600061080343610b3060201b60201c565b905090565b6000806000858054905090506000811115610a2b57600061083b876001846108309190611469565b610b1b60201b60201c565b905060008160000160009054906101000a900465ffffffffffff16905060008260000160069054906101000a900479ffffffffffffffffffffffffffffffffffffffffffffffffffff1690508765ffffffffffff168265ffffffffffff1611156108d1576040517f2520601d00000000000000000000000000000000000000000000000000000000815260040160405180910390fd5b8765ffffffffffff168265ffffffffffff160361093c57868360000160066101000a81548179ffffffffffffffffffffffffffffffffffffffffffffffffffff021916908379ffffffffffffffffffffffffffffffffffffffffffffffffffff160217905550610a1c565b8860405180604001604052808a65ffffffffffff1681526020018979ffffffffffffffffffffffffffffffffffffffffffffffffffff168152509080600181540180825580915050600190039060005260206000200160009091909190915060008201518160000160006101000a81548165ffffffffffff021916908365ffffffffffff16021790555060208201518160000160066101000a81548179ffffffffffffffffffffffffffffffffffffffffffffffffffff021916908379ffffffffffffffffffffffffffffffffffffffffffffffffffff16021790555050505b80879550955050505050610b13565b8560405180604001604052808765ffffffffffff1681526020018679ffffffffffffffffffffffffffffffffffffffffffffffffffff168152509080600181540180825580915050600190039060005260206000200160009091909190915060008201518160000160006101000a81548165ffffffffffff021916908365ffffffffffff16021790555060208201518160000160066101000a81548179ffffffffffffffffffffffffffffffffffffffffffffffffffff021916908379ffffffffffffffffffffffffffffffffffffffffffffffffffff160217905550505060008492509250505b935093915050565b60008260005281602060002001905092915050565b600065ffffffffffff8016821115610b82576030826040517f6dfcc650000000000000000000000000000000000000000000000000000000008152600401610b799291906114d8565b60405180910390fd5b819050919050565b600080fd5b600073ffffffffffffffffffffffffffffffffffffffff82169050919050565b6000610bba82610b8f565b9050919050565b6000610bcc82610baf565b9050919050565b610bdc81610bc1565b8114610be757600080fd5b50565b600081519050610bf981610bd3565b92915050565b6000610c0a82610b8f565b9050919050565b6000610c1c82610bff565b9050919050565b610c2c81610c11565b8114610c3757600080fd5b50565b600081519050610c4981610c23565b92915050565b6000819050919050565b610c6281610c4f565b8114610c6d57600080fd5b50565b600081519050610c7f81610c59565b92915050565b60008060008060008060c08789031215610ca257610ca1610b8a565b5b6000610cb089828a01610bea565b9650506020610cc189828a01610c3a565b9550506040610cd289828a01610c70565b9450506060610ce389828a01610c70565b9350506080610cf489828a01610c70565b92505060a0610d0589828a01610c70565b9150509295509295509295565b600081519050919050565b7f4e487b7100000000000000000000000000000000000000000000000000000000600052604160045260246000fd5b7f4e487b7100000000000000000000000000000000000000000000000000000000600052602260045260246000fd5b60006002820490506001821680610d9357607f821691505b602082108103610da657610da5610d4c565b5b50919050565b60008190508160005260206000209050919050565b60006020601f8301049050919050565b600082821b905092915050565b600060088302610e0e7fffffffffffffffffffffffffffffffffffffffffffffffffffffffffffffffff82610dd1565b610e188683610dd1565b95508019841693508086168417925050509392505050565b6000819050919050565b6000610e55610e50610e4b84610c4f565b610e30565b610c4f565b9050919050565b6000819050919050565b610e6f83610e3a565b610e83610e7b82610e5c565b848454610dde565b825550505050565b600090565b610e98610e8b565b610ea3818484610e66565b505050565b5b81811015610ec757610ebc600082610e90565b600181019050610ea9565b5050565b601f821115610f0c57610edd81610dac565b610ee684610dc1565b81016020851015610ef5578190505b610f09610f0185610dc1565b830182610ea8565b50505b505050565b600082821c905092915050565b6000610f2f60001984600802610f11565b1980831691505092915050565b6000610f488383610f1e565b9150826002028217905092915050565b610f6182610d12565b67ffffffffffffffff811115610f7a57610f79610d1d565b5b610f848254610d7b565b610f8f828285610ecb565b600060209050601f831160018114610fc25760008415610fb0578287015190505b610fba8582610f3c565b865550611022565b601f198416610fd086610dac565b60005b82811015610ff857848901518255600182019150602085019450602081019050610fd3565b868310156110155784890151611011601f891682610f1e565b8355505b6001600288020188555050505b505050505050565b6000819050919050565b61103d8161102a565b82525050565b61104c81610c4f565b82525050565b61105b81610baf565b82525050565b600060a0820190506110766000830188611034565b6110836020830187611034565b6110906040830186611034565b61109d6060830185611043565b6110aa6080830184611052565b9695505050505050565b600065ffffffffffff82169050919050565b60006110e16110dc6110d7846110b4565b610e30565b610c4f565b9050919050565b6110f1816110c6565b82525050565b600060408201905061110c60008301856110e8565b61111960208301846110e8565b9392505050565b6000819050919050565b600061114561114061113b84611120565b610e30565b610c4f565b9050919050565b6111558161112a565b82525050565b6000602082019050611170600083018461114c565b92915050565b600063ffffffff82169050919050565b60006111a161119c61119784611176565b610e30565b610c4f565b9050919050565b6111b181611186565b82525050565b60006040820190506111cc60008301856111a8565b6111d960208301846111a8565b9392505050565b60006040820190506111f56000830185611043565b6112026020830184611043565b9392505050565b600060408201905061121e6000830185611052565b61122b6020830184611052565b9392505050565b600082825260208201905092915050565b60005b83811015611261578082015181840152602081019050611246565b60008484015250505050565b6000601f19601f8301169050919050565b600061128982610d12565b6112938185611232565b93506112a3818560208601611243565b6112ac8161126d565b840191505092915050565b600060208201905081810360008301526112d1818461127e565b905092915050565b600081519050919050565b6000819050602082019050919050565b6000611300825161102a565b80915050919050565b6000611314826112d9565b8261131e846112e4565b9050611329816112f4565b92506020821015611369576113647fffffffffffffffffffffffffffffffffffffffffffffffffffffffffffffffff83602003600802610dd1565b831692505b5050919050565b611379816110b4565b811461138457600080fd5b50565b60008151905061139681611370565b92915050565b6000602082840312156113b2576113b1610b8a565b5b60006113c084828501611387565b91505092915050565b6000819050919050565b600060ff82169050919050565b60006113fb6113f66113f1846113c9565b610e30565b6113d3565b9050919050565b61140b816113e0565b82525050565b60006040820190506114266000830185611402565b6114336020830184611043565b9392505050565b7f4e487b7100000000000000000000000000000000000000000000000000000000600052601160045260246000fd5b600061147482610c4f565b915061147f83610c4f565b92508282039050818111156114975761149661143a565b5b92915050565b6000819050919050565b60006114c26114bd6114b88461149d565b610e30565b6113d3565b9050919050565b6114d2816114a7565b82525050565b60006040820190506114ed60008301856114c9565b6114fa6020830184611043565b9392505050565b60805160a05160c05160e051610100516101205161014051610160516173d06115666000396000611d0501526000612a12015260006129d701526000614609015260006145e801526000613567015260006135bd015260006135e601526173d06000f3fe6080604052600436106102b25760003560e01c80637ecebe0011610175578063bc197c81116100dc578063deaaa7cc11610095578063ece40cc11161006f578063ece40cc114610c71578063f23a6e6114610c9a578063f8ce560a14610cd7578063fc0c546a14610d1457610325565b8063deaaa7cc14610be0578063e540d01d14610c0b578063eb9019d414610c3457610325565b8063bc197c8114610ab7578063c01f9e3714610af4578063c28bc2fa14610b31578063c59057e414610b4d578063d33219b414610b8a578063dd4e2ba514610bb557610325565b8063a7713a701161012e578063a7713a7014610981578063a890c910146109ac578063a8f8a668146109d5578063a9a9529414610a12578063ab58fb8e14610a4f578063b58131b014610a8c57610325565b80637ecebe001461084357806384b0196e146108805780638ff262e3146108b157806391ddadf4146108ee57806397c3d334146109195780639a802a6d1461094457610325565b806343859632116102195780635b8d0e0d116101d25780635b8d0e0d146106e95780635f398a141461072657806360c4247f1461076357806379051887146107a05780637b3c71d3146107c95780637d5e81e21461080657610325565b8063438596321461059d578063452115d6146105da5780634bf5d7e914610617578063544ffc9c1461064257806354fd4d501461068157806356781388146106ac57610325565b8063160cbed71161026b578063160cbed7146104605780632656227d1461049d5780632d63f693146104cd5780632fe3e2611461050a5780633932abb1146105355780633e4f49e61461056057610325565b806301ffc9a71461032a57806302a251a31461036757806306f3f9e61461039257806306fdde03146103bb578063143489d0146103e6578063150b7a021461042357610325565b36610325573073ffffffffffffffffffffffffffffffffffffffff166102d6610d3f565b73ffffffffffffffffffffffffffffffffffffffff1614610323576040517fe90a651e00000000000000000000000000000000000000000000000000000000815260040160405180910390fd5b005b600080fd5b34801561033657600080fd5b50610351600480360381019061034c9190614e52565b610d4e565b60405161035e9190614e9a565b60405180910390f35b34801561037357600080fd5b5061037c610d60565b6040516103899190614ece565b60405180910390f35b34801561039e57600080fd5b506103b960048036038101906103b49190614f15565b610d6f565b005b3480156103c757600080fd5b506103d0610d83565b6040516103dd9190614fd2565b60405180910390f35b3480156103f257600080fd5b5061040d60048036038101906104089190614f15565b610e15565b60405161041a9190615035565b60405180910390f35b34801561042f57600080fd5b5061044a600480360381019061044591906151b1565b610e55565b6040516104579190615243565b60405180910390f35b34801561046c57600080fd5b5061048760048036038101906104829190615500565b610ed5565b6040516104949190614ece565b60405180910390f35b6104b760048036038101906104b29190615500565b610fd1565b6040516104c49190614ece565b60405180910390f35b3480156104d957600080fd5b506104f460048036038101906104ef9190614f15565b6111b0565b6040516105019190614ece565b60405180910390f35b34801561051657600080fd5b5061051f6111ea565b60405161052c91906155ca565b60405180910390f35b34801561054157600080fd5b5061054a61120e565b6040516105579190614ece565b60405180910390f35b34801561056c57600080fd5b5061058760048036038101906105829190614f15565b61121d565b604051610594919061565c565b60405180910390f35b3480156105a957600080fd5b506105c460048036038101906105bf9190615677565b61122f565b6040516105d19190614e9a565b60405180910390f35b3480156105e657600080fd5b5061060160048036038101906105fc9190615500565b61129a565b60405161060e9190614ece565b60405180910390f35b34801561062357600080fd5b5061062c61131c565b6040516106399190614fd2565b60405180910390f35b34801561064e57600080fd5b5061066960048036038101906106649190614f15565b6113db565b604051610678939291906156b7565b60405180910390f35b34801561068d57600080fd5b50610696611413565b6040516106a39190614fd2565b60405180910390f35b3480156106b857600080fd5b506106d360048036038101906106ce9190615727565b611450565b6040516106e09190614ece565b60405180910390f35b3480156106f557600080fd5b50610710600480360381019061070b91906157c2565b611481565b60405161071d9190614ece565b60405180910390f35b34801561073257600080fd5b5061074d600480360381019061074891906158a9565b6115b2565b60405161075a9190614ece565b60405180910390f35b34801561076f57600080fd5b5061078a60048036038101906107859190614f15565b61161c565b6040516107979190614ece565b60405180910390f35b3480156107ac57600080fd5b506107c760048036038101906107c2919061598b565b611630565b005b3480156107d557600080fd5b506107f060048036038101906107eb91906159b8565b611644565b6040516107fd9190614ece565b60405180910390f35b34801561081257600080fd5b5061082d60048036038101906108289190615acd565b6116ac565b60405161083a9190614ece565b60405180910390f35b34801561084f57600080fd5b5061086a60048036038101906108659190615ba4565b6116c4565b6040516108779190614ece565b60405180910390f35b34801561088c57600080fd5b5061089561170d565b6040516108a89796959493929190615cca565b60405180910390f35b3480156108bd57600080fd5b506108d860048036038101906108d39190615d4e565b6117b7565b6040516108e59190614ece565b60405180910390f35b3480156108fa57600080fd5b5061090361188d565b6040516109109190615de0565b60405180910390f35b34801561092557600080fd5b5061092e611919565b60405161093b9190614ece565b60405180910390f35b34801561095057600080fd5b5061096b60048036038101906109669190615dfb565b611922565b6040516109789190614ece565b60405180910390f35b34801561098d57600080fd5b50610996611938565b6040516109a39190614ece565b60405180910390f35b3480156109b857600080fd5b506109d360048036038101906109ce9190615eba565b611965565b005b3480156109e157600080fd5b506109fc60048036038101906109f79190615500565b611979565b604051610a099190614ece565b60405180910390f35b348015610a1e57600080fd5b50610a396004803603810190610a349190614f15565b611991565b604051610a469190614e9a565b60405180910390f35b348015610a5b57600080fd5b50610a766004803603810190610a719190614f15565b6119a3565b604051610a839190614ece565b60405180910390f35b348015610a9857600080fd5b50610aa16119dd565b604051610aae9190614ece565b60405180910390f35b348015610ac357600080fd5b50610ade6004803603810190610ad99190615ee7565b6119ec565b604051610aeb9190615243565b60405180910390f35b348015610b0057600080fd5b50610b1b6004803603810190610b169190614f15565b611a6d565b604051610b289190614ece565b60405180910390f35b610b4b6004803603810190610b46919061600c565b611ade565b005b348015610b5957600080fd5b50610b746004803603810190610b6f9190615500565b611b6b565b604051610b819190614ece565b60405180910390f35b348015610b9657600080fd5b50610b9f611ba7565b604051610bac9190615035565b60405180910390f35b348015610bc157600080fd5b50610bca611bd1565b604051610bd79190614fd2565b60405180910390f35b348015610bec57600080fd5b50610bf5611c0e565b604051610c0291906155ca565b60405180910390f35b348015610c1757600080fd5b50610c326004803603810190610c2d91906160bc565b611c32565b005b348015610c4057600080fd5b50610c5b6004803603810190610c5691906160e9565b611c46565b604051610c689190614ece565b60405180910390f35b348015610c7d57600080fd5b50610c986004803603810190610c939190614f15565b611c5a565b005b348015610ca657600080fd5b50610cc16004803603810190610cbc9190616129565b611c6e565b604051610cce9190615243565b60405180910390f35b348015610ce357600080fd5b50610cfe6004803603810190610cf99190614f15565b611cef565b604051610d0b9190614ece565b60405180910390f35b348015610d2057600080fd5b50610d29611d01565b604051610d36919061621f565b60405180910390f35b6000610d49611d29565b905090565b6000610d5982611d53565b9050919050565b6000610d6a611ea6565b905090565b610d77611ec6565b610d8081611fbc565b50565b606060038054610d9290616269565b80601f0160208091040260200160405190810160405280929190818152602001828054610dbe90616269565b8015610e0b5780601f10610de057610100808354040283529160200191610e0b565b820191906000526020600020905b815481529060010190602001808311610dee57829003601f168201915b5050505050905090565b60006004600083815260200190815260200160002060000160009054906101000a900473ffffffffffffffffffffffffffffffffffffffff169050919050565b60003073ffffffffffffffffffffffffffffffffffffffff16610e76610d3f565b73ffffffffffffffffffffffffffffffffffffffff1614610ec3576040517fe90a651e00000000000000000000000000000000000000000000000000000000815260040160405180910390fd5b63150b7a0260e01b9050949350505050565b600080610ee486868686611979565b9050610ef981610ef46004612080565b6120a6565b506000610f098288888888612113565b905060008165ffffffffffff1614610f9257806004600084815260200190815260200160002060010160006101000a81548165ffffffffffff021916908365ffffffffffff1602179055507f9a2e42fd6722813d69113e7d0079d3d940171428df7373df9c7f7617cfda28928282604051610f859291906162cb565b60405180910390a1610fc4565b6040517f90884a4600000000000000000000000000000000000000000000000000000000815260040160405180910390fd5b8192505050949350505050565b600080610fe086868686611979565b905061100081610ff06005612080565b610ffa6004612080565b176120a6565b50600160046000838152602001908152602001600020600001601e6101000a81548160ff0219169083151502179055503073ffffffffffffffffffffffffffffffffffffffff1661104f610d3f565b73ffffffffffffffffffffffffffffffffffffffff16146111065760005b8651811015611104573073ffffffffffffffffffffffffffffffffffffffff168782815181106110a05761109f6162f4565b5b602002602001015173ffffffffffffffffffffffffffffffffffffffff16036110f9576110f88582815181106110d9576110d86162f4565b5b602002602001015180519060200120600561212d90919063ffffffff16565b5b80600101905061106d565b505b611113818787878761222c565b3073ffffffffffffffffffffffffffffffffffffffff16611132610d3f565b73ffffffffffffffffffffffffffffffffffffffff161415801561115d575061115b6005612240565b155b1561116d5761116c60056122b0565b5b7f712ae1383f79ac853f8d882153778e0260ef8f03b504e2866e0593e04d2b291f8160405161119c9190614ece565b60405180910390a180915050949350505050565b60006004600083815260200190815260200160002060000160149054906101000a900465ffffffffffff1665ffffffffffff169050919050565b7f3e83946653575f9a39005e1545185629e92736b7528ab20ca3816f315424a81181565b600061121861232b565b905090565b60006112288261234f565b9050919050565b60006009600084815260200190815260200160002060030160008373ffffffffffffffffffffffffffffffffffffffff1673ffffffffffffffffffffffffffffffffffffffff16815260200190815260200160002060009054906101000a900460ff16905092915050565b6000806112a986868686611979565b905060006112b561250e565b90506112c18282612516565b6113045781816040517f8fe5d8a90000000000000000000000000000000000000000000000000000000081526004016112fb929190616323565b60405180910390fd5b6113108787878761258e565b92505050949350505050565b6060611326611d01565b73ffffffffffffffffffffffffffffffffffffffff16634bf5d7e96040518163ffffffff1660e01b8152600401600060405180830381865afa92505050801561139257506040513d6000823e3d601f19601f8201168201806040525081019061138f91906163bc565b60015b6113d3576040518060400160405280601d81526020017f6d6f64653d626c6f636b6e756d6265722666726f6d3d64656661756c7400000081525090506113d8565b809150505b90565b600080600080600960008681526020019081526020016000209050806000015481600101548260020154935093509350509193909250565b60606040518060400160405280600181526020017f3100000000000000000000000000000000000000000000000000000000000000815250905090565b60008061145b61250e565b9050611478848285604051806020016040528060008152506125a6565b91505092915050565b60008061150f876115097f3e83946653575f9a39005e1545185629e92736b7528ab20ca3816f315424a8118c8c8c6114b88e6125c6565b8d8d6040516114c8929190616435565b60405180910390208c805190602001206040516020016114ee979695949392919061645d565b6040516020818303038152906040528051906020012061261d565b85612637565b90508061155357866040517f94ab6c0700000000000000000000000000000000000000000000000000000000815260040161154a9190615035565b60405180910390fd5b6115a489888a89898080601f016020809104026020016040519081016040528093929190818152602001838380828437600081840152601f19601f82011690508083019250505050505050886126e6565b915050979650505050505050565b6000806115bd61250e565b905061161087828888888080601f016020809104026020016040519081016040528093929190818152602001838380828437600081840152601f19601f82011690508083019250505050505050876126e6565b91505095945050505050565b6000611629600a836127f4565b9050919050565b611638611ec6565b6116418161285f565b50565b60008061164f61250e565b90506116a186828787878080601f016020809104026020016040519081016040528093929190818152602001838380828437600081840152601f19601f820116905080830192505050505050506125a6565b915050949350505050565b60006116ba858585856128d4565b9050949350505050565b6000600260008373ffffffffffffffffffffffffffffffffffffffff1673ffffffffffffffffffffffffffffffffffffffff168152602001908152602001600020549050919050565b6000606080600080600060606117216129ce565b611729612a09565b46306000801b600067ffffffffffffffff81111561174a57611749615086565b5b6040519080825280602002602001820160405280156117785781602001602082028036833780820191505090505b507f0f00000000000000000000000000000000000000000000000000000000000000959493929190965096509650965096509650965090919293949596565b6000806118238461181d7ff2aad550cf55f045cb27e9c559f9889fdfb6e6cdaa032301d6ea397784ae51d78989896117ee8b6125c6565b6040516020016118029594939291906164cc565b6040516020818303038152906040528051906020012061261d565b85612637565b90508061186757836040517f94ab6c0700000000000000000000000000000000000000000000000000000000815260040161185e9190615035565b60405180910390fd5b611882868587604051806020016040528060008152506125a6565b915050949350505050565b6000611897611d01565b73ffffffffffffffffffffffffffffffffffffffff166391ddadf46040518163ffffffff1660e01b8152600401602060405180830381865afa9250505080156118fe57506040513d601f19601f820116820180604052508101906118fb9190616534565b60015b6119115761190a612a44565b9050611916565b809150505b90565b60006064905090565b600061192f848484612a54565b90509392505050565b6000611944600a612ae2565b79ffffffffffffffffffffffffffffffffffffffffffffffffffff16905090565b61196d611ec6565b61197681612b4a565b50565b600061198785858585611b6b565b9050949350505050565b600061199c82612be9565b9050919050565b60006004600083815260200190815260200160002060010160009054906101000a900465ffffffffffff1665ffffffffffff169050919050565b60006119e7612bf4565b905090565b60003073ffffffffffffffffffffffffffffffffffffffff16611a0d610d3f565b73ffffffffffffffffffffffffffffffffffffffff1614611a5a576040517fe90a651e00000000000000000000000000000000000000000000000000000000815260040160405180910390fd5b63bc197c8160e01b905095945050505050565b600060046000838152602001908152602001600020600001601a9054906101000a900463ffffffff1663ffffffff166004600084815260200190815260200160002060000160149054906101000a900465ffffffffffff16611acf9190616590565b65ffffffffffff169050919050565b611ae6611ec6565b6000808573ffffffffffffffffffffffffffffffffffffffff16858585604051611b11929190616435565b60006040518083038185875af1925050503d8060008114611b4e576040519150601f19603f3d011682016040523d82523d6000602084013e611b53565b606091505b5091509150611b628282612bfe565b50505050505050565b600084848484604051602001611b84949392919061679f565b6040516020818303038152906040528051906020012060001c9050949350505050565b6000600b60009054906101000a900473ffffffffffffffffffffffffffffffffffffffff16905090565b60606040518060400160405280602081526020017f737570706f72743d627261766f2671756f72756d3d666f722c6162737461696e815250905090565b7ff2aad550cf55f045cb27e9c559f9889fdfb6e6cdaa032301d6ea397784ae51d781565b611c3a611ec6565b611c4381612c22565b50565b6000611c528383612cdd565b905092915050565b611c62611ec6565b611c6b81612cf9565b50565b60003073ffffffffffffffffffffffffffffffffffffffff16611c8f610d3f565b73ffffffffffffffffffffffffffffffffffffffff1614611cdc576040517fe90a651e00000000000000000000000000000000000000000000000000000000815260040160405180910390fd5b63f23a6e6160e01b905095945050505050565b6000611cfa82612d3e565b9050919050565b60007f0000000000000000000000000000000000000000000000000000000000000000905090565b6000600b60009054906101000a900473ffffffffffffffffffffffffffffffffffffffff16905090565b60007fcdbdfcee000000000000000000000000000000000000000000000000000000007bffffffffffffffffffffffffffffffffffffffffffffffffffffffff1916827bffffffffffffffffffffffffffffffffffffffffffffffffffffffff19161480611e27575063a8f8a66860e01b7fcdbdfcee00000000000000000000000000000000000000000000000000000000187bffffffffffffffffffffffffffffffffffffffffffffffffffffffff1916827bffffffffffffffffffffffffffffffffffffffffffffffffffffffff1916145b80611e8f57507f4e2312e0000000000000000000000000000000000000000000000000000000007bffffffffffffffffffffffffffffffffffffffffffffffffffffffff1916827bffffffffffffffffffffffffffffffffffffffffffffffffffffffff1916145b80611e9f5750611e9e82612de1565b5b9050919050565b6000600860069054906101000a900463ffffffff1663ffffffff16905090565b611ece61250e565b73ffffffffffffffffffffffffffffffffffffffff16611eec610d3f565b73ffffffffffffffffffffffffffffffffffffffff1614611f4b57611f0f61250e565b6040517f47096e47000000000000000000000000000000000000000000000000000000008152600401611f429190615035565b60405180910390fd5b3073ffffffffffffffffffffffffffffffffffffffff16611f6a610d3f565b73ffffffffffffffffffffffffffffffffffffffff1614611fba576000611f8f612e4b565b604051611f9d929190616435565b604051809103902090505b80611fb36005612e58565b03611fa857505b565b6000611fc6611919565b90508082111561200f5781816040517f243e54450000000000000000000000000000000000000000000000000000000081526004016120069291906167f9565b60405180910390fd5b6000612019611938565b905061204061202661188d565b61202f85612f91565b600a612fff9092919063ffffffff16565b50507f0553476bf02ef2726e8ce5ced78d63e26e602e4a2257b1f559418e24b463399781846040516120739291906167f9565b60405180910390a1505050565b6000816007811115612095576120946155e5565b5b60ff166001901b60001b9050919050565b6000806120b28461121d565b90506000801b836120c283612080565b1603612109578381846040517f31b75e4d00000000000000000000000000000000000000000000000000000000815260040161210093929190616822565b60405180910390fd5b8091505092915050565b6000612122868686868661301c565b905095945050505050565b60008260000160109054906101000a90046fffffffffffffffffffffffffffffffff1690508260000160009054906101000a90046fffffffffffffffffffffffffffffffff166fffffffffffffffffffffffffffffffff16600182016fffffffffffffffffffffffffffffffff16036121ab576121aa6041613234565b5b81836001016000836fffffffffffffffffffffffffffffffff166fffffffffffffffffffffffffffffffff16815260200190815260200160002081905550600181018360000160106101000a8154816fffffffffffffffffffffffffffffffff02191690836fffffffffffffffffffffffffffffffff160217905550505050565b6122398585858585613246565b5050505050565b60008160000160009054906101000a90046fffffffffffffffffffffffffffffffff166fffffffffffffffffffffffffffffffff168260000160109054906101000a90046fffffffffffffffffffffffffffffffff166fffffffffffffffffffffffffffffffff16149050919050565b60008160000160006101000a8154816fffffffffffffffffffffffffffffffff02191690836fffffffffffffffffffffffffffffffff16021790555060008160000160106101000a8154816fffffffffffffffffffffffffffffffff02191690836fffffffffffffffffffffffffffffffff16021790555050565b6000600860009054906101000a900465ffffffffffff1665ffffffffffff16905090565b60008061235b83613303565b905060056007811115612371576123706155e5565b5b816007811115612384576123836155e5565b5b146123925780915050612509565b6000600c6000858152602001908152602001600020549050600b60009054906101000a900473ffffffffffffffffffffffffffffffffffffffff1673ffffffffffffffffffffffffffffffffffffffff1663584b153e826040518263ffffffff1660e01b815260040161240591906155ca565b602060405180830381865afa158015612422573d6000803e3d6000fd5b505050506040513d601f19601f820116820180604052508101906124469190616885565b1561245657600592505050612509565b600b60009054906101000a900473ffffffffffffffffffffffffffffffffffffffff1673ffffffffffffffffffffffffffffffffffffffff16632ab0f529826040518263ffffffff1660e01b81526004016124b191906155ca565b602060405180830381865afa1580156124ce573d6000803e3d6000fd5b505050506040513d601f19601f820116820180604052508101906124f29190616885565b1561250257600792505050612509565b6002925050505b919050565b600033905090565b600080600781111561252b5761252a6155e5565b5b6125348461121d565b6007811115612546576125456155e5565b5b148015612586575061255783610e15565b73ffffffffffffffffffffffffffffffffffffffff168273ffffffffffffffffffffffffffffffffffffffff16145b905092915050565b600061259c85858585613467565b9050949350505050565b60006125bc858585856125b761354c565b6126e6565b9050949350505050565b6000600260008373ffffffffffffffffffffffffffffffffffffffff1673ffffffffffffffffffffffffffffffffffffffff1681526020019081526020016000206000815480929190600101919050559050919050565b600061263061262a613563565b8361361a565b9050919050565b6000808473ffffffffffffffffffffffffffffffffffffffff163b036126d157600080612664858561365b565b50915091506000600381111561267d5761267c6155e5565b5b8160038111156126905761268f6155e5565b5b1480156126c857508573ffffffffffffffffffffffffffffffffffffffff168273ffffffffffffffffffffffffffffffffffffffff16145b925050506126df565b6126dc8484846136b7565b90505b9392505050565b60006126fb866126f66001612080565b6120a6565b5060006127118661270b896111b0565b85612a54565b9050600061272288888885886137db565b90506000845103612786578673ffffffffffffffffffffffffffffffffffffffff167fb8e138887d0aa13bab447e82de9d5c1777041ecd21ca36ba824ff1e6c07ddda48988848960405161277994939291906168b2565b60405180910390a26127dd565b8673ffffffffffffffffffffffffffffffffffffffff167fe2babfbac5889a709b63bb7f598b324e08bc5a4fb9ec647fb3cbc9ec07eb871289888489896040516127d4959493929190616948565b60405180910390a25b6127e6886139de565b809250505095945050505050565b6000806000612802856139e1565b9250925050838265ffffffffffff1611156128375761283261282385613a7b565b86613ad590919063ffffffff16565b612839565b805b79ffffffffffffffffffffffffffffffffffffffffffffffffffff169250505092915050565b7fc565b045403dc03c2eea82b81a0465edad9e2e7fc4d97e11421c209da93d7a93600860009054906101000a900465ffffffffffff16826040516128a49291906169a9565b60405180910390a180600860006101000a81548165ffffffffffff021916908365ffffffffffff16021790555050565b6000806128df61250e565b90506128eb8184613bcf565b61292c57806040517fd9b395570000000000000000000000000000000000000000000000000000000081526004016129239190615035565b60405180910390fd5b60006129366119dd565b905060008111156129b557600061296883600161295161188d565b61295b91906169d2565b65ffffffffffff16611c46565b9050818110156129b3578281836040517fc242ee160000000000000000000000000000000000000000000000000000000081526004016129aa93929190616a0c565b60405180910390fd5b505b6129c28787878786613cb8565b92505050949350505050565b6060612a0460007f0000000000000000000000000000000000000000000000000000000000000000613f4d90919063ffffffff16565b905090565b6060612a3f60017f0000000000000000000000000000000000000000000000000000000000000000613f4d90919063ffffffff16565b905090565b6000612a4f43613a7b565b905090565b6000612a5e611d01565b73ffffffffffffffffffffffffffffffffffffffff16633a46b1a885856040518363ffffffff1660e01b8152600401612a98929190616a43565b602060405180830381865afa158015612ab5573d6000803e3d6000fd5b505050506040513d601f19601f82011682018060405250810190612ad99190616a81565b90509392505050565b6000808260000180549050905060008114612b3f57612b1083600001600183612b0b9190616aae565b613ffd565b60000160069054906101000a900479ffffffffffffffffffffffffffffffffffffffffffffffffffff16612b42565b60005b915050919050565b7f08f74ea46ef7894f65eabfb5e6e695de773a000b47c529ab559178069b226401600b60009054906101000a900473ffffffffffffffffffffffffffffffffffffffff1682604051612b9d929190616ae2565b60405180910390a180600b60006101000a81548173ffffffffffffffffffffffffffffffffffffffff021916908373ffffffffffffffffffffffffffffffffffffffff16021790555050565b600060019050919050565b6000600754905090565b606082612c1357612c0e82614012565b612c1b565b819050612c1c565b5b92915050565b60008163ffffffff1603612c6e5760006040517ff1cfbf05000000000000000000000000000000000000000000000000000000008152600401612c659190616b46565b60405180910390fd5b7f7e3f7f0708a84de9203036abaa450dccc85ad5ff52f78c170f3edb55cf5e8828600860069054906101000a900463ffffffff1682604051612cb1929190616b92565b60405180910390a180600860066101000a81548163ffffffff021916908363ffffffff16021790555050565b6000612cf18383612cec61354c565b612a54565b905092915050565b7fccb45da8d5717e6c4544694297c4ba5cf151d455c9bb0ed4fc7a38411bc0546160075482604051612d2c9291906167f9565b60405180910390a18060078190555050565b6000612dda612d4b611d01565b73ffffffffffffffffffffffffffffffffffffffff16638e539e8c846040518263ffffffff1660e01b8152600401612d839190614ece565b602060405180830381865afa158015612da0573d6000803e3d6000fd5b505050506040513d601f19601f82011682018060405250810190612dc49190616a81565b612dcd8461161c565b612dd5611919565b614057565b9050919050565b60007f01ffc9a7000000000000000000000000000000000000000000000000000000007bffffffffffffffffffffffffffffffffffffffffffffffffffffffff1916827bffffffffffffffffffffffffffffffffffffffffffffffffffffffff1916149050919050565b3660008036915091509091565b6000808260000160009054906101000a90046fffffffffffffffffffffffffffffffff1690508260000160109054906101000a90046fffffffffffffffffffffffffffffffff166fffffffffffffffffffffffffffffffff16816fffffffffffffffffffffffffffffffff1603612ed457612ed36031613234565b5b826001016000826fffffffffffffffffffffffffffffffff166fffffffffffffffffffffffffffffffff168152602001908152602001600020549150826001016000826fffffffffffffffffffffffffffffffff166fffffffffffffffffffffffffffffffff16815260200190815260200160002060009055600181018360000160006101000a8154816fffffffffffffffffffffffffffffffff02191690836fffffffffffffffffffffffffffffffff16021790555050919050565b600079ffffffffffffffffffffffffffffffffffffffffffffffffffff8016821115612ff75760d0826040517f6dfcc650000000000000000000000000000000000000000000000000000000008152600401612fee929190616bf6565b60405180910390fd5b819050919050565b60008061301085600001858561413f565b91509150935093915050565b600080600b60009054906101000a900473ffffffffffffffffffffffffffffffffffffffff1673ffffffffffffffffffffffffffffffffffffffff1663f27a0c926040518163ffffffff1660e01b8152600401602060405180830381865afa15801561308c573d6000803e3d6000fd5b505050506040513d601f19601f820116820180604052508101906130b09190616a81565b905060006130bd8461444c565b9050600b60009054906101000a900473ffffffffffffffffffffffffffffffffffffffff1673ffffffffffffffffffffffffffffffffffffffff1663b1c5f4278888886000866040518663ffffffff1660e01b8152600401613123959493929190616c5d565b602060405180830381865afa158015613140573d6000803e3d6000fd5b505050506040513d601f19601f820116820180604052508101906131649190616cda565b600c60008a815260200190815260200160002081905550600b60009054906101000a900473ffffffffffffffffffffffffffffffffffffffff1673ffffffffffffffffffffffffffffffffffffffff16638f2a0bb0888888600086886040518763ffffffff1660e01b81526004016131e196959493929190616d07565b600060405180830381600087803b1580156131fb57600080fd5b505af115801561320f573d6000803e3d6000fd5b5050505061322782426132229190616d7d565b613a7b565b9250505095945050505050565b634e487b71600052806020526024601cfd5b600b60009054906101000a900473ffffffffffffffffffffffffffffffffffffffff1673ffffffffffffffffffffffffffffffffffffffff1663e38335e53486868660006132938861444c565b6040518763ffffffff1660e01b81526004016132b3959493929190616c5d565b6000604051808303818588803b1580156132cc57600080fd5b505af11580156132e0573d6000803e3d6000fd5b5050505050600c6000868152602001908152602001600020600090555050505050565b600080600460008481526020019081526020016000209050600081600001601e9054906101000a900460ff169050600082600001601f9054906101000a900460ff16905081156133595760079350505050613462565b801561336b5760029350505050613462565b6000613376866111b0565b9050600081036133bd57856040517f6ad060750000000000000000000000000000000000000000000000000000000081526004016133b49190614ece565b60405180910390fd5b60006133c761188d565b65ffffffffffff1690508082106133e657600095505050505050613462565b60006133f188611a6d565b90508181106134095760019650505050505050613462565b6134128861446a565b15806134245750613422886144b1565b155b156134385760039650505050505050613462565b6000613443896119a3565b036134575760049650505050505050613462565b600596505050505050505b919050565b600080613476868686866144dc565b90506000600c60008381526020019081526020016000205490506000801b811461353f57600b60009054906101000a900473ffffffffffffffffffffffffffffffffffffffff1673ffffffffffffffffffffffffffffffffffffffff1663c4d252f5826040518263ffffffff1660e01b81526004016134f591906155ca565b600060405180830381600087803b15801561350f57600080fd5b505af1158015613523573d6000803e3d6000fd5b50505050600c6000838152602001908152602001600020600090555b8192505050949350505050565b606060405180602001604052806000815250905090565b60007f000000000000000000000000000000000000000000000000000000000000000073ffffffffffffffffffffffffffffffffffffffff163073ffffffffffffffffffffffffffffffffffffffff161480156135df57507f000000000000000000000000000000000000000000000000000000000000000046145b1561360c577f00000000000000000000000000000000000000000000000000000000000000009050613617565b6136146145c3565b90505b90565b60006040517f190100000000000000000000000000000000000000000000000000000000000081528360028201528260228201526042812091505092915050565b600080600060418451036136a05760008060006020870151925060408701519150606087015160001a905061369288828585614659565b9550955095505050506136b0565b60006002855160001b9250925092505b9250925092565b60008060008573ffffffffffffffffffffffffffffffffffffffff1685856040516024016136e6929190616db1565b604051602081830303815290604052631626ba7e60e01b6020820180517bffffffffffffffffffffffffffffffffffffffffffffffffffffffff83818316178352505050506040516137389190616e12565b600060405180830381855afa9150503d8060008114613773576040519150601f19603f3d011682016040523d82523d6000602084013e613778565b606091505b509150915081801561378c57506020815110155b80156137d05750631626ba7e60e01b7bffffffffffffffffffffffffffffffffffffffffffffffffffffffff1916818060200190518101906137ce9190616cda565b145b925050509392505050565b6000806009600088815260200190815260200160002090508060030160008773ffffffffffffffffffffffffffffffffffffffff1673ffffffffffffffffffffffffffffffffffffffff16815260200190815260200160002060009054906101000a900460ff161561388457856040517f71c6af4900000000000000000000000000000000000000000000000000000000815260040161387b9190615035565b60405180910390fd5b60018160030160008873ffffffffffffffffffffffffffffffffffffffff1673ffffffffffffffffffffffffffffffffffffffff16815260200190815260200160002060006101000a81548160ff021916908315150217905550600060028111156138f2576138f16155e5565b5b60ff168560ff160361391e57838160000160008282546139129190616d7d565b925050819055506139d1565b60016002811115613932576139316155e5565b5b60ff168560ff160361395e57838160010160008282546139529190616d7d565b925050819055506139d0565b600280811115613971576139706155e5565b5b60ff168560ff160361399d57838160020160008282546139919190616d7d565b925050819055506139cf565b6040517f06b337c200000000000000000000000000000000000000000000000000000000815260040160405180910390fd5b5b5b8391505095945050505050565b50565b6000806000808460000180549050905060008103613a0a57600080600093509350935050613a74565b6000613a2586600001600184613a209190616aae565b613ffd565b905060018160000160009054906101000a900465ffffffffffff168260000160069054906101000a900479ffffffffffffffffffffffffffffffffffffffffffffffffffff1694509450945050505b9193909250565b600065ffffffffffff8016821115613acd576030826040517f6dfcc650000000000000000000000000000000000000000000000000000000008152600401613ac4929190616e64565b60405180910390fd5b819050919050565b600080836000018054905090506000808290506005831115613b5d576000613afc8461474d565b84613b079190616aae565b9050613b168760000182613ffd565b60000160009054906101000a900465ffffffffffff1665ffffffffffff168665ffffffffffff161015613b4b57809150613b5b565b600181613b589190616d7d565b92505b505b6000613b6e876000018785856148ea565b905060008114613bc057613b9187600001600183613b8c9190616aae565b613ffd565b60000160069054906101000a900479ffffffffffffffffffffffffffffffffffffffffffffffffffff16613bc3565b60005b94505050505092915050565b600080825190506034811015613be9576001915050613cb2565b6000613bf88460348403614963565b90507f2370726f706f7365723d0000000000000000000000000000000000000000000075ffffffffffffffffffffffffffffffffffffffffffff19168175ffffffffffffffffffffffffffffffffffffffffffff191614613c5e57600192505050613cb2565b600080613c6f86602a860386614974565b91509150811580613cab57508673ffffffffffffffffffffffffffffffffffffffff168173ffffffffffffffffffffffffffffffffffffffff16145b9450505050505b92915050565b6000613ccd8686868680519060200120611979565b905084518651141580613ce257508351865114155b80613cee575060008651145b15613d37578551845186516040517f447b05d0000000000000000000000000000000000000000000000000000000008152600401613d2e939291906156b7565b60405180910390fd5b60006004600083815260200190815260200160002060000160149054906101000a900465ffffffffffff1665ffffffffffff1614613dbb5780613d798261121d565b6000801b6040517f31b75e4d000000000000000000000000000000000000000000000000000000008152600401613db293929190616822565b60405180910390fd5b6000613dc561120e565b613dcd61188d565b65ffffffffffff16613ddf9190616d7d565b90506000613deb610d60565b90506000600460008581526020019081526020016000209050848160000160006101000a81548173ffffffffffffffffffffffffffffffffffffffff021916908373ffffffffffffffffffffffffffffffffffffffff160217905550613e5083613a7b565b8160000160146101000a81548165ffffffffffff021916908365ffffffffffff160217905550613e7f82614a8b565b81600001601a6101000a81548163ffffffff021916908363ffffffff1602179055507f7d84a6263ae0d98d3329bd7b46bb4e8d6f98cd35a7adb45c274c8b7fd5ebd5e084868b8b8d5167ffffffffffffffff811115613ee157613ee0615086565b5b604051908082528060200260200182016040528015613f1457816020015b6060815260200190600190039081613eff5790505b508c89898b613f239190616d7d565b8e604051613f3999989796959493929190616f99565b60405180910390a150505095945050505050565b606060ff60001b8314613f6a57613f6383614ae3565b9050613ff7565b818054613f7690616269565b80601f0160208091040260200160405190810160405280929190818152602001828054613fa290616269565b8015613fef5780601f10613fc457610100808354040283529160200191613fef565b820191906000526020600020905b815481529060010190602001808311613fd257829003601f168201915b505050505090505b92915050565b60008260005281602060002001905092915050565b6000815111156140255780518082602001fd5b6040517fd6bda27500000000000000000000000000000000000000000000000000000000815260040160405180910390fd5b60008060006140668686614b57565b915091506000820361408c5783818161408257614081617049565b5b0492505050614138565b8184116140ac576140ab6140a66000861460126011614b76565b613234565b5b600084868809905081811183039250808203915060008560000386169050808604955080830492506001818260000304019050808402831792506000600287600302189050808702600203810290508087026002038102905080870260020381029050808702600203810290508087026002038102905080870260020381029050808402955050505050505b9392505050565b600080600085805490509050600081111561435c57600061416c876001846141679190616aae565b613ffd565b905060008160000160009054906101000a900465ffffffffffff16905060008260000160069054906101000a900479ffffffffffffffffffffffffffffffffffffffffffffffffffff1690508765ffffffffffff168265ffffffffffff161115614202576040517f2520601d00000000000000000000000000000000000000000000000000000000815260040160405180910390fd5b8765ffffffffffff168265ffffffffffff160361426d57868360000160066101000a81548179ffffffffffffffffffffffffffffffffffffffffffffffffffff021916908379ffffffffffffffffffffffffffffffffffffffffffffffffffff16021790555061434d565b8860405180604001604052808a65ffffffffffff1681526020018979ffffffffffffffffffffffffffffffffffffffffffffffffffff168152509080600181540180825580915050600190039060005260206000200160009091909190915060008201518160000160006101000a81548165ffffffffffff021916908365ffffffffffff16021790555060208201518160000160066101000a81548179ffffffffffffffffffffffffffffffffffffffffffffffffffff021916908379ffffffffffffffffffffffffffffffffffffffffffffffffffff16021790555050505b80879550955050505050614444565b8560405180604001604052808765ffffffffffff1681526020018679ffffffffffffffffffffffffffffffffffffffffffffffffffff168152509080600181540180825580915050600190039060005260206000200160009091909190915060008201518160000160006101000a81548165ffffffffffff021916908365ffffffffffff16021790555060208201518160000160066101000a81548179ffffffffffffffffffffffffffffffffffffffffffffffffffff021916908379ffffffffffffffffffffffffffffffffffffffffffffffffffff160217905550505060008492509250505b935093915050565b6000813060601b6bffffffffffffffffffffffff1916189050919050565b600080600960008481526020019081526020016000209050806002015481600101546144969190616d7d565b6144a76144a2856111b0565b611cef565b1115915050919050565b6000806009600084815260200190815260200160002090508060000154816001015411915050919050565b6000806144eb86868686611979565b9050614550816144fb6007612080565b6145056006612080565b61450f6002612080565b600180600780811115614525576145246155e5565b5b61452f9190617078565b600261453b91906171e0565b6145459190616aae565b60001b1818186120a6565b50600160046000838152602001908152602001600020600001601f6101000a81548160ff0219169083151502179055507f789cf55be980739dad1d0699b93b58e806b51c9d96619bfa8fe0a28abaa7b30c816040516145af9190614ece565b60405180910390a180915050949350505050565b60007f8b73c3c69bb8fe3d512ecc4cf759cc79239f7b179b0ffacaa9a75d522b39400f7f00000000000000000000000000000000000000000000000000000000000000007f0000000000000000000000000000000000000000000000000000000000000000463060405160200161463e95949392919061722b565b60405160208183030381529060405280519060200120905090565b60008060007f7fffffffffffffffffffffffffffffff5d576e7357a4501ddfe92f46681b20a08460001c1115614699576000600385925092509250614743565b6000600188888888604051600081526020016040526040516146be949392919061727e565b6020604051602081039080840390855afa1580156146e0573d6000803e3d6000fd5b505050602060405103519050600073ffffffffffffffffffffffffffffffffffffffff168173ffffffffffffffffffffffffffffffffffffffff160361473457600060016000801b93509350935050614743565b8060008060001b935093509350505b9450945094915050565b60006001821161475f578190506148e5565b6000829050600060019050700100000000000000000000000000000000821061479157608082901c9150604081901b90505b6801000000000000000082106147b057604082901c9150602081901b90505b64010000000082106147cb57602082901c9150601081901b90505b6201000082106147e457601082901c9150600881901b90505b61010082106147fc57600882901c9150600481901b90505b6010821061481357600482901c9150600281901b90505b6004821061482357600181901b90505b600181600302901c9050600181858161483f5761483e617049565b5b048201901c9050600181858161485857614857617049565b5b048201901c9050600181858161487157614870617049565b5b048201901c9050600181858161488a57614889617049565b5b048201901c905060018185816148a3576148a2617049565b5b048201901c905060018185816148bc576148bb617049565b5b048201901c90506148de8185816148d6576148d5617049565b5b048211614b90565b8103925050505b919050565b60005b818310156149585760006149018484614b9c565b90508465ffffffffffff166149168783613ffd565b60000160009054906101000a900465ffffffffffff1665ffffffffffff16111561494257809250614952565b60018161494f9190616d7d565b93505b506148ed565b819050949350505050565b600081602001830151905092915050565b600080845183118061498557508284115b156149965760008091509150614a83565b60006001856149a59190616d7d565b84118015614a1d57507f30780000000000000000000000000000000000000000000000000000000000007dffffffffffffffffffffffffffffffffffffffffffffffffffffffffffff19166149fa8787614bc2565b7dffffffffffffffffffffffffffffffffffffffffffffffffffffffffffff1916145b905060006002614a2e831515614b90565b614a3891906172c3565b6028614a449190616d7d565b9050808686614a539190616aae565b03614a7957600080614a66898989614bd3565b9150915081819550955050505050614a83565b6000809350935050505b935093915050565b600063ffffffff8016821115614adb576020826040517f6dfcc650000000000000000000000000000000000000000000000000000000008152600401614ad2929190617340565b60405180910390fd5b819050919050565b60606000614af083614d05565b90506000602067ffffffffffffffff811115614b0f57614b0e615086565b5b6040519080825280601f01601f191660200182016040528015614b415781602001600182028036833780820191505090505b5090508181528360208201528092505050919050565b6000806000198385098385029150818110828203039250509250929050565b6000614b8184614b90565b82841802821890509392505050565b60008115159050919050565b60006002828418614bad9190617369565b828416614bba9190616d7d565b905092915050565b600081602001830151905092915050565b60008060008590506000600186614bea9190616d7d565b85118015614c6257507f30780000000000000000000000000000000000000000000000000000000000007dffffffffffffffffffffffffffffffffffffffffffffffffffffffffffff1916614c3f8388614bc2565b7dffffffffffffffffffffffffffffffffffffffffffffffffffffffffffff1916145b905060006002614c73831515614b90565b614c7d91906172c3565b90506000808289614c8e9190616d7d565b90505b87811015614cf0576000614cad614ca88784614bc2565b614d55565b9050600f8160ff161115614ccd5760008097509750505050505050614cfd565b601083614cda91906172c3565b92508060ff168301925050806001019050614c91565b5060018195509550505050505b935093915050565b60008060ff8360001c169050601f811115614d4c576040517fb3512b0c00000000000000000000000000000000000000000000000000000000815260040160405180910390fd5b80915050919050565b6000808260f81c9050602f8160ff16118015614d745750603a8160ff16105b15614d8457603081039050614ddc565b60608160ff16118015614d9a575060678160ff16105b15614daa57605781039050614ddb565b60408160ff16118015614dc0575060478160ff16105b15614dd057603781039050614dda565b60ff915050614de1565b5b5b809150505b919050565b6000604051905090565b600080fd5b600080fd5b60007fffffffff0000000000000000000000000000000000000000000000000000000082169050919050565b614e2f81614dfa565b8114614e3a57600080fd5b50565b600081359050614e4c81614e26565b92915050565b600060208284031215614e6857614e67614df0565b5b6000614e7684828501614e3d565b91505092915050565b60008115159050919050565b614e9481614e7f565b82525050565b6000602082019050614eaf6000830184614e8b565b92915050565b6000819050919050565b614ec881614eb5565b82525050565b6000602082019050614ee36000830184614ebf565b92915050565b614ef281614eb5565b8114614efd57600080fd5b50565b600081359050614f0f81614ee9565b92915050565b600060208284031215614f2b57614f2a614df0565b5b6000614f3984828501614f00565b91505092915050565b600081519050919050565b600082825260208201905092915050565b60005b83811015614f7c578082015181840152602081019050614f61565b60008484015250505050565b6000601f19601f8301169050919050565b6000614fa482614f42565b614fae8185614f4d565b9350614fbe818560208601614f5e565b614fc781614f88565b840191505092915050565b60006020820190508181036000830152614fec8184614f99565b905092915050565b600073ffffffffffffffffffffffffffffffffffffffff82169050919050565b600061501f82614ff4565b9050919050565b61502f81615014565b82525050565b600060208201905061504a6000830184615026565b92915050565b61505981615014565b811461506457600080fd5b50565b60008135905061507681615050565b92915050565b600080fd5b600080fd5b7f4e487b7100000000000000000000000000000000000000000000000000000000600052604160045260246000fd5b6150be82614f88565b810181811067ffffffffffffffff821117156150dd576150dc615086565b5b80604052505050565b60006150f0614de6565b90506150fc82826150b5565b919050565b600067ffffffffffffffff82111561511c5761511b615086565b5b61512582614f88565b9050602081019050919050565b82818337600083830152505050565b600061515461514f84615101565b6150e6565b9050828152602081018484840111156151705761516f615081565b5b61517b848285615132565b509392505050565b600082601f8301126151985761519761507c565b5b81356151a8848260208601615141565b91505092915050565b600080600080608085870312156151cb576151ca614df0565b5b60006151d987828801615067565b94505060206151ea87828801615067565b93505060406151fb87828801614f00565b925050606085013567ffffffffffffffff81111561521c5761521b614df5565b5b61522887828801615183565b91505092959194509250565b61523d81614dfa565b82525050565b60006020820190506152586000830184615234565b92915050565b600067ffffffffffffffff82111561527957615278615086565b5b602082029050602081019050919050565b600080fd5b60006152a261529d8461525e565b6150e6565b905080838252602082019050602084028301858111156152c5576152c461528a565b5b835b818110156152ee57806152da8882615067565b8452602084019350506020810190506152c7565b5050509392505050565b600082601f83011261530d5761530c61507c565b5b813561531d84826020860161528f565b91505092915050565b600067ffffffffffffffff82111561534157615340615086565b5b602082029050602081019050919050565b600061536561536084615326565b6150e6565b905080838252602082019050602084028301858111156153885761538761528a565b5b835b818110156153b1578061539d8882614f00565b84526020840193505060208101905061538a565b5050509392505050565b600082601f8301126153d0576153cf61507c565b5b81356153e0848260208601615352565b91505092915050565b600067ffffffffffffffff82111561540457615403615086565b5b602082029050602081019050919050565b6000615428615423846153e9565b6150e6565b9050808382526020820190506020840283018581111561544b5761544a61528a565b5b835b8181101561549257803567ffffffffffffffff8111156154705761546f61507c565b5b80860161547d8982615183565b8552602085019450505060208101905061544d565b5050509392505050565b600082601f8301126154b1576154b061507c565b5b81356154c1848260208601615415565b91505092915050565b6000819050919050565b6154dd816154ca565b81146154e857600080fd5b50565b6000813590506154fa816154d4565b92915050565b6000806000806080858703121561551a57615519614df0565b5b600085013567ffffffffffffffff81111561553857615537614df5565b5b615544878288016152f8565b945050602085013567ffffffffffffffff81111561556557615564614df5565b5b615571878288016153bb565b935050604085013567ffffffffffffffff81111561559257615591614df5565b5b61559e8782880161549c565b92505060606155af878288016154eb565b91505092959194509250565b6155c4816154ca565b82525050565b60006020820190506155df60008301846155bb565b92915050565b7f4e487b7100000000000000000000000000000000000000000000000000000000600052602160045260246000fd5b60088110615625576156246155e5565b5b50565b600081905061563682615614565b919050565b600061564682615628565b9050919050565b6156568161563b565b82525050565b6000602082019050615671600083018461564d565b92915050565b6000806040838503121561568e5761568d614df0565b5b600061569c85828601614f00565b92505060206156ad85828601615067565b9150509250929050565b60006060820190506156cc6000830186614ebf565b6156d96020830185614ebf565b6156e66040830184614ebf565b949350505050565b600060ff82169050919050565b615704816156ee565b811461570f57600080fd5b50565b600081359050615721816156fb565b92915050565b6000806040838503121561573e5761573d614df0565b5b600061574c85828601614f00565b925050602061575d85828601615712565b9150509250929050565b600080fd5b60008083601f8401126157825761578161507c565b5b8235905067ffffffffffffffff81111561579f5761579e615767565b5b6020830191508360018202830111156157bb576157ba61528a565b5b9250929050565b600080600080600080600060c0888a0312156157e1576157e0614df0565b5b60006157ef8a828b01614f00565b97505060206158008a828b01615712565b96505060406158118a828b01615067565b955050606088013567ffffffffffffffff81111561583257615831614df5565b5b61583e8a828b0161576c565b9450945050608088013567ffffffffffffffff81111561586157615860614df5565b5b61586d8a828b01615183565b92505060a088013567ffffffffffffffff81111561588e5761588d614df5565b5b61589a8a828b01615183565b91505092959891949750929550565b6000806000806000608086880312156158c5576158c4614df0565b5b60006158d388828901614f00565b95505060206158e488828901615712565b945050604086013567ffffffffffffffff81111561590557615904614df5565b5b6159118882890161576c565b9350935050606086013567ffffffffffffffff81111561593457615933614df5565b5b61594088828901615183565b9150509295509295909350565b600065ffffffffffff82169050919050565b6159688161594d565b811461597357600080fd5b50565b6000813590506159858161595f565b92915050565b6000602082840312156159a1576159a0614df0565b5b60006159af84828501615976565b91505092915050565b600080600080606085870312156159d2576159d1614df0565b5b60006159e087828801614f00565b94505060206159f187828801615712565b935050604085013567ffffffffffffffff811115615a1257615a11614df5565b5b615a1e8782880161576c565b925092505092959194509250565b600067ffffffffffffffff821115615a4757615a46615086565b5b615a5082614f88565b9050602081019050919050565b6000615a70615a6b84615a2c565b6150e6565b905082815260208101848484011115615a8c57615a8b615081565b5b615a97848285615132565b509392505050565b600082601f830112615ab457615ab361507c565b5b8135615ac4848260208601615a5d565b91505092915050565b60008060008060808587031215615ae757615ae6614df0565b5b600085013567ffffffffffffffff811115615b0557615b04614df5565b5b615b11878288016152f8565b945050602085013567ffffffffffffffff811115615b3257615b31614df5565b5b615b3e878288016153bb565b935050604085013567ffffffffffffffff811115615b5f57615b5e614df5565b5b615b6b8782880161549c565b925050606085013567ffffffffffffffff811115615b8c57615b8b614df5565b5b615b9887828801615a9f565b91505092959194509250565b600060208284031215615bba57615bb9614df0565b5b6000615bc884828501615067565b91505092915050565b60007fff0000000000000000000000000000000000000000000000000000000000000082169050919050565b615c0681615bd1565b82525050565b600081519050919050565b600082825260208201905092915050565b6000819050602082019050919050565b615c4181614eb5565b82525050565b6000615c538383615c38565b60208301905092915050565b6000602082019050919050565b6000615c7782615c0c565b615c818185615c17565b9350615c8c83615c28565b8060005b83811015615cbd578151615ca48882615c47565b9750615caf83615c5f565b925050600181019050615c90565b5085935050505092915050565b600060e082019050615cdf600083018a615bfd565b8181036020830152615cf18189614f99565b90508181036040830152615d058188614f99565b9050615d146060830187614ebf565b615d216080830186615026565b615d2e60a08301856155bb565b81810360c0830152615d408184615c6c565b905098975050505050505050565b60008060008060808587031215615d6857615d67614df0565b5b6000615d7687828801614f00565b9450506020615d8787828801615712565b9350506040615d9887828801615067565b925050606085013567ffffffffffffffff811115615db957615db8614df5565b5b615dc587828801615183565b91505092959194509250565b615dda8161594d565b82525050565b6000602082019050615df56000830184615dd1565b92915050565b600080600060608486031215615e1457615e13614df0565b5b6000615e2286828701615067565b9350506020615e3386828701614f00565b925050604084013567ffffffffffffffff811115615e5457615e53614df5565b5b615e6086828701615183565b9150509250925092565b6000615e7582614ff4565b9050919050565b6000615e8782615e6a565b9050919050565b615e9781615e7c565b8114615ea257600080fd5b50565b600081359050615eb481615e8e565b92915050565b600060208284031215615ed057615ecf614df0565b5b6000615ede84828501615ea5565b91505092915050565b600080600080600060a08688031215615f0357615f02614df0565b5b6000615f1188828901615067565b9550506020615f2288828901615067565b945050604086013567ffffffffffffffff811115615f4357615f42614df5565b5b615f4f888289016153bb565b935050606086013567ffffffffffffffff811115615f7057615f6f614df5565b5b615f7c888289016153bb565b925050608086013567ffffffffffffffff811115615f9d57615f9c614df5565b5b615fa988828901615183565b9150509295509295909350565b60008083601f840112615fcc57615fcb61507c565b5b8235905067ffffffffffffffff811115615fe957615fe8615767565b5b6020830191508360018202830111156160055761600461528a565b5b9250929050565b6000806000806060858703121561602657616025614df0565b5b600061603487828801615067565b945050602061604587828801614f00565b935050604085013567ffffffffffffffff81111561606657616065614df5565b5b61607287828801615fb6565b925092505092959194509250565b600063ffffffff82169050919050565b61609981616080565b81146160a457600080fd5b50565b6000813590506160b681616090565b92915050565b6000602082840312156160d2576160d1614df0565b5b60006160e0848285016160a7565b91505092915050565b60008060408385031215616100576160ff614df0565b5b600061610e85828601615067565b925050602061611f85828601614f00565b9150509250929050565b600080600080600060a0868803121561614557616144614df0565b5b600061615388828901615067565b955050602061616488828901615067565b945050604061617588828901614f00565b935050606061618688828901614f00565b925050608086013567ffffffffffffffff8111156161a7576161a6614df5565b5b6161b388828901615183565b9150509295509295909350565b6000819050919050565b60006161e56161e06161db84614ff4565b6161c0565b614ff4565b9050919050565b60006161f7826161ca565b9050919050565b6000616209826161ec565b9050919050565b616219816161fe565b82525050565b60006020820190506162346000830184616210565b92915050565b7f4e487b7100000000000000000000000000000000000000000000000000000000600052602260045260246000fd5b6000600282049050600182168061628157607f821691505b6020821081036162945761629361623a565b5b50919050565b60006162b56162b06162ab8461594d565b6161c0565b614eb5565b9050919050565b6162c58161629a565b82525050565b60006040820190506162e06000830185614ebf565b6162ed60208301846162bc565b9392505050565b7f4e487b7100000000000000000000000000000000000000000000000000000000600052603260045260246000fd5b60006040820190506163386000830185614ebf565b6163456020830184615026565b9392505050565b600061635f61635a84615a2c565b6150e6565b90508281526020810184848401111561637b5761637a615081565b5b616386848285614f5e565b509392505050565b600082601f8301126163a3576163a261507c565b5b81516163b384826020860161634c565b91505092915050565b6000602082840312156163d2576163d1614df0565b5b600082015167ffffffffffffffff8111156163f0576163ef614df5565b5b6163fc8482850161638e565b91505092915050565b600081905092915050565b600061641c8385616405565b9350616429838584615132565b82840190509392505050565b6000616442828486616410565b91508190509392505050565b616457816156ee565b82525050565b600060e082019050616472600083018a6155bb565b61647f6020830189614ebf565b61648c604083018861644e565b6164996060830187615026565b6164a66080830186614ebf565b6164b360a08301856155bb565b6164c060c08301846155bb565b98975050505050505050565b600060a0820190506164e160008301886155bb565b6164ee6020830187614ebf565b6164fb604083018661644e565b6165086060830185615026565b6165156080830184614ebf565b9695505050505050565b60008151905061652e8161595f565b92915050565b60006020828403121561654a57616549614df0565b5b60006165588482850161651f565b91505092915050565b7f4e487b7100000000000000000000000000000000000000000000000000000000600052601160045260246000fd5b600061659b8261594d565b91506165a68361594d565b9250828201905065ffffffffffff8111156165c4576165c3616561565b5b92915050565b600081519050919050565b600082825260208201905092915050565b6000819050602082019050919050565b6165ff81615014565b82525050565b600061661183836165f6565b60208301905092915050565b6000602082019050919050565b6000616635826165ca565b61663f81856165d5565b935061664a836165e6565b8060005b8381101561667b5781516166628882616605565b975061666d8361661d565b92505060018101905061664e565b5085935050505092915050565b600081519050919050565b600082825260208201905092915050565b6000819050602082019050919050565b600081519050919050565b600082825260208201905092915050565b60006166db826166b4565b6166e581856166bf565b93506166f5818560208601614f5e565b6166fe81614f88565b840191505092915050565b600061671583836166d0565b905092915050565b6000602082019050919050565b600061673582616688565b61673f8185616693565b935083602082028501616751856166a4565b8060005b8581101561678d578484038952815161676e8582616709565b94506167798361671d565b925060208a01995050600181019050616755565b50829750879550505050505092915050565b600060808201905081810360008301526167b9818761662a565b905081810360208301526167cd8186615c6c565b905081810360408301526167e1818561672a565b90506167f060608301846155bb565b95945050505050565b600060408201905061680e6000830185614ebf565b61681b6020830184614ebf565b9392505050565b60006060820190506168376000830186614ebf565b616844602083018561564d565b61685160408301846155bb565b949350505050565b61686281614e7f565b811461686d57600080fd5b50565b60008151905061687f81616859565b92915050565b60006020828403121561689b5761689a614df0565b5b60006168a984828501616870565b91505092915050565b60006080820190506168c76000830187614ebf565b6168d4602083018661644e565b6168e16040830185614ebf565b81810360608301526168f38184614f99565b905095945050505050565b600082825260208201905092915050565b600061691a826166b4565b61692481856168fe565b9350616934818560208601614f5e565b61693d81614f88565b840191505092915050565b600060a08201905061695d6000830188614ebf565b61696a602083018761644e565b6169776040830186614ebf565b81810360608301526169898185614f99565b9050818103608083015261699d818461690f565b90509695505050505050565b60006040820190506169be60008301856162bc565b6169cb60208301846162bc565b9392505050565b60006169dd8261594d565b91506169e88361594d565b9250828203905065ffffffffffff811115616a0657616a05616561565b5b92915050565b6000606082019050616a216000830186615026565b616a2e6020830185614ebf565b616a3b6040830184614ebf565b949350505050565b6000604082019050616a586000830185615026565b616a656020830184614ebf565b9392505050565b600081519050616a7b81614ee9565b92915050565b600060208284031215616a9757616a96614df0565b5b6000616aa584828501616a6c565b91505092915050565b6000616ab982614eb5565b9150616ac483614eb5565b9250828203905081811115616adc57616adb616561565b5b92915050565b6000604082019050616af76000830185615026565b616b046020830184615026565b9392505050565b6000819050919050565b6000616b30616b2b616b2684616b0b565b6161c0565b614eb5565b9050919050565b616b4081616b15565b82525050565b6000602082019050616b5b6000830184616b37565b92915050565b6000616b7c616b77616b7284616080565b6161c0565b614eb5565b9050919050565b616b8c81616b61565b82525050565b6000604082019050616ba76000830185616b83565b616bb46020830184616b83565b9392505050565b6000819050919050565b6000616be0616bdb616bd684616bbb565b6161c0565b6156ee565b9050919050565b616bf081616bc5565b82525050565b6000604082019050616c0b6000830185616be7565b616c186020830184614ebf565b9392505050565b60008160001b9050919050565b6000616c47616c42616c3d84616b0b565b616c1f565b6154ca565b9050919050565b616c5781616c2c565b82525050565b600060a0820190508181036000830152616c77818861662a565b90508181036020830152616c8b8187615c6c565b90508181036040830152616c9f818661672a565b9050616cae6060830185616c4e565b616cbb60808301846155bb565b9695505050505050565b600081519050616cd4816154d4565b92915050565b600060208284031215616cf057616cef614df0565b5b6000616cfe84828501616cc5565b91505092915050565b600060c0820190508181036000830152616d21818961662a565b90508181036020830152616d358188615c6c565b90508181036040830152616d49818761672a565b9050616d586060830186616c4e565b616d6560808301856155bb565b616d7260a0830184614ebf565b979650505050505050565b6000616d8882614eb5565b9150616d9383614eb5565b9250828201905080821115616dab57616daa616561565b5b92915050565b6000604082019050616dc660008301856155bb565b8181036020830152616dd8818461690f565b90509392505050565b6000616dec826166b4565b616df68185616405565b9350616e06818560208601614f5e565b80840191505092915050565b6000616e1e8284616de1565b915081905092915050565b6000819050919050565b6000616e4e616e49616e4484616e29565b6161c0565b6156ee565b9050919050565b616e5e81616e33565b82525050565b6000604082019050616e796000830185616e55565b616e866020830184614ebf565b9392505050565b600081519050919050565b600082825260208201905092915050565b6000819050602082019050919050565b600082825260208201905092915050565b6000616ed582614f42565b616edf8185616eb9565b9350616eef818560208601614f5e565b616ef881614f88565b840191505092915050565b6000616f0f8383616eca565b905092915050565b6000602082019050919050565b6000616f2f82616e8d565b616f398185616e98565b935083602082028501616f4b85616ea9565b8060005b85811015616f875784840389528151616f688582616f03565b9450616f7383616f17565b925060208a01995050600181019050616f4f565b50829750879550505050505092915050565b600061012082019050616faf600083018c614ebf565b616fbc602083018b615026565b8181036040830152616fce818a61662a565b90508181036060830152616fe28189615c6c565b90508181036080830152616ff68188616f24565b905081810360a083015261700a818761672a565b905061701960c0830186614ebf565b61702660e0830185614ebf565b8181036101008301526170398184614f99565b90509a9950505050505050505050565b7f4e487b7100000000000000000000000000000000000000000000000000000000600052601260045260246000fd5b6000617083826156ee565b915061708e836156ee565b9250828201905060ff8111156170a7576170a6616561565b5b92915050565b60008160011c9050919050565b6000808291508390505b6001851115617104578086048111156170e0576170df616561565b5b60018516156170ef5780820291505b80810290506170fd856170ad565b94506170c4565b94509492505050565b60008261711d57600190506171d9565b8161712b57600090506171d9565b8160018114617141576002811461714b5761717a565b60019150506171d9565b60ff84111561715d5761715c616561565b5b8360020a91508482111561717457617173616561565b5b506171d9565b5060208310610133831016604e8410600b84101617156171af5782820a9050838111156171aa576171a9616561565b5b6171d9565b6171bc84848460016170ba565b925090508184048111156171d3576171d2616561565b5b81810290505b9392505050565b60006171eb82614eb5565b91506171f6836156ee565b92506172237fffffffffffffffffffffffffffffffffffffffffffffffffffffffffffffffff848461710d565b905092915050565b600060a08201905061724060008301886155bb565b61724d60208301876155bb565b61725a60408301866155bb565b6172676060830185614ebf565b6172746080830184615026565b9695505050505050565b600060808201905061729360008301876155bb565b6172a0602083018661644e565b6172ad60408301856155bb565b6172ba60608301846155bb565b95945050505050565b60006172ce82614eb5565b91506172d983614eb5565b92508282026172e781614eb5565b915082820484148315176172fe576172fd616561565b5b5092915050565b6000819050919050565b600061732a61732561732084617305565b6161c0565b6156ee565b9050919050565b61733a8161730f565b82525050565b60006040820190506173556000830185617331565b6173626020830184614ebf565b9392505050565b600061737482614eb5565b915061737f83614eb5565b92508261738f5761738e617049565b5b82820490509291505056fea2646970667358221220c3414fea2e030d1149e58c785c81429e58a57e54ee383a5e4c6b639c8a43108064736f6c634300081c0033",
  "linkReferences": {},
  "deployedLinkReferences": {}
}