{
  "_format": "hh-sol-artifact-1",
  "contractName": "ForgingLogic",
  "sourceName": "contracts/ForgingLogic.sol",
  "abi": [
    {
      "inputs": [
        {
          "internalType": "address",
          "name": "_tokenAddress",
          "type": "address"
        }
      ],
      "stateMutability": "nonpayable",
      "type": "constructor"
    },
    {
      "inputs": [],
      "name": "AccessControlBadConfirmation",
      "type": "error"
    },
    {
      "inputs": [
        {
          "internalType": "address",
          "name": "account",
          "type": "address"
        },
        {
          "internalType": "bytes32",
          "name": "neededRole",
          "type": "bytes32"
        }
      ],
      "name": "AccessControlUnauthorizedAccount",
      "type": "error"
    },
    {
      "anonymous": false,
      "inputs": [
        {
          "indexed": true,
          "internalType": "address",
          "name": "to",
          "type": "address"
        },
        {
          "indexed": true,
          "internalType": "uint256",
          "name": "tokenId",
          "type": "uint256"
        }
      ],
      "name": "Forged",
      "type": "event"
    },
    {
      "anonymous": false,
      "inputs": [
        {
          "indexed": true,
          "internalType": "bytes32",
          "name": "role",
          "type": "bytes32"
        },
        {
          "indexed": true,
          "internalType": "bytes32",
          "name": "previousAdminRole",
          "type": "bytes32"
        },
        {
          "indexed": true,
          "internalType": "bytes32",
          "name": "newAdminRole",
          "type": "bytes32"
        }
      ],
      "name": "RoleAdminChanged",
      "type": "event"
    },
    {
      "anonymous": false,
      "inputs": [
        {
          "indexed": true,
          "internalType": "bytes32",
          "name": "role",
          "type": "bytes32"
        },
        {
          "indexed": true,
          "internalType": "address",
          "name": "account",
          "type": "address"
        },
        {
          "indexed": true,
          "internalType": "address",
          "name": "sender",
          "type": "address"
        }
      ],
      "name": "RoleGranted",
      "type": "event"
    },
    {
      "anonymous": false,
      "inputs": [
        {
          "indexed": true,
          "internalType": "bytes32",
          "name": "role",
          "type": "bytes32"
        },
        {
          "indexed": true,
          "internalType": "address",
          "name": "account",
          "type": "address"
        },
        {
          "indexed": true,
          "internalType": "address",
          "name": "sender",
          "type": "address"
        }
      ],
      "name": "RoleRevoked",
      "type": "event"
    },
    {
      "anonymous": false,
      "inputs": [
        {
          "indexed": true,
          "internalType": "address",
          "name": "from",
          "type": "address"
        },
        {
          "indexed": true,
          "internalType": "uint256",
          "name": "fromTokenId",
          "type": "uint256"
        },
        {
          "indexed": false,
          "internalType": "uint256",
          "name": "toTokenId",
          "type": "uint256"
        },
        {
          "indexed": false,
          "internalType": "uint256",
          "name": "amount",
          "type": "uint256"
        }
      ],
      "name": "Traded",
      "type": "event"
    },
    {
      "inputs": [],
      "name": "DEFAULT_ADMIN_ROLE",
      "outputs": [
        {
          "internalType": "bytes32",
          "name": "",
          "type": "bytes32"
        }
      ],
      "stateMutability": "view",
      "type": "function"
    },
    {
      "inputs": [
        {
          "internalType": "uint256",
          "name": "tokenId",
          "type": "uint256"
        }
      ],
      "name": "forge",
      "outputs": [],
      "stateMutability": "nonpayable",
      "type": "function"
    },
    {
      "inputs": [],
      "name": "forgeToken",
      "outputs": [
        {
          "internalType": "contract Token",
          "name": "",
          "type": "address"
        }
      ],
      "stateMutability": "view",
      "type": "function"
    },
    {
      "inputs": [
        {
          "internalType": "address",
          "name": "user",
          "type": "address"
        }
      ],
      "name": "getAllTokenBalances",
      "outputs": [
        {
          "internalType": "uint256[]",
          "name": "",
          "type": "uint256[]"
        }
      ],
      "stateMutability": "view",
      "type": "function"
    },
    {
      "inputs": [
        {
          "internalType": "bytes32",
          "name": "role",
          "type": "bytes32"
        }
      ],
      "name": "getRoleAdmin",
      "outputs": [
        {
          "internalType": "bytes32",
          "name": "",
          "type": "bytes32"
        }
      ],
      "stateMutability": "view",
      "type": "function"
    },
    {
      "inputs": [
        {
          "internalType": "bytes32",
          "name": "role",
          "type": "bytes32"
        },
        {
          "internalType": "address",
          "name": "account",
          "type": "address"
        }
      ],
      "name": "grantRole",
      "outputs": [],
      "stateMutability": "nonpayable",
      "type": "function"
    },
    {
      "inputs": [
        {
          "internalType": "bytes32",
          "name": "role",
          "type": "bytes32"
        },
        {
          "internalType": "address",
          "name": "account",
          "type": "address"
        }
      ],
      "name": "hasRole",
      "outputs": [
        {
          "internalType": "bool",
          "name": "",
          "type": "bool"
        }
      ],
      "stateMutability": "view",
      "type": "function"
    },
    {
      "inputs": [],
      "name": "owner",
      "outputs": [
        {
          "internalType": "address",
          "name": "",
          "type": "address"
        }
      ],
      "stateMutability": "view",
      "type": "function"
    },
    {
      "inputs": [
        {
          "internalType": "bytes32",
          "name": "role",
          "type": "bytes32"
        },
        {
          "internalType": "address",
          "name": "callerConfirmation",
          "type": "address"
        }
      ],
      "name": "renounceRole",
      "outputs": [],
      "stateMutability": "nonpayable",
      "type": "function"
    },
    {
      "inputs": [
        {
          "internalType": "bytes32",
          "name": "role",
          "type": "bytes32"
        },
        {
          "internalType": "address",
          "name": "account",
          "type": "address"
        }
      ],
      "name": "revokeRole",
      "outputs": [],
      "stateMutability": "nonpayable",
      "type": "function"
    },
    {
      "inputs": [
        {
          "internalType": "address",
          "name": "_tokenAddres",
          "type": "address"
        }
      ],
      "name": "setForgeTokenAddress",
      "outputs": [],
      "stateMutability": "nonpayable",
      "type": "function"
    },
    {
      "inputs": [
        {
          "internalType": "bytes4",
          "name": "interfaceId",
          "type": "bytes4"
        }
      ],
      "name": "supportsInterface",
      "outputs": [
        {
          "internalType": "bool",
          "name": "",
          "type": "bool"
        }
      ],
      "stateMutability": "view",
      "type": "function"
    },
    {
      "inputs": [
        {
          "internalType": "uint256",
          "name": "fromTokenId",
          "type": "uint256"
        },
        {
          "internalType": "uint256",
          "name": "toTokenId",
          "type": "uint256"
        },
        {
          "internalType": "uint256",
          "name": "amount",
          "type": "uint256"
        }
      ],
      "name": "tradeToken",
      "outputs": [],
      "stateMutability": "nonpayable",
      "type": "function"
    }
  ],
  "bytecode": "0x608060405234801561001057600080fd5b50604051611e93380380611e93833981810160405281019061003291906104ea565b600073ffffffffffffffffffffffffffffffffffffffff168173ffffffffffffffffffffffffffffffffffffffff16036100a1576040517f08c379a000000000000000000000000000000000000000000000000000000000815260040161009890610574565b60405180910390fd5b80600160006101000a81548173ffffffffffffffffffffffffffffffffffffffff021916908373ffffffffffffffffffffffffffffffffffffffff16021790555033600260006101000a81548173ffffffffffffffffffffffffffffffffffffffff021916908373ffffffffffffffffffffffffffffffffffffffff16021790555061013161014b60201b60201c565b6101446000801b3361025760201b60201c565b5050610594565b6040518060400160405280600060ff168152602001600160ff16815250600360006003815260200190815260200160002090600261018a9291906103c6565b506040518060400160405280600160ff168152602001600260ff1681525060036000600481526020019081526020016000209060026101ca9291906103c6565b506040518060400160405280600060ff168152602001600260ff16815250600360006005815260200190815260200160002090600261020a9291906103c6565b506040518060600160405280600060ff168152602001600160ff168152602001600260ff168152506003600060068152602001908152602001600020906003610254929190610418565b50565b6000610269838361035460201b60201c565b61034957600160008085815260200190815260200160002060000160008473ffffffffffffffffffffffffffffffffffffffff1673ffffffffffffffffffffffffffffffffffffffff16815260200190815260200160002060006101000a81548160ff0219169083151502179055506102e66103be60201b60201c565b73ffffffffffffffffffffffffffffffffffffffff168273ffffffffffffffffffffffffffffffffffffffff16847f2f8788117e7eff1d82e926ec794901d17c78024a50270940304540a733656f0d60405160405180910390a46001905061034e565b600090505b92915050565b600080600084815260200190815260200160002060000160008373ffffffffffffffffffffffffffffffffffffffff1673ffffffffffffffffffffffffffffffffffffffff16815260200190815260200160002060009054906101000a900460ff16905092915050565b600033905090565b828054828255906000526020600020908101928215610407579160200282015b82811115610406578251829060ff169055916020019190600101906103e6565b5b509050610414919061046a565b5090565b828054828255906000526020600020908101928215610459579160200282015b82811115610458578251829060ff16905591602001919060010190610438565b5b509050610466919061046a565b5090565b5b8082111561048357600081600090555060010161046b565b5090565b600080fd5b600073ffffffffffffffffffffffffffffffffffffffff82169050919050565b60006104b78261048c565b9050919050565b6104c7816104ac565b81146104d257600080fd5b50565b6000815190506104e4816104be565b92915050565b600060208284031215610500576104ff610487565b5b600061050e848285016104d5565b91505092915050565b600082825260208201905092915050565b7f496e76616c696420746f6b656e20616464726573730000000000000000000000600082015250565b600061055e601583610517565b915061056982610528565b602082019050919050565b6000602082019050818103600083015261058d81610551565b9050919050565b6118f0806105a36000396000f3fe608060405234801561001057600080fd5b50600436106100cf5760003560e01c80638da5cb5b1161008c578063a217fddf11610066578063a217fddf14610222578063a94e834b14610240578063bb9ed1b11461025c578063d547741f1461027a576100cf565b80638da5cb5b146101b857806391d14854146101d657806398e783f014610206576100cf565b806301ffc9a7146100d4578063248a9ca3146101045780632f2ff15d1461013457806336568abe14610150578063681bec6c1461016c5780636d4180ce1461019c575b600080fd5b6100ee60048036038101906100e99190611079565b610296565b6040516100fb91906110c1565b60405180910390f35b61011e60048036038101906101199190611112565b610310565b60405161012b919061114e565b60405180910390f35b61014e600480360381019061014991906111c7565b61032f565b005b61016a600480360381019061016591906111c7565b610351565b005b61018660048036038101906101819190611207565b6103cc565b60405161019391906112fc565b60405180910390f35b6101b660048036038101906101b19190611207565b6104fb565b005b6101c061054d565b6040516101cd919061132d565b60405180910390f35b6101f060048036038101906101eb91906111c7565b610573565b6040516101fd91906110c1565b60405180910390f35b610220600480360381019061021b9190611374565b6105dd565b005b61022a6108c7565b604051610237919061114e565b60405180910390f35b61025a600480360381019061025591906113c7565b6108ce565b005b610264610d1a565b6040516102719190611453565b60405180910390f35b610294600480360381019061028f91906111c7565b610d40565b005b60007f7965db0b000000000000000000000000000000000000000000000000000000007bffffffffffffffffffffffffffffffffffffffffffffffffffffffff1916827bffffffffffffffffffffffffffffffffffffffffffffffffffffffff19161480610309575061030882610d62565b5b9050919050565b6000806000838152602001908152602001600020600101549050919050565b61033882610310565b61034181610dcc565b61034b8383610de0565b50505050565b610359610ed1565b73ffffffffffffffffffffffffffffffffffffffff168173ffffffffffffffffffffffffffffffffffffffff16146103bd576040517f6697b23200000000000000000000000000000000000000000000000000000000815260040160405180910390fd5b6103c78282610ed9565b505050565b60606000600767ffffffffffffffff8111156103eb576103ea61146e565b5b6040519080825280602002602001820160405280156104195781602001602082028036833780820191505090505b50905060005b60078110156104f157600160009054906101000a900473ffffffffffffffffffffffffffffffffffffffff1673ffffffffffffffffffffffffffffffffffffffff1662fdd58e85836040518363ffffffff1660e01b81526004016104849291906114ac565b602060405180830381865afa1580156104a1573d6000803e3d6000fd5b505050506040513d601f19601f820116820180604052508101906104c591906114ea565b8282815181106104d8576104d7611517565b5b602002602001018181525050808060010191505061041f565b5080915050919050565b6000801b61050881610dcc565b81600160006101000a81548173ffffffffffffffffffffffffffffffffffffffff021916908373ffffffffffffffffffffffffffffffffffffffff1602179055505050565b600260009054906101000a900473ffffffffffffffffffffffffffffffffffffffff1681565b600080600084815260200190815260200160002060000160008373ffffffffffffffffffffffffffffffffffffffff1673ffffffffffffffffffffffffffffffffffffffff16815260200190815260200160002060009054906101000a900460ff16905092915050565b81830361061f576040517f08c379a0000000000000000000000000000000000000000000000000000000008152600401610616906115a3565b60405180910390fd5b60028211158015610631575060028311155b610670576040517f08c379a00000000000000000000000000000000000000000000000000000000081526004016106679061160f565b60405180910390fd5b80600160009054906101000a900473ffffffffffffffffffffffffffffffffffffffff1673ffffffffffffffffffffffffffffffffffffffff1662fdd58e33866040518363ffffffff1660e01b81526004016106cd9291906114ac565b602060405180830381865afa1580156106ea573d6000803e3d6000fd5b505050506040513d601f19601f8201168201806040525081019061070e91906114ea565b101561074f576040517f08c379a0000000000000000000000000000000000000000000000000000000008152600401610746906116a1565b60405180910390fd5b600160009054906101000a900473ffffffffffffffffffffffffffffffffffffffff1673ffffffffffffffffffffffffffffffffffffffff1663eabe1ec23385846040518463ffffffff1660e01b81526004016107ae939291906116c1565b600060405180830381600087803b1580156107c857600080fd5b505af11580156107dc573d6000803e3d6000fd5b50505050600160009054906101000a900473ffffffffffffffffffffffffffffffffffffffff1673ffffffffffffffffffffffffffffffffffffffff1663aacf08623384846040518463ffffffff1660e01b815260040161083f939291906116c1565b600060405180830381600087803b15801561085957600080fd5b505af115801561086d573d6000803e3d6000fd5b50505050823373ffffffffffffffffffffffffffffffffffffffff167f17c5b36beecc08bb34c131595b72648615701863750cb5dd40952abd4128af7784846040516108ba9291906116f8565b60405180910390a3505050565b6000801b81565b6000339050600160009054906101000a900473ffffffffffffffffffffffffffffffffffffffff1673ffffffffffffffffffffffffffffffffffffffff1663453f6a326040518163ffffffff1660e01b8152600401602060405180830381865afa158015610940573d6000803e3d6000fd5b505050506040513d601f19601f8201168201806040525081019061096491906114ea565b8210158015610a035750600160009054906101000a900473ffffffffffffffffffffffffffffffffffffffff1673ffffffffffffffffffffffffffffffffffffffff1663a3cacc856040518163ffffffff1660e01b8152600401602060405180830381865afa1580156109db573d6000803e3d6000fd5b505050506040513d601f19601f820116820180604052508101906109ff91906114ea565b8211155b610a42576040517f08c379a0000000000000000000000000000000000000000000000000000000008152600401610a399061176d565b60405180910390fd5b60005b6003600084815260200190815260200160002080549050811015610c3f5760018060009054906101000a900473ffffffffffffffffffffffffffffffffffffffff1673ffffffffffffffffffffffffffffffffffffffff1662fdd58e84600360008881526020019081526020016000208581548110610ac757610ac6611517565b5b90600052602060002001546040518363ffffffff1660e01b8152600401610aef9291906114ac565b602060405180830381865afa158015610b0c573d6000803e3d6000fd5b505050506040513d601f19601f82011682018060405250810190610b3091906114ea565b1015610b71576040517f08c379a0000000000000000000000000000000000000000000000000000000008152600401610b68906117ff565b60405180910390fd5b600160009054906101000a900473ffffffffffffffffffffffffffffffffffffffff1673ffffffffffffffffffffffffffffffffffffffff1663eabe1ec283600360008781526020019081526020016000208481548110610bd557610bd4611517565b5b906000526020600020015460016040518463ffffffff1660e01b8152600401610c009392919061185a565b600060405180830381600087803b158015610c1a57600080fd5b505af1158015610c2e573d6000803e3d6000fd5b505050508080600101915050610a45565b50600160009054906101000a900473ffffffffffffffffffffffffffffffffffffffff1673ffffffffffffffffffffffffffffffffffffffff1663aacf0862828460016040518463ffffffff1660e01b8152600401610ca09392919061185a565b600060405180830381600087803b158015610cba57600080fd5b505af1158015610cce573d6000803e3d6000fd5b50505050818173ffffffffffffffffffffffffffffffffffffffff167f7ad4b12ff4ce0fdd55b19da97f85fc9a091971912adda4a8bba51626c4cd546960405160405180910390a35050565b600160009054906101000a900473ffffffffffffffffffffffffffffffffffffffff1681565b610d4982610310565b610d5281610dcc565b610d5c8383610ed9565b50505050565b60007f01ffc9a7000000000000000000000000000000000000000000000000000000007bffffffffffffffffffffffffffffffffffffffffffffffffffffffff1916827bffffffffffffffffffffffffffffffffffffffffffffffffffffffff1916149050919050565b610ddd81610dd8610ed1565b610fcb565b50565b6000610dec8383610573565b610ec657600160008085815260200190815260200160002060000160008473ffffffffffffffffffffffffffffffffffffffff1673ffffffffffffffffffffffffffffffffffffffff16815260200190815260200160002060006101000a81548160ff021916908315150217905550610e63610ed1565b73ffffffffffffffffffffffffffffffffffffffff168273ffffffffffffffffffffffffffffffffffffffff16847f2f8788117e7eff1d82e926ec794901d17c78024a50270940304540a733656f0d60405160405180910390a460019050610ecb565b600090505b92915050565b600033905090565b6000610ee58383610573565b15610fc057600080600085815260200190815260200160002060000160008473ffffffffffffffffffffffffffffffffffffffff1673ffffffffffffffffffffffffffffffffffffffff16815260200190815260200160002060006101000a81548160ff021916908315150217905550610f5d610ed1565b73ffffffffffffffffffffffffffffffffffffffff168273ffffffffffffffffffffffffffffffffffffffff16847ff6391f5c32d9c69d2a47ea670b442974b53935d1edc7fd64eb21e047a839171b60405160405180910390a460019050610fc5565b600090505b92915050565b610fd58282610573565b6110185780826040517fe2517d3f00000000000000000000000000000000000000000000000000000000815260040161100f929190611891565b60405180910390fd5b5050565b600080fd5b60007fffffffff0000000000000000000000000000000000000000000000000000000082169050919050565b61105681611021565b811461106157600080fd5b50565b6000813590506110738161104d565b92915050565b60006020828403121561108f5761108e61101c565b5b600061109d84828501611064565b91505092915050565b60008115159050919050565b6110bb816110a6565b82525050565b60006020820190506110d660008301846110b2565b92915050565b6000819050919050565b6110ef816110dc565b81146110fa57600080fd5b50565b60008135905061110c816110e6565b92915050565b6000602082840312156111285761112761101c565b5b6000611136848285016110fd565b91505092915050565b611148816110dc565b82525050565b6000602082019050611163600083018461113f565b92915050565b600073ffffffffffffffffffffffffffffffffffffffff82169050919050565b600061119482611169565b9050919050565b6111a481611189565b81146111af57600080fd5b50565b6000813590506111c18161119b565b92915050565b600080604083850312156111de576111dd61101c565b5b60006111ec858286016110fd565b92505060206111fd858286016111b2565b9150509250929050565b60006020828403121561121d5761121c61101c565b5b600061122b848285016111b2565b91505092915050565b600081519050919050565b600082825260208201905092915050565b6000819050602082019050919050565b6000819050919050565b61127381611260565b82525050565b6000611285838361126a565b60208301905092915050565b6000602082019050919050565b60006112a982611234565b6112b3818561123f565b93506112be83611250565b8060005b838110156112ef5781516112d68882611279565b97506112e183611291565b9250506001810190506112c2565b5085935050505092915050565b60006020820190508181036000830152611316818461129e565b905092915050565b61132781611189565b82525050565b6000602082019050611342600083018461131e565b92915050565b61135181611260565b811461135c57600080fd5b50565b60008135905061136e81611348565b92915050565b60008060006060848603121561138d5761138c61101c565b5b600061139b8682870161135f565b93505060206113ac8682870161135f565b92505060406113bd8682870161135f565b9150509250925092565b6000602082840312156113dd576113dc61101c565b5b60006113eb8482850161135f565b91505092915050565b6000819050919050565b600061141961141461140f84611169565b6113f4565b611169565b9050919050565b600061142b826113fe565b9050919050565b600061143d82611420565b9050919050565b61144d81611432565b82525050565b60006020820190506114686000830184611444565b92915050565b7f4e487b7100000000000000000000000000000000000000000000000000000000600052604160045260246000fd5b6114a681611260565b82525050565b60006040820190506114c1600083018561131e565b6114ce602083018461149d565b9392505050565b6000815190506114e481611348565b92915050565b600060208284031215611500576114ff61101c565b5b600061150e848285016114d5565b91505092915050565b7f4e487b7100000000000000000000000000000000000000000000000000000000600052603260045260246000fd5b600082825260208201905092915050565b7f43616e6e6f74207472616465207468652073616d6520746f6b656e0000000000600082015250565b600061158d601b83611546565b915061159882611557565b602082019050919050565b600060208201905081810360008301526115bc81611580565b9050919050565b7f4f6e6c7920746f6b656e7320302d322063616e20626520747261646564000000600082015250565b60006115f9601d83611546565b9150611604826115c3565b602082019050919050565b60006020820190508181036000830152611628816115ec565b9050919050565b7f496e73756666696369656e742062616c616e6365206f6620746f6b656e20746f60008201527f2074726164650000000000000000000000000000000000000000000000000000602082015250565b600061168b602683611546565b91506116968261162f565b604082019050919050565b600060208201905081810360008301526116ba8161167e565b9050919050565b60006060820190506116d6600083018661131e565b6116e3602083018561149d565b6116f0604083018461149d565b949350505050565b600060408201905061170d600083018561149d565b61171a602083018461149d565b9392505050565b7f596f752063616e206f6e6c7920666f72676520746f6b656e7320332d36000000600082015250565b6000611757601d83611546565b915061176282611721565b602082019050919050565b600060208201905081810360008301526117868161174a565b9050919050565b7f496e73756666696369656e742062616c616e6365206f6620746f6b656e20746f60008201527f20666f7267650000000000000000000000000000000000000000000000000000602082015250565b60006117e9602683611546565b91506117f48261178d565b604082019050919050565b60006020820190508181036000830152611818816117dc565b9050919050565b6000819050919050565b600061184461183f61183a8461181f565b6113f4565b611260565b9050919050565b61185481611829565b82525050565b600060608201905061186f600083018661131e565b61187c602083018561149d565b611889604083018461184b565b949350505050565b60006040820190506118a6600083018561131e565b6118b3602083018461113f565b939250505056fea2646970667358221220f71ab19034df9b5e1243393e0d079df015e617cff454aa470e75cfde9e137bc764736f6c634300081c0033",
  "linkReferences": {},
  "deployedLinkReferences": {}
}