{"contracts/CallMeChallenge.sol":{"CallMeChallenge":{"abi":[{"constant":false,"inputs":[],"name":"callme","outputs":[],"payable":false,"stateMutability":"nonpayable","type":"function"},{"constant":true,"inputs":[],"name":"isComplete","outputs":[{"name":"","type":"bool"}],"payable":false,"stateMutability":"view","type":"function"}],"evm":{"bytecode":{"linkReferences":{},"object":"606060405260008060006101000a81548160ff021916908315150217905550341561002957600080fd5b60e4806100376000396000f3006060604052600436106049576000357c0100000000000000000000000000000000000000000000000000000000900463ffffffff168063a3c8e39314604e578063b2fa1c9e146060575b600080fd5b3415605857600080fd5b605e608a565b005b3415606a57600080fd5b607060a6565b604051808215151515815260200191505060405180910390f35b60016000806101000a81548160ff021916908315150217905550565b6000809054906101000a900460ff16815600a165627a7a7230582059f600fc82728749d00f16a0725a92562ff5286059f759f6258245e29629cff60029","opcodes":"PUSH1 0x60 PUSH1 0x40 MSTORE PUSH1 0x0 DUP1 PUSH1 0x0 PUSH2 0x100 EXP DUP2 SLOAD DUP2 PUSH1 0xFF MUL NOT AND SWAP1 DUP4 ISZERO ISZERO MUL OR SWAP1 SSTORE POP CALLVALUE ISZERO PUSH2 0x29 JUMPI PUSH1 0x0 DUP1 REVERT JUMPDEST PUSH1 0xE4 DUP1 PUSH2 0x37 PUSH1 0x0 CODECOPY PUSH1 0x0 RETURN STOP PUSH1 0x60 PUSH1 0x40 MSTORE PUSH1 0x4 CALLDATASIZE LT PUSH1 0x49 JUMPI PUSH1 0x0 CALLDATALOAD PUSH29 0x100000000000000000000000000000000000000000000000000000000 SWAP1 DIV PUSH4 0xFFFFFFFF AND DUP1 PUSH4 0xA3C8E393 EQ PUSH1 0x4E JUMPI DUP1 PUSH4 0xB2FA1C9E EQ PUSH1 0x60 JUMPI JUMPDEST PUSH1 0x0 DUP1 REVERT JUMPDEST CALLVALUE ISZERO PUSH1 0x58 JUMPI PUSH1 0x0 DUP1 REVERT JUMPDEST PUSH1 0x5E PUSH1 0x8A JUMP JUMPDEST STOP JUMPDEST CALLVALUE ISZERO PUSH1 0x6A JUMPI PUSH1 0x0 DUP1 REVERT JUMPDEST PUSH1 0x70 PUSH1 0xA6 JUMP JUMPDEST PUSH1 0x40 MLOAD DUP1 DUP3 ISZERO ISZERO ISZERO ISZERO DUP2 MSTORE PUSH1 0x20 ADD SWAP2 POP POP PUSH1 0x40 MLOAD DUP1 SWAP2 SUB SWAP1 RETURN JUMPDEST PUSH1 0x1 PUSH1 0x0 DUP1 PUSH2 0x100 EXP DUP2 SLOAD DUP2 PUSH1 0xFF MUL NOT AND SWAP1 DUP4 ISZERO ISZERO MUL OR SWAP1 SSTORE POP JUMP JUMPDEST PUSH1 0x0 DUP1 SWAP1 SLOAD SWAP1 PUSH2 0x100 EXP SWAP1 DIV PUSH1 0xFF AND DUP2 JUMP STOP LOG1 PUSH6 0x627A7A723058 KECCAK256 MSIZE 0xf6 STOP 0xfc DUP3 PUSH19 0x8749D00F16A0725A92562FF5286059F759F625 DUP3 GASLIMIT 0xe2 SWAP7 0x29 0xcf 0xf6 STOP 0x29 "},"methodIdentifiers":{"callme()":"a3c8e393","isComplete()":"b2fa1c9e"}}}}}