{"contracts/MappingChallenge.sol":{"MappingChallenge":{"abi":[{"constant":false,"inputs":[{"name":"key","type":"uint256"},{"name":"value","type":"uint256"}],"name":"set","outputs":[],"payable":false,"stateMutability":"nonpayable","type":"function"},{"constant":true,"inputs":[{"name":"key","type":"uint256"}],"name":"get","outputs":[{"name":"","type":"uint256"}],"payable":false,"stateMutability":"view","type":"function"},{"constant":true,"inputs":[],"name":"isComplete","outputs":[{"name":"","type":"bool"}],"payable":false,"stateMutability":"view","type":"function"}],"evm":{"bytecode":{"linkReferences":{},"object":"6060604052341561000f57600080fd5b6101e38061001e6000396000f300606060405260043610610057576000357c0100000000000000000000000000000000000000000000000000000000900463ffffffff1680631ab06ee51461005c5780639507d39a14610088578063b2fa1c9e146100bf575b600080fd5b341561006757600080fd5b61008660048080359060200190919080359060200190919050506100ec565b005b341561009357600080fd5b6100a96004808035906020019091905050610130565b6040518082815260200191505060405180910390f35b34156100ca57600080fd5b6100d2610154565b604051808215151515815260200191505060405180910390f35b8160018054905011151561010d576001820160018161010b9190610166565b505b8060018381548110151561011d57fe5b9060005260206000209001819055505050565b600060018281548110151561014157fe5b9060005260206000209001549050919050565b6000809054906101000a900460ff1681565b81548183558181151161018d5781836000526020600020918201910161018c9190610192565b5b505050565b6101b491905b808211156101b0576000816000905550600101610198565b5090565b905600a165627a7a7230582072079228ca734da40b94778e4c9f5199899a0c3d35fb4a9164c406c53c7dd9250029","opcodes":"PUSH1 0x60 PUSH1 0x40 MSTORE CALLVALUE ISZERO PUSH2 0xF JUMPI PUSH1 0x0 DUP1 REVERT JUMPDEST PUSH2 0x1E3 DUP1 PUSH2 0x1E PUSH1 0x0 CODECOPY PUSH1 0x0 RETURN STOP PUSH1 0x60 PUSH1 0x40 MSTORE PUSH1 0x4 CALLDATASIZE LT PUSH2 0x57 JUMPI PUSH1 0x0 CALLDATALOAD PUSH29 0x100000000000000000000000000000000000000000000000000000000 SWAP1 DIV PUSH4 0xFFFFFFFF AND DUP1 PUSH4 0x1AB06EE5 EQ PUSH2 0x5C JUMPI DUP1 PUSH4 0x9507D39A EQ PUSH2 0x88 JUMPI DUP1 PUSH4 0xB2FA1C9E EQ PUSH2 0xBF JUMPI JUMPDEST PUSH1 0x0 DUP1 REVERT JUMPDEST CALLVALUE ISZERO PUSH2 0x67 JUMPI PUSH1 0x0 DUP1 REVERT JUMPDEST PUSH2 0x86 PUSH1 0x4 DUP1 DUP1 CALLDATALOAD SWAP1 PUSH1 0x20 ADD SWAP1 SWAP2 SWAP1 DUP1 CALLDATALOAD SWAP1 PUSH1 0x20 ADD SWAP1 SWAP2 SWAP1 POP POP PUSH2 0xEC JUMP JUMPDEST STOP JUMPDEST CALLVALUE ISZERO PUSH2 0x93 JUMPI PUSH1 0x0 DUP1 REVERT JUMPDEST PUSH2 0xA9 PUSH1 0x4 DUP1 DUP1 CALLDATALOAD SWAP1 PUSH1 0x20 ADD SWAP1 SWAP2 SWAP1 POP POP PUSH2 0x130 JUMP JUMPDEST PUSH1 0x40 MLOAD DUP1 DUP3 DUP2 MSTORE PUSH1 0x20 ADD SWAP2 POP POP PUSH1 0x40 MLOAD DUP1 SWAP2 SUB SWAP1 RETURN JUMPDEST CALLVALUE ISZERO PUSH2 0xCA JUMPI PUSH1 0x0 DUP1 REVERT JUMPDEST PUSH2 0xD2 PUSH2 0x154 JUMP JUMPDEST PUSH1 0x40 MLOAD DUP1 DUP3 ISZERO ISZERO ISZERO ISZERO DUP2 MSTORE PUSH1 0x20 ADD SWAP2 POP POP PUSH1 0x40 MLOAD DUP1 SWAP2 SUB SWAP1 RETURN JUMPDEST DUP2 PUSH1 0x1 DUP1 SLOAD SWAP1 POP GT ISZERO ISZERO PUSH2 0x10D JUMPI PUSH1 0x1 DUP3 ADD PUSH1 0x1 DUP2 PUSH2 0x10B SWAP2 SWAP1 PUSH2 0x166 JUMP JUMPDEST POP JUMPDEST DUP1 PUSH1 0x1 DUP4 DUP2 SLOAD DUP2 LT ISZERO ISZERO PUSH2 0x11D JUMPI INVALID JUMPDEST SWAP1 PUSH1 0x0 MSTORE PUSH1 0x20 PUSH1 0x0 KECCAK256 SWAP1 ADD DUP2 SWAP1 SSTORE POP POP POP JUMP JUMPDEST PUSH1 0x0 PUSH1 0x1 DUP3 DUP2 SLOAD DUP2 LT ISZERO ISZERO PUSH2 0x141 JUMPI INVALID JUMPDEST SWAP1 PUSH1 0x0 MSTORE PUSH1 0x20 PUSH1 0x0 KECCAK256 SWAP1 ADD SLOAD SWAP1 POP SWAP2 SWAP1 POP JUMP JUMPDEST PUSH1 0x0 DUP1 SWAP1 SLOAD SWAP1 PUSH2 0x100 EXP SWAP1 DIV PUSH1 0xFF AND DUP2 JUMP JUMPDEST DUP2 SLOAD DUP2 DUP4 SSTORE DUP2 DUP2 ISZERO GT PUSH2 0x18D JUMPI DUP2 DUP4 PUSH1 0x0 MSTORE PUSH1 0x20 PUSH1 0x0 KECCAK256 SWAP2 DUP3 ADD SWAP2 ADD PUSH2 0x18C SWAP2 SWAP1 PUSH2 0x192 JUMP JUMPDEST JUMPDEST POP POP POP JUMP JUMPDEST PUSH2 0x1B4 SWAP2 SWAP1 JUMPDEST DUP1 DUP3 GT ISZERO PUSH2 0x1B0 JUMPI PUSH1 0x0 DUP2 PUSH1 0x0 SWAP1 SSTORE POP PUSH1 0x1 ADD PUSH2 0x198 JUMP JUMPDEST POP SWAP1 JUMP JUMPDEST SWAP1 JUMP STOP LOG1 PUSH6 0x627A7A723058 KECCAK256 PUSH19 0x79228CA734DA40B94778E4C9F5199899A0C3D CALLDATALOAD CREATE2 0x4a SWAP2 PUSH5 0xC406C53C7D 0xd9 0x25 STOP 0x29 "},"methodIdentifiers":{"get(uint256)":"9507d39a","isComplete()":"b2fa1c9e","set(uint256,uint256)":"1ab06ee5"}}}}}