{
  "_format": "hh-sol-artifact-1",
  "contractName": "Token",
  "sourceName": "contracts/Token.sol",
  "abi": [
    {
      "inputs": [],
      "stateMutability": "nonpayable",
      "type": "constructor"
    },
    {
      "inputs": [],
      "name": "AccessControlBadConfirmation",
      "type": "error"
    },
    {
      "inputs": [
        {
          "internalType": "address",
          "name": "account",
          "type": "address"
        },
        {
          "internalType": "bytes32",
          "name": "neededRole",
          "type": "bytes32"
        }
      ],
      "name": "AccessControlUnauthorizedAccount",
      "type": "error"
    },
    {
      "inputs": [
        {
          "internalType": "address",
          "name": "sender",
          "type": "address"
        },
        {
          "internalType": "uint256",
          "name": "balance",
          "type": "uint256"
        },
        {
          "internalType": "uint256",
          "name": "needed",
          "type": "uint256"
        },
        {
          "internalType": "uint256",
          "name": "tokenId",
          "type": "uint256"
        }
      ],
      "name": "ERC1155InsufficientBalance",
      "type": "error"
    },
    {
      "inputs": [
        {
          "internalType": "address",
          "name": "approver",
          "type": "address"
        }
      ],
      "name": "ERC1155InvalidApprover",
      "type": "error"
    },
    {
      "inputs": [
        {
          "internalType": "uint256",
          "name": "idsLength",
          "type": "uint256"
        },
        {
          "internalType": "uint256",
          "name": "valuesLength",
          "type": "uint256"
        }
      ],
      "name": "ERC1155InvalidArrayLength",
      "type": "error"
    },
    {
      "inputs": [
        {
          "internalType": "address",
          "name": "operator",
          "type": "address"
        }
      ],
      "name": "ERC1155InvalidOperator",
      "type": "error"
    },
    {
      "inputs": [
        {
          "internalType": "address",
          "name": "receiver",
          "type": "address"
        }
      ],
      "name": "ERC1155InvalidReceiver",
      "type": "error"
    },
    {
      "inputs": [
        {
          "internalType": "address",
          "name": "sender",
          "type": "address"
        }
      ],
      "name": "ERC1155InvalidSender",
      "type": "error"
    },
    {
      "inputs": [
        {
          "internalType": "address",
          "name": "operator",
          "type": "address"
        },
        {
          "internalType": "address",
          "name": "owner",
          "type": "address"
        }
      ],
      "name": "ERC1155MissingApprovalForAll",
      "type": "error"
    },
    {
      "anonymous": false,
      "inputs": [
        {
          "indexed": true,
          "internalType": "address",
          "name": "account",
          "type": "address"
        },
        {
          "indexed": true,
          "internalType": "address",
          "name": "operator",
          "type": "address"
        },
        {
          "indexed": false,
          "internalType": "bool",
          "name": "approved",
          "type": "bool"
        }
      ],
      "name": "ApprovalForAll",
      "type": "event"
    },
    {
      "anonymous": false,
      "inputs": [
        {
          "indexed": true,
          "internalType": "address",
          "name": "from",
          "type": "address"
        },
        {
          "indexed": true,
          "internalType": "uint256",
          "name": "tokenId",
          "type": "uint256"
        },
        {
          "indexed": false,
          "internalType": "uint256",
          "name": "amount",
          "type": "uint256"
        }
      ],
      "name": "Burned",
      "type": "event"
    },
    {
      "anonymous": false,
      "inputs": [
        {
          "indexed": true,
          "internalType": "address",
          "name": "to",
          "type": "address"
        },
        {
          "indexed": true,
          "internalType": "uint256",
          "name": "tokenId",
          "type": "uint256"
        },
        {
          "indexed": false,
          "internalType": "uint256",
          "name": "amount",
          "type": "uint256"
        }
      ],
      "name": "Minted",
      "type": "event"
    },
    {
      "anonymous": false,
      "inputs": [
        {
          "indexed": true,
          "internalType": "bytes32",
          "name": "role",
          "type": "bytes32"
        },
        {
          "indexed": true,
          "internalType": "bytes32",
          "name": "previousAdminRole",
          "type": "bytes32"
        },
        {
          "indexed": true,
          "internalType": "bytes32",
          "name": "newAdminRole",
          "type": "bytes32"
        }
      ],
      "name": "RoleAdminChanged",
      "type": "event"
    },
    {
      "anonymous": false,
      "inputs": [
        {
          "indexed": true,
          "internalType": "bytes32",
          "name": "role",
          "type": "bytes32"
        },
        {
          "indexed": true,
          "internalType": "address",
          "name": "account",
          "type": "address"
        },
        {
          "indexed": true,
          "internalType": "address",
          "name": "sender",
          "type": "address"
        }
      ],
      "name": "RoleGranted",
      "type": "event"
    },
    {
      "anonymous": false,
      "inputs": [
        {
          "indexed": true,
          "internalType": "bytes32",
          "name": "role",
          "type": "bytes32"
        },
        {
          "indexed": true,
          "internalType": "address",
          "name": "account",
          "type": "address"
        },
        {
          "indexed": true,
          "internalType": "address",
          "name": "sender",
          "type": "address"
        }
      ],
      "name": "RoleRevoked",
      "type": "event"
    },
    {
      "anonymous": false,
      "inputs": [
        {
          "indexed": true,
          "internalType": "address",
          "name": "operator",
          "type": "address"
        },
        {
          "indexed": true,
          "internalType": "address",
          "name": "from",
          "type": "address"
        },
        {
          "indexed": true,
          "internalType": "address",
          "name": "to",
          "type": "address"
        },
        {
          "indexed": false,
          "internalType": "uint256[]",
          "name": "ids",
          "type": "uint256[]"
        },
        {
          "indexed": false,
          "internalType": "uint256[]",
          "name": "values",
          "type": "uint256[]"
        }
      ],
      "name": "TransferBatch",
      "type": "event"
    },
    {
      "anonymous": false,
      "inputs": [
        {
          "indexed": true,
          "internalType": "address",
          "name": "operator",
          "type": "address"
        },
        {
          "indexed": true,
          "internalType": "address",
          "name": "from",
          "type": "address"
        },
        {
          "indexed": true,
          "internalType": "address",
          "name": "to",
          "type": "address"
        },
        {
          "indexed": false,
          "internalType": "uint256",
          "name": "id",
          "type": "uint256"
        },
        {
          "indexed": false,
          "internalType": "uint256",
          "name": "value",
          "type": "uint256"
        }
      ],
      "name": "TransferSingle",
      "type": "event"
    },
    {
      "anonymous": false,
      "inputs": [
        {
          "indexed": false,
          "internalType": "string",
          "name": "value",
          "type": "string"
        },
        {
          "indexed": true,
          "internalType": "uint256",
          "name": "id",
          "type": "uint256"
        }
      ],
      "name": "URI",
      "type": "event"
    },
    {
      "inputs": [],
      "name": "BURNER_ROLE",
      "outputs": [
        {
          "internalType": "bytes32",
          "name": "",
          "type": "bytes32"
        }
      ],
      "stateMutability": "view",
      "type": "function"
    },
    {
      "inputs": [],
      "name": "DEFAULT_ADMIN_ROLE",
      "outputs": [
        {
          "internalType": "bytes32",
          "name": "",
          "type": "bytes32"
        }
      ],
      "stateMutability": "view",
      "type": "function"
    },
    {
      "inputs": [],
      "name": "MINTER_ROLE",
      "outputs": [
        {
          "internalType": "bytes32",
          "name": "",
          "type": "bytes32"
        }
      ],
      "stateMutability": "view",
      "type": "function"
    },
    {
      "inputs": [],
      "name": "TOKEN_0",
      "outputs": [
        {
          "internalType": "uint256",
          "name": "",
          "type": "uint256"
        }
      ],
      "stateMutability": "view",
      "type": "function"
    },
    {
      "inputs": [],
      "name": "TOKEN_1",
      "outputs": [
        {
          "internalType": "uint256",
          "name": "",
          "type": "uint256"
        }
      ],
      "stateMutability": "view",
      "type": "function"
    },
    {
      "inputs": [],
      "name": "TOKEN_2",
      "outputs": [
        {
          "internalType": "uint256",
          "name": "",
          "type": "uint256"
        }
      ],
      "stateMutability": "view",
      "type": "function"
    },
    {
      "inputs": [],
      "name": "TOKEN_3",
      "outputs": [
        {
          "internalType": "uint256",
          "name": "",
          "type": "uint256"
        }
      ],
      "stateMutability": "view",
      "type": "function"
    },
    {
      "inputs": [],
      "name": "TOKEN_4",
      "outputs": [
        {
          "internalType": "uint256",
          "name": "",
          "type": "uint256"
        }
      ],
      "stateMutability": "view",
      "type": "function"
    },
    {
      "inputs": [],
      "name": "TOKEN_5",
      "outputs": [
        {
          "internalType": "uint256",
          "name": "",
          "type": "uint256"
        }
      ],
      "stateMutability": "view",
      "type": "function"
    },
    {
      "inputs": [],
      "name": "TOKEN_6",
      "outputs": [
        {
          "internalType": "uint256",
          "name": "",
          "type": "uint256"
        }
      ],
      "stateMutability": "view",
      "type": "function"
    },
    {
      "inputs": [
        {
          "internalType": "address",
          "name": "account",
          "type": "address"
        }
      ],
      "name": "assignBurnerRole",
      "outputs": [],
      "stateMutability": "nonpayable",
      "type": "function"
    },
    {
      "inputs": [
        {
          "internalType": "address",
          "name": "account",
          "type": "address"
        }
      ],
      "name": "assignMinterRole",
      "outputs": [],
      "stateMutability": "nonpayable",
      "type": "function"
    },
    {
      "inputs": [
        {
          "internalType": "address",
          "name": "account",
          "type": "address"
        },
        {
          "internalType": "uint256",
          "name": "id",
          "type": "uint256"
        }
      ],
      "name": "balanceOf",
      "outputs": [
        {
          "internalType": "uint256",
          "name": "",
          "type": "uint256"
        }
      ],
      "stateMutability": "view",
      "type": "function"
    },
    {
      "inputs": [
        {
          "internalType": "address[]",
          "name": "accounts",
          "type": "address[]"
        },
        {
          "internalType": "uint256[]",
          "name": "ids",
          "type": "uint256[]"
        }
      ],
      "name": "balanceOfBatch",
      "outputs": [
        {
          "internalType": "uint256[]",
          "name": "",
          "type": "uint256[]"
        }
      ],
      "stateMutability": "view",
      "type": "function"
    },
    {
      "inputs": [],
      "name": "baseUri",
      "outputs": [
        {
          "internalType": "string",
          "name": "",
          "type": "string"
        }
      ],
      "stateMutability": "view",
      "type": "function"
    },
    {
      "inputs": [],
      "name": "cooldown",
      "outputs": [
        {
          "internalType": "uint256",
          "name": "",
          "type": "uint256"
        }
      ],
      "stateMutability": "view",
      "type": "function"
    },
    {
      "inputs": [
        {
          "internalType": "address",
          "name": "from",
          "type": "address"
        },
        {
          "internalType": "uint256",
          "name": "tokenId",
          "type": "uint256"
        },
        {
          "internalType": "uint256",
          "name": "amount",
          "type": "uint256"
        }
      ],
      "name": "forgeBurn",
      "outputs": [],
      "stateMutability": "nonpayable",
      "type": "function"
    },
    {
      "inputs": [
        {
          "internalType": "address",
          "name": "to",
          "type": "address"
        },
        {
          "internalType": "uint256",
          "name": "tokenId",
          "type": "uint256"
        },
        {
          "internalType": "uint256",
          "name": "amount",
          "type": "uint256"
        }
      ],
      "name": "forgeMint",
      "outputs": [],
      "stateMutability": "nonpayable",
      "type": "function"
    },
    {
      "inputs": [
        {
          "internalType": "bytes32",
          "name": "role",
          "type": "bytes32"
        }
      ],
      "name": "getRoleAdmin",
      "outputs": [
        {
          "internalType": "bytes32",
          "name": "",
          "type": "bytes32"
        }
      ],
      "stateMutability": "view",
      "type": "function"
    },
    {
      "inputs": [
        {
          "internalType": "bytes32",
          "name": "role",
          "type": "bytes32"
        },
        {
          "internalType": "address",
          "name": "account",
          "type": "address"
        }
      ],
      "name": "grantRole",
      "outputs": [],
      "stateMutability": "nonpayable",
      "type": "function"
    },
    {
      "inputs": [
        {
          "internalType": "bytes32",
          "name": "role",
          "type": "bytes32"
        },
        {
          "internalType": "address",
          "name": "account",
          "type": "address"
        }
      ],
      "name": "hasRole",
      "outputs": [
        {
          "internalType": "bool",
          "name": "",
          "type": "bool"
        }
      ],
      "stateMutability": "view",
      "type": "function"
    },
    {
      "inputs": [
        {
          "internalType": "address",
          "name": "account",
          "type": "address"
        },
        {
          "internalType": "address",
          "name": "operator",
          "type": "address"
        }
      ],
      "name": "isApprovedForAll",
      "outputs": [
        {
          "internalType": "bool",
          "name": "",
          "type": "bool"
        }
      ],
      "stateMutability": "view",
      "type": "function"
    },
    {
      "inputs": [
        {
          "internalType": "address",
          "name": "",
          "type": "address"
        }
      ],
      "name": "lastMinted",
      "outputs": [
        {
          "internalType": "uint256",
          "name": "",
          "type": "uint256"
        }
      ],
      "stateMutability": "view",
      "type": "function"
    },
    {
      "inputs": [
        {
          "internalType": "uint256",
          "name": "tokenId",
          "type": "uint256"
        },
        {
          "internalType": "uint256",
          "name": "amount",
          "type": "uint256"
        }
      ],
      "name": "mint",
      "outputs": [],
      "stateMutability": "nonpayable",
      "type": "function"
    },
    {
      "inputs": [
        {
          "internalType": "bytes32",
          "name": "role",
          "type": "bytes32"
        },
        {
          "internalType": "address",
          "name": "callerConfirmation",
          "type": "address"
        }
      ],
      "name": "renounceRole",
      "outputs": [],
      "stateMutability": "nonpayable",
      "type": "function"
    },
    {
      "inputs": [
        {
          "internalType": "bytes32",
          "name": "role",
          "type": "bytes32"
        },
        {
          "internalType": "address",
          "name": "account",
          "type": "address"
        }
      ],
      "name": "revokeRole",
      "outputs": [],
      "stateMutability": "nonpayable",
      "type": "function"
    },
    {
      "inputs": [
        {
          "internalType": "address",
          "name": "from",
          "type": "address"
        },
        {
          "internalType": "address",
          "name": "to",
          "type": "address"
        },
        {
          "internalType": "uint256[]",
          "name": "ids",
          "type": "uint256[]"
        },
        {
          "internalType": "uint256[]",
          "name": "values",
          "type": "uint256[]"
        },
        {
          "internalType": "bytes",
          "name": "data",
          "type": "bytes"
        }
      ],
      "name": "safeBatchTransferFrom",
      "outputs": [],
      "stateMutability": "nonpayable",
      "type": "function"
    },
    {
      "inputs": [
        {
          "internalType": "address",
          "name": "from",
          "type": "address"
        },
        {
          "internalType": "address",
          "name": "to",
          "type": "address"
        },
        {
          "internalType": "uint256",
          "name": "id",
          "type": "uint256"
        },
        {
          "internalType": "uint256",
          "name": "value",
          "type": "uint256"
        },
        {
          "internalType": "bytes",
          "name": "data",
          "type": "bytes"
        }
      ],
      "name": "safeTransferFrom",
      "outputs": [],
      "stateMutability": "nonpayable",
      "type": "function"
    },
    {
      "inputs": [
        {
          "internalType": "address",
          "name": "operator",
          "type": "address"
        },
        {
          "internalType": "bool",
          "name": "approved",
          "type": "bool"
        }
      ],
      "name": "setApprovalForAll",
      "outputs": [],
      "stateMutability": "nonpayable",
      "type": "function"
    },
    {
      "inputs": [
        {
          "internalType": "bytes4",
          "name": "interfaceId",
          "type": "bytes4"
        }
      ],
      "name": "supportsInterface",
      "outputs": [
        {
          "internalType": "bool",
          "name": "",
          "type": "bool"
        }
      ],
      "stateMutability": "view",
      "type": "function"
    },
    {
      "inputs": [
        {
          "internalType": "uint256",
          "name": "tokenId",
          "type": "uint256"
        }
      ],
      "name": "uri",
      "outputs": [
        {
          "internalType": "string",
          "name": "",
          "type": "string"
        }
      ],
      "stateMutability": "view",
      "type": "function"
    }
  ],
  "bytecode": "0x6080604052603c6004556040518060400160405280601681526020017f68747470733a2f2f746f6b656e2e636f6d2f6170692f000000000000000000008152506005908161004d9190610468565b5034801561005a57600080fd5b506040518060200160405280600081525061007a8161009460201b60201c565b5061008e6000801b336100a760201b60201c565b5061053a565b80600290816100a39190610468565b5050565b60006100b983836101a560201b60201c565b61019a5760016003600085815260200190815260200160002060000160008473ffffffffffffffffffffffffffffffffffffffff1673ffffffffffffffffffffffffffffffffffffffff16815260200190815260200160002060006101000a81548160ff02191690831515021790555061013761021060201b60201c565b73ffffffffffffffffffffffffffffffffffffffff168273ffffffffffffffffffffffffffffffffffffffff16847f2f8788117e7eff1d82e926ec794901d17c78024a50270940304540a733656f0d60405160405180910390a46001905061019f565b600090505b92915050565b60006003600084815260200190815260200160002060000160008373ffffffffffffffffffffffffffffffffffffffff1673ffffffffffffffffffffffffffffffffffffffff16815260200190815260200160002060009054906101000a900460ff16905092915050565b600033905090565b600081519050919050565b7f4e487b7100000000000000000000000000000000000000000000000000000000600052604160045260246000fd5b7f4e487b7100000000000000000000000000000000000000000000000000000000600052602260045260246000fd5b6000600282049050600182168061029957607f821691505b6020821081036102ac576102ab610252565b5b50919050565b60008190508160005260206000209050919050565b60006020601f8301049050919050565b600082821b905092915050565b6000600883026103147fffffffffffffffffffffffffffffffffffffffffffffffffffffffffffffffff826102d7565b61031e86836102d7565b95508019841693508086168417925050509392505050565b6000819050919050565b6000819050919050565b600061036561036061035b84610336565b610340565b610336565b9050919050565b6000819050919050565b61037f8361034a565b61039361038b8261036c565b8484546102e4565b825550505050565b600090565b6103a861039b565b6103b3818484610376565b505050565b5b818110156103d7576103cc6000826103a0565b6001810190506103b9565b5050565b601f82111561041c576103ed816102b2565b6103f6846102c7565b81016020851015610405578190505b610419610411856102c7565b8301826103b8565b50505b505050565b600082821c905092915050565b600061043f60001984600802610421565b1980831691505092915050565b6000610458838361042e565b9150826002028217905092915050565b61047182610218565b67ffffffffffffffff81111561048a57610489610223565b5b6104948254610281565b61049f8282856103db565b600060209050601f8311600181146104d257600084156104c0578287015190505b6104ca858261044c565b865550610532565b601f1984166104e0866102b2565b60005b82811015610508578489015182556001820191506020850194506020810190506104e3565b868310156105255784890151610521601f89168261042e565b8355505b6001600288020188555050505b505050505050565b6132b6806105496000396000f3fe608060405234801561001057600080fd5b50600436106101e45760003560e01c8063787a08a61161010f578063b366d613116100a2578063e74d386211610071578063e74d38621461057f578063e985e9c51461059d578063eabe1ec2146105cd578063f242432a146105e9576101e4565b8063b366d6131461050b578063d539139314610527578063d547741f14610545578063d99939a214610561576101e4565b8063a217fddf116100de578063a217fddf14610497578063a22cb465146104b5578063a3cacc85146104d1578063aacf0862146104ef576101e4565b8063787a08a61461040d57806382c0fa301461042b57806391d14854146104495780639abc832014610479576101e4565b8063282c51f31161018757806336568abe1161015657806336568abe14610385578063453f6a32146103a15780634a3268e4146103bf5780634e1273f4146103dd576101e4565b8063282c51f3146102ff5780632e686d691461031d5780632eb2c2d61461034d5780632f2ff15d14610369576101e4565b80630e89341c116101c35780630e89341c146102675780631a54b5bb146102975780631b2ef1ca146102b3578063248a9ca3146102cf576101e4565b8062fdd58e146101e957806301ffc9a7146102195780630d9371ad14610249575b600080fd5b61020360048036038101906101fe91906122dd565b610605565b604051610210919061232c565b60405180910390f35b610233600480360381019061022e919061239f565b61065f565b60405161024091906123e7565b60405180910390f35b610251610671565b60405161025e919061232c565b60405180910390f35b610281600480360381019061027c9190612402565b610676565b60405161028e91906124bf565b60405180910390f35b6102b160048036038101906102ac91906124e1565b6106aa565b005b6102cd60048036038101906102c8919061250e565b6106e5565b005b6102e960048036038101906102e49190612584565b61086a565b6040516102f691906125c0565b60405180910390f35b61030761088a565b60405161031491906125c0565b60405180910390f35b610337600480360381019061033291906124e1565b6108ae565b604051610344919061232c565b60405180910390f35b610367600480360381019061036291906127d8565b6108c6565b005b610383600480360381019061037e91906128a7565b61096e565b005b61039f600480360381019061039a91906128a7565b610990565b005b6103a9610a0b565b6040516103b6919061232c565b60405180910390f35b6103c7610a10565b6040516103d4919061232c565b60405180910390f35b6103f760048036038101906103f291906129aa565b610a15565b6040516104049190612ae0565b60405180910390f35b610415610b1e565b604051610422919061232c565b60405180910390f35b610433610b24565b604051610440919061232c565b60405180910390f35b610463600480360381019061045e91906128a7565b610b29565b60405161047091906123e7565b60405180910390f35b610481610b94565b60405161048e91906124bf565b60405180910390f35b61049f610c22565b6040516104ac91906125c0565b60405180910390f35b6104cf60048036038101906104ca9190612b2e565b610c29565b005b6104d9610c3f565b6040516104e6919061232c565b60405180910390f35b61050960048036038101906105049190612b6e565b610c44565b005b610525600480360381019061052091906124e1565b610cde565b005b61052f610d19565b60405161053c91906125c0565b60405180910390f35b61055f600480360381019061055a91906128a7565b610d3d565b005b610569610d5f565b604051610576919061232c565b60405180910390f35b610587610d64565b604051610594919061232c565b60405180910390f35b6105b760048036038101906105b29190612bc1565b610d69565b6040516105c491906123e7565b60405180910390f35b6105e760048036038101906105e29190612b6e565b610dfd565b005b61060360048036038101906105fe9190612c01565b610e87565b005b600080600083815260200190815260200160002060008473ffffffffffffffffffffffffffffffffffffffff1673ffffffffffffffffffffffffffffffffffffffff16815260200190815260200160002054905092915050565b600061066a82610f2f565b9050919050565b600481565b6060600561068383610fa9565b604051602001610694929190612e18565b6040516020818303038152906040529050919050565b6000801b6106b781611077565b6106e17f3c11d16cbaffd01df69ce1c404f6340ee057498f5f00246190ea54220576a8488361096e565b5050565b6002821115610729576040517f08c379a000000000000000000000000000000000000000000000000000000000815260040161072090612e93565b60405180910390fd5b600454600660003373ffffffffffffffffffffffffffffffffffffffff1673ffffffffffffffffffffffffffffffffffffffff168152602001908152602001600020546107769190612ee2565b4210156107b8576040517f08c379a00000000000000000000000000000000000000000000000000000000081526004016107af90612f88565b60405180910390fd5b42600660003373ffffffffffffffffffffffffffffffffffffffff1673ffffffffffffffffffffffffffffffffffffffff168152602001908152602001600020819055506108173383836040518060200160405280600081525061108b565b813373ffffffffffffffffffffffffffffffffffffffff167f25b428dfde728ccfaddad7e29e4ac23c24ed7fd1a6e3e3f91894a9a073f5dfff8360405161085e919061232c565b60405180910390a35050565b600060036000838152602001908152602001600020600101549050919050565b7f3c11d16cbaffd01df69ce1c404f6340ee057498f5f00246190ea54220576a84881565b60066020528060005260406000206000915090505481565b60006108d0611124565b90508073ffffffffffffffffffffffffffffffffffffffff168673ffffffffffffffffffffffffffffffffffffffff161415801561091557506109138682610d69565b155b156109595780866040517fe237d922000000000000000000000000000000000000000000000000000000008152600401610950929190612fb7565b60405180910390fd5b610966868686868661112c565b505050505050565b6109778261086a565b61098081611077565b61098a8383611224565b50505050565b610998611124565b73ffffffffffffffffffffffffffffffffffffffff168173ffffffffffffffffffffffffffffffffffffffff16146109fc576040517f6697b23200000000000000000000000000000000000000000000000000000000815260040160405180910390fd5b610a068282611316565b505050565b600381565b600181565b60608151835114610a6157815183516040517f5b059991000000000000000000000000000000000000000000000000000000008152600401610a58929190612fe0565b60405180910390fd5b6000835167ffffffffffffffff811115610a7e57610a7d6125e0565b5b604051908082528060200260200182016040528015610aac5781602001602082028036833780820191505090505b50905060005b8451811015610b1357610ae9610ad1828761140990919063ffffffff16565b610ae4838761141d90919063ffffffff16565b610605565b828281518110610afc57610afb613009565b5b602002602001018181525050806001019050610ab2565b508091505092915050565b60045481565b600281565b60006003600084815260200190815260200160002060000160008373ffffffffffffffffffffffffffffffffffffffff1673ffffffffffffffffffffffffffffffffffffffff16815260200190815260200160002060009054906101000a900460ff16905092915050565b60058054610ba190612cc7565b80601f0160208091040260200160405190810160405280929190818152602001828054610bcd90612cc7565b8015610c1a5780601f10610bef57610100808354040283529160200191610c1a565b820191906000526020600020905b815481529060010190602001808311610bfd57829003601f168201915b505050505081565b6000801b81565b610c3b610c34611124565b8383611431565b5050565b600681565b7f9f2df0fed2c77648de5860a4cc508cd0818c85b8b8a1ab4ceeef8d981c8956a6610c6e81611077565b610c898484846040518060200160405280600081525061108b565b828473ffffffffffffffffffffffffffffffffffffffff167f25b428dfde728ccfaddad7e29e4ac23c24ed7fd1a6e3e3f91894a9a073f5dfff84604051610cd0919061232c565b60405180910390a350505050565b6000801b610ceb81611077565b610d157f9f2df0fed2c77648de5860a4cc508cd0818c85b8b8a1ab4ceeef8d981c8956a68361096e565b5050565b7f9f2df0fed2c77648de5860a4cc508cd0818c85b8b8a1ab4ceeef8d981c8956a681565b610d468261086a565b610d4f81611077565b610d598383611316565b50505050565b600081565b600581565b6000600160008473ffffffffffffffffffffffffffffffffffffffff1673ffffffffffffffffffffffffffffffffffffffff16815260200190815260200160002060008373ffffffffffffffffffffffffffffffffffffffff1673ffffffffffffffffffffffffffffffffffffffff16815260200190815260200160002060009054906101000a900460ff16905092915050565b7f3c11d16cbaffd01df69ce1c404f6340ee057498f5f00246190ea54220576a848610e2781611077565b610e328484846115a1565b828473ffffffffffffffffffffffffffffffffffffffff167f23ff0e75edf108e3d0392d92e13e8c8a868ef19001bd49f9e94876dc46dff87f84604051610e79919061232c565b60405180910390a350505050565b6000610e91611124565b90508073ffffffffffffffffffffffffffffffffffffffff168673ffffffffffffffffffffffffffffffffffffffff1614158015610ed65750610ed48682610d69565b155b15610f1a5780866040517fe237d922000000000000000000000000000000000000000000000000000000008152600401610f11929190612fb7565b60405180910390fd5b610f278686868686611648565b505050505050565b60007f7965db0b000000000000000000000000000000000000000000000000000000007bffffffffffffffffffffffffffffffffffffffffffffffffffffffff1916827bffffffffffffffffffffffffffffffffffffffffffffffffffffffff19161480610fa25750610fa182611753565b5b9050919050565b606060006001610fb884611835565b01905060008167ffffffffffffffff811115610fd757610fd66125e0565b5b6040519080825280601f01601f1916602001820160405280156110095781602001600182028036833780820191505090505b509050600082602001820190505b60011561106c578080600190039150507f3031323334353637383961626364656600000000000000000000000000000000600a86061a8153600a85816110605761105f613038565b5b04945060008503611017575b819350505050919050565b61108881611083611124565b611988565b50565b600073ffffffffffffffffffffffffffffffffffffffff168473ffffffffffffffffffffffffffffffffffffffff16036110fd5760006040517f57f447ce0000000000000000000000000000000000000000000000000000000081526004016110f49190613067565b60405180910390fd5b60008061110a85856119d9565b9150915061111c600087848487611a09565b505050505050565b600033905090565b600073ffffffffffffffffffffffffffffffffffffffff168473ffffffffffffffffffffffffffffffffffffffff160361119e5760006040517f57f447ce0000000000000000000000000000000000000000000000000000000081526004016111959190613067565b60405180910390fd5b600073ffffffffffffffffffffffffffffffffffffffff168573ffffffffffffffffffffffffffffffffffffffff16036112105760006040517f01a835140000000000000000000000000000000000000000000000000000000081526004016112079190613067565b60405180910390fd5b61121d8585858585611a09565b5050505050565b60006112308383610b29565b61130b5760016003600085815260200190815260200160002060000160008473ffffffffffffffffffffffffffffffffffffffff1673ffffffffffffffffffffffffffffffffffffffff16815260200190815260200160002060006101000a81548160ff0219169083151502179055506112a8611124565b73ffffffffffffffffffffffffffffffffffffffff168273ffffffffffffffffffffffffffffffffffffffff16847f2f8788117e7eff1d82e926ec794901d17c78024a50270940304540a733656f0d60405160405180910390a460019050611310565b600090505b92915050565b60006113228383610b29565b156113fe5760006003600085815260200190815260200160002060000160008473ffffffffffffffffffffffffffffffffffffffff1673ffffffffffffffffffffffffffffffffffffffff16815260200190815260200160002060006101000a81548160ff02191690831515021790555061139b611124565b73ffffffffffffffffffffffffffffffffffffffff168273ffffffffffffffffffffffffffffffffffffffff16847ff6391f5c32d9c69d2a47ea670b442974b53935d1edc7fd64eb21e047a839171b60405160405180910390a460019050611403565b600090505b92915050565b600060208202602084010151905092915050565b600060208202602084010151905092915050565b600073ffffffffffffffffffffffffffffffffffffffff168273ffffffffffffffffffffffffffffffffffffffff16036114a35760006040517fced3e10000000000000000000000000000000000000000000000000000000000815260040161149a9190613067565b60405180910390fd5b80600160008573ffffffffffffffffffffffffffffffffffffffff1673ffffffffffffffffffffffffffffffffffffffff16815260200190815260200160002060008473ffffffffffffffffffffffffffffffffffffffff1673ffffffffffffffffffffffffffffffffffffffff16815260200190815260200160002060006101000a81548160ff0219169083151502179055508173ffffffffffffffffffffffffffffffffffffffff168373ffffffffffffffffffffffffffffffffffffffff167f17307eab39ab6107e8899845ad3d59bd9653f200f220920489ca2b5937696c318360405161159491906123e7565b60405180910390a3505050565b600073ffffffffffffffffffffffffffffffffffffffff168373ffffffffffffffffffffffffffffffffffffffff16036116135760006040517f01a8351400000000000000000000000000000000000000000000000000000000815260040161160a9190613067565b60405180910390fd5b60008061162084846119d9565b91509150611641856000848460405180602001604052806000815250611a09565b5050505050565b600073ffffffffffffffffffffffffffffffffffffffff168473ffffffffffffffffffffffffffffffffffffffff16036116ba5760006040517f57f447ce0000000000000000000000000000000000000000000000000000000081526004016116b19190613067565b60405180910390fd5b600073ffffffffffffffffffffffffffffffffffffffff168573ffffffffffffffffffffffffffffffffffffffff160361172c5760006040517f01a835140000000000000000000000000000000000000000000000000000000081526004016117239190613067565b60405180910390fd5b60008061173985856119d9565b9150915061174a8787848487611a09565b50505050505050565b60007fd9b67a26000000000000000000000000000000000000000000000000000000007bffffffffffffffffffffffffffffffffffffffffffffffffffffffff1916827bffffffffffffffffffffffffffffffffffffffffffffffffffffffff1916148061181e57507f0e89341c000000000000000000000000000000000000000000000000000000007bffffffffffffffffffffffffffffffffffffffffffffffffffffffff1916827bffffffffffffffffffffffffffffffffffffffffffffffffffffffff1916145b8061182e575061182d82611abb565b5b9050919050565b600080600090507a184f03e93ff9f4daa797ed6e38ed64bf6a1f0100000000000000008310611893577a184f03e93ff9f4daa797ed6e38ed64bf6a1f010000000000000000838161188957611888613038565b5b0492506040810190505b6d04ee2d6d415b85acef810000000083106118d0576d04ee2d6d415b85acef810000000083816118c6576118c5613038565b5b0492506020810190505b662386f26fc1000083106118ff57662386f26fc1000083816118f5576118f4613038565b5b0492506010810190505b6305f5e1008310611928576305f5e100838161191e5761191d613038565b5b0492506008810190505b612710831061194d57612710838161194357611942613038565b5b0492506004810190505b60648310611970576064838161196657611965613038565b5b0492506002810190505b600a831061197f576001810190505b80915050919050565b6119928282610b29565b6119d55780826040517fe2517d3f0000000000000000000000000000000000000000000000000000000081526004016119cc929190613082565b60405180910390fd5b5050565b60608060405191506001825283602083015260408201905060018152826020820152604081016040529250929050565b611a1585858585611b25565b600073ffffffffffffffffffffffffffffffffffffffff168473ffffffffffffffffffffffffffffffffffffffff1614611ab4576000611a53611124565b90506001845103611aa3576000611a7460008661141d90919063ffffffff16565b90506000611a8c60008661141d90919063ffffffff16565b9050611a9c838989858589611ecd565b5050611ab2565b611ab1818787878787612081565b5b505b5050505050565b60007f01ffc9a7000000000000000000000000000000000000000000000000000000007bffffffffffffffffffffffffffffffffffffffffffffffffffffffff1916827bffffffffffffffffffffffffffffffffffffffffffffffffffffffff1916149050919050565b8051825114611b6f57815181516040517f5b059991000000000000000000000000000000000000000000000000000000008152600401611b66929190612fe0565b60405180910390fd5b6000611b79611124565b905060005b8351811015611d88576000611b9c828661141d90919063ffffffff16565b90506000611bb3838661141d90919063ffffffff16565b9050600073ffffffffffffffffffffffffffffffffffffffff168873ffffffffffffffffffffffffffffffffffffffff1614611ce057600080600084815260200190815260200160002060008a73ffffffffffffffffffffffffffffffffffffffff1673ffffffffffffffffffffffffffffffffffffffff16815260200190815260200160002054905081811015611c8857888183856040517f03dee4c5000000000000000000000000000000000000000000000000000000008152600401611c7f94939291906130ab565b60405180910390fd5b81810360008085815260200190815260200160002060008b73ffffffffffffffffffffffffffffffffffffffff1673ffffffffffffffffffffffffffffffffffffffff16815260200190815260200160002081905550505b600073ffffffffffffffffffffffffffffffffffffffff168773ffffffffffffffffffffffffffffffffffffffff1614611d7b578060008084815260200190815260200160002060008973ffffffffffffffffffffffffffffffffffffffff1673ffffffffffffffffffffffffffffffffffffffff1681526020019081526020016000206000828254611d739190612ee2565b925050819055505b5050806001019050611b7e565b506001835103611e47576000611da860008561141d90919063ffffffff16565b90506000611dc060008561141d90919063ffffffff16565b90508573ffffffffffffffffffffffffffffffffffffffff168773ffffffffffffffffffffffffffffffffffffffff168473ffffffffffffffffffffffffffffffffffffffff167fc3d58168c5ae7397731d063d5bbf3d657854427343f4c083240f7aacaa2d0f628585604051611e38929190612fe0565b60405180910390a45050611ec6565b8373ffffffffffffffffffffffffffffffffffffffff168573ffffffffffffffffffffffffffffffffffffffff168273ffffffffffffffffffffffffffffffffffffffff167f4a39dc06d4c0dbc64b70af90fd698a233a518aa5d07e595d983b8c0526c8f7fb8686604051611ebd9291906130f0565b60405180910390a45b5050505050565b60008473ffffffffffffffffffffffffffffffffffffffff163b1115612079578373ffffffffffffffffffffffffffffffffffffffff1663f23a6e6187878686866040518663ffffffff1660e01b8152600401611f2e95949392919061317c565b6020604051808303816000875af1925050508015611f6a57506040513d601f19601f82011682018060405250810190611f6791906131eb565b60015b611fee573d8060008114611f9a576040519150601f19603f3d011682016040523d82523d6000602084013e611f9f565b606091505b506000815103611fe657846040517f57f447ce000000000000000000000000000000000000000000000000000000008152600401611fdd9190613067565b60405180910390fd5b805181602001fd5b63f23a6e6160e01b7bffffffffffffffffffffffffffffffffffffffffffffffffffffffff1916817bffffffffffffffffffffffffffffffffffffffffffffffffffffffff19161461207757846040517f57f447ce00000000000000000000000000000000000000000000000000000000815260040161206e9190613067565b60405180910390fd5b505b505050505050565b60008473ffffffffffffffffffffffffffffffffffffffff163b111561222d578373ffffffffffffffffffffffffffffffffffffffff1663bc197c8187878686866040518663ffffffff1660e01b81526004016120e2959493929190613218565b6020604051808303816000875af192505050801561211e57506040513d601f19601f8201168201806040525081019061211b91906131eb565b60015b6121a2573d806000811461214e576040519150601f19603f3d011682016040523d82523d6000602084013e612153565b606091505b50600081510361219a57846040517f57f447ce0000000000000000000000000000000000000000000000000000000081526004016121919190613067565b60405180910390fd5b805181602001fd5b63bc197c8160e01b7bffffffffffffffffffffffffffffffffffffffffffffffffffffffff1916817bffffffffffffffffffffffffffffffffffffffffffffffffffffffff19161461222b57846040517f57f447ce0000000000000000000000000000000000000000000000000000000081526004016122229190613067565b60405180910390fd5b505b505050505050565b6000604051905090565b600080fd5b600080fd5b600073ffffffffffffffffffffffffffffffffffffffff82169050919050565b600061227482612249565b9050919050565b61228481612269565b811461228f57600080fd5b50565b6000813590506122a18161227b565b92915050565b6000819050919050565b6122ba816122a7565b81146122c557600080fd5b50565b6000813590506122d7816122b1565b92915050565b600080604083850312156122f4576122f361223f565b5b600061230285828601612292565b9250506020612313858286016122c8565b9150509250929050565b612326816122a7565b82525050565b6000602082019050612341600083018461231d565b92915050565b60007fffffffff0000000000000000000000000000000000000000000000000000000082169050919050565b61237c81612347565b811461238757600080fd5b50565b60008135905061239981612373565b92915050565b6000602082840312156123b5576123b461223f565b5b60006123c38482850161238a565b91505092915050565b60008115159050919050565b6123e1816123cc565b82525050565b60006020820190506123fc60008301846123d8565b92915050565b6000602082840312156124185761241761223f565b5b6000612426848285016122c8565b91505092915050565b600081519050919050565b600082825260208201905092915050565b60005b8381101561246957808201518184015260208101905061244e565b60008484015250505050565b6000601f19601f8301169050919050565b60006124918261242f565b61249b818561243a565b93506124ab81856020860161244b565b6124b481612475565b840191505092915050565b600060208201905081810360008301526124d98184612486565b905092915050565b6000602082840312156124f7576124f661223f565b5b600061250584828501612292565b91505092915050565b600080604083850312156125255761252461223f565b5b6000612533858286016122c8565b9250506020612544858286016122c8565b9150509250929050565b6000819050919050565b6125618161254e565b811461256c57600080fd5b50565b60008135905061257e81612558565b92915050565b60006020828403121561259a5761259961223f565b5b60006125a88482850161256f565b91505092915050565b6125ba8161254e565b82525050565b60006020820190506125d560008301846125b1565b92915050565b600080fd5b7f4e487b7100000000000000000000000000000000000000000000000000000000600052604160045260246000fd5b61261882612475565b810181811067ffffffffffffffff82111715612637576126366125e0565b5b80604052505050565b600061264a612235565b9050612656828261260f565b919050565b600067ffffffffffffffff821115612676576126756125e0565b5b602082029050602081019050919050565b600080fd5b600061269f61269a8461265b565b612640565b905080838252602082019050602084028301858111156126c2576126c1612687565b5b835b818110156126eb57806126d788826122c8565b8452602084019350506020810190506126c4565b5050509392505050565b600082601f83011261270a576127096125db565b5b813561271a84826020860161268c565b91505092915050565b600080fd5b600067ffffffffffffffff821115612743576127426125e0565b5b61274c82612475565b9050602081019050919050565b82818337600083830152505050565b600061277b61277684612728565b612640565b90508281526020810184848401111561279757612796612723565b5b6127a2848285612759565b509392505050565b600082601f8301126127bf576127be6125db565b5b81356127cf848260208601612768565b91505092915050565b600080600080600060a086880312156127f4576127f361223f565b5b600061280288828901612292565b955050602061281388828901612292565b945050604086013567ffffffffffffffff81111561283457612833612244565b5b612840888289016126f5565b935050606086013567ffffffffffffffff81111561286157612860612244565b5b61286d888289016126f5565b925050608086013567ffffffffffffffff81111561288e5761288d612244565b5b61289a888289016127aa565b9150509295509295909350565b600080604083850312156128be576128bd61223f565b5b60006128cc8582860161256f565b92505060206128dd85828601612292565b9150509250929050565b600067ffffffffffffffff821115612902576129016125e0565b5b602082029050602081019050919050565b6000612926612921846128e7565b612640565b9050808382526020820190506020840283018581111561294957612948612687565b5b835b81811015612972578061295e8882612292565b84526020840193505060208101905061294b565b5050509392505050565b600082601f830112612991576129906125db565b5b81356129a1848260208601612913565b91505092915050565b600080604083850312156129c1576129c061223f565b5b600083013567ffffffffffffffff8111156129df576129de612244565b5b6129eb8582860161297c565b925050602083013567ffffffffffffffff811115612a0c57612a0b612244565b5b612a18858286016126f5565b9150509250929050565b600081519050919050565b600082825260208201905092915050565b6000819050602082019050919050565b612a57816122a7565b82525050565b6000612a698383612a4e565b60208301905092915050565b6000602082019050919050565b6000612a8d82612a22565b612a978185612a2d565b9350612aa283612a3e565b8060005b83811015612ad3578151612aba8882612a5d565b9750612ac583612a75565b925050600181019050612aa6565b5085935050505092915050565b60006020820190508181036000830152612afa8184612a82565b905092915050565b612b0b816123cc565b8114612b1657600080fd5b50565b600081359050612b2881612b02565b92915050565b60008060408385031215612b4557612b4461223f565b5b6000612b5385828601612292565b9250506020612b6485828601612b19565b9150509250929050565b600080600060608486031215612b8757612b8661223f565b5b6000612b9586828701612292565b9350506020612ba6868287016122c8565b9250506040612bb7868287016122c8565b9150509250925092565b60008060408385031215612bd857612bd761223f565b5b6000612be685828601612292565b9250506020612bf785828601612292565b9150509250929050565b600080600080600060a08688031215612c1d57612c1c61223f565b5b6000612c2b88828901612292565b9550506020612c3c88828901612292565b9450506040612c4d888289016122c8565b9350506060612c5e888289016122c8565b925050608086013567ffffffffffffffff811115612c7f57612c7e612244565b5b612c8b888289016127aa565b9150509295509295909350565b7f4e487b7100000000000000000000000000000000000000000000000000000000600052602260045260246000fd5b60006002820490506001821680612cdf57607f821691505b602082108103612cf257612cf1612c98565b5b50919050565b600081905092915050565b60008190508160005260206000209050919050565b60008154612d2581612cc7565b612d2f8186612cf8565b94506001821660008114612d4a5760018114612d5f57612d92565b60ff1983168652811515820286019350612d92565b612d6885612d03565b60005b83811015612d8a57815481890152600182019150602081019050612d6b565b838801955050505b50505092915050565b6000612da68261242f565b612db08185612cf8565b9350612dc081856020860161244b565b80840191505092915050565b7f2e6a736f6e000000000000000000000000000000000000000000000000000000600082015250565b6000612e02600583612cf8565b9150612e0d82612dcc565b600582019050919050565b6000612e248285612d18565b9150612e308284612d9b565b9150612e3b82612df5565b91508190509392505050565b7f4f6e6c7920746f6b656e7320302d322063616e206265206d696e7465642e0000600082015250565b6000612e7d601e8361243a565b9150612e8882612e47565b602082019050919050565b60006020820190508181036000830152612eac81612e70565b9050919050565b7f4e487b7100000000000000000000000000000000000000000000000000000000600052601160045260246000fd5b6000612eed826122a7565b9150612ef8836122a7565b9250828201905080821115612f1057612f0f612eb3565b5b92915050565b7f4d696e7420636f6f6c646f776e206f662031206d696e757465206d757374206260008201527f65206d65742e0000000000000000000000000000000000000000000000000000602082015250565b6000612f7260268361243a565b9150612f7d82612f16565b604082019050919050565b60006020820190508181036000830152612fa181612f65565b9050919050565b612fb181612269565b82525050565b6000604082019050612fcc6000830185612fa8565b612fd96020830184612fa8565b9392505050565b6000604082019050612ff5600083018561231d565b613002602083018461231d565b9392505050565b7f4e487b7100000000000000000000000000000000000000000000000000000000600052603260045260246000fd5b7f4e487b7100000000000000000000000000000000000000000000000000000000600052601260045260246000fd5b600060208201905061307c6000830184612fa8565b92915050565b60006040820190506130976000830185612fa8565b6130a460208301846125b1565b9392505050565b60006080820190506130c06000830187612fa8565b6130cd602083018661231d565b6130da604083018561231d565b6130e7606083018461231d565b95945050505050565b6000604082019050818103600083015261310a8185612a82565b9050818103602083015261311e8184612a82565b90509392505050565b600081519050919050565b600082825260208201905092915050565b600061314e82613127565b6131588185613132565b935061316881856020860161244b565b61317181612475565b840191505092915050565b600060a0820190506131916000830188612fa8565b61319e6020830187612fa8565b6131ab604083018661231d565b6131b8606083018561231d565b81810360808301526131ca8184613143565b90509695505050505050565b6000815190506131e581612373565b92915050565b6000602082840312156132015761320061223f565b5b600061320f848285016131d6565b91505092915050565b600060a08201905061322d6000830188612fa8565b61323a6020830187612fa8565b818103604083015261324c8186612a82565b905081810360608301526132608185612a82565b905081810360808301526132748184613143565b9050969550505050505056fea26469706673582212208f18b1b2bd4fed30464bee8b275cafdcf769be09bdedd8f16b389809c880008564736f6c634300081c0033",
  "linkReferences": {},
  "deployedLinkReferences": {}
}