{
  "_format": "hh-sol-artifact-1",
  "contractName": "CollateralManager",
  "sourceName": "contracts/CollateralManager.sol",
  "abi": [
    {
      "inputs": [
        {
          "internalType": "address",
          "name": "_initialOwner",
          "type": "address"
        },
        {
          "internalType": "address",
          "name": "_priceFeedAddress",
          "type": "address"
        },
        {
          "internalType": "address",
          "name": "_luminaCoinAddress",
          "type": "address"
        }
      ],
      "stateMutability": "nonpayable",
      "type": "constructor"
    },
    {
      "inputs": [],
      "name": "AmountMustBeGreaterThanZero",
      "type": "error"
    },
    {
      "inputs": [],
      "name": "HealthFactorOk",
      "type": "error"
    },
    {
      "inputs": [],
      "name": "InsufficientCollateral",
      "type": "error"
    },
    {
      "inputs": [],
      "name": "InvalidAddress",
      "type": "error"
    },
    {
      "inputs": [],
      "name": "LiquidationNotImplemented",
      "type": "error"
    },
    {
      "inputs": [],
      "name": "LuminaCoinNotSet",
      "type": "error"
    },
    {
      "inputs": [],
      "name": "NoDebtExists",
      "type": "error"
    },
    {
      "inputs": [
        {
          "internalType": "address",
          "name": "owner",
          "type": "address"
        }
      ],
      "name": "OwnableInvalidOwner",
      "type": "error"
    },
    {
      "inputs": [
        {
          "internalType": "address",
          "name": "account",
          "type": "address"
        }
      ],
      "name": "OwnableUnauthorizedAccount",
      "type": "error"
    },
    {
      "inputs": [],
      "name": "PriceFeedInvalid",
      "type": "error"
    },
    {
      "inputs": [],
      "name": "PriceFeedNotSet",
      "type": "error"
    },
    {
      "inputs": [],
      "name": "ReentrancyGuardReentrantCall",
      "type": "error"
    },
    {
      "inputs": [],
      "name": "RepaymentExceedsDebt",
      "type": "error"
    },
    {
      "inputs": [],
      "name": "TransferFailed",
      "type": "error"
    },
    {
      "anonymous": false,
      "inputs": [
        {
          "indexed": true,
          "internalType": "address",
          "name": "user",
          "type": "address"
        },
        {
          "indexed": false,
          "internalType": "uint256",
          "name": "amount",
          "type": "uint256"
        }
      ],
      "name": "CollateralDeposited",
      "type": "event"
    },
    {
      "anonymous": false,
      "inputs": [
        {
          "indexed": true,
          "internalType": "address",
          "name": "user",
          "type": "address"
        },
        {
          "indexed": false,
          "internalType": "uint256",
          "name": "amount",
          "type": "uint256"
        }
      ],
      "name": "CollateralWithdrawn",
      "type": "event"
    },
    {
      "anonymous": false,
      "inputs": [
        {
          "indexed": true,
          "internalType": "address",
          "name": "user",
          "type": "address"
        },
        {
          "indexed": false,
          "internalType": "uint256",
          "name": "amount",
          "type": "uint256"
        }
      ],
      "name": "LoanBorrowed",
      "type": "event"
    },
    {
      "anonymous": false,
      "inputs": [
        {
          "indexed": true,
          "internalType": "address",
          "name": "user",
          "type": "address"
        },
        {
          "indexed": false,
          "internalType": "uint256",
          "name": "amount",
          "type": "uint256"
        }
      ],
      "name": "LoanRepaid",
      "type": "event"
    },
    {
      "anonymous": false,
      "inputs": [
        {
          "indexed": true,
          "internalType": "address",
          "name": "tokenAddress",
          "type": "address"
        }
      ],
      "name": "LuminaCoinSet",
      "type": "event"
    },
    {
      "anonymous": false,
      "inputs": [
        {
          "indexed": true,
          "internalType": "address",
          "name": "previousOwner",
          "type": "address"
        },
        {
          "indexed": true,
          "internalType": "address",
          "name": "newOwner",
          "type": "address"
        }
      ],
      "name": "OwnershipTransferred",
      "type": "event"
    },
    {
      "anonymous": false,
      "inputs": [
        {
          "indexed": true,
          "internalType": "address",
          "name": "user",
          "type": "address"
        },
        {
          "indexed": true,
          "internalType": "address",
          "name": "liquidator",
          "type": "address"
        },
        {
          "indexed": false,
          "internalType": "uint256",
          "name": "collateralLiquidated",
          "type": "uint256"
        },
        {
          "indexed": false,
          "internalType": "uint256",
          "name": "debtRepaid",
          "type": "uint256"
        }
      ],
      "name": "PositionLiquidated",
      "type": "event"
    },
    {
      "anonymous": false,
      "inputs": [
        {
          "indexed": true,
          "internalType": "address",
          "name": "feedAddress",
          "type": "address"
        }
      ],
      "name": "PriceFeedSet",
      "type": "event"
    },
    {
      "inputs": [],
      "name": "LIQUIDATION_BONUS_PERCENT",
      "outputs": [
        {
          "internalType": "uint256",
          "name": "",
          "type": "uint256"
        }
      ],
      "stateMutability": "view",
      "type": "function"
    },
    {
      "inputs": [],
      "name": "LIQUIDATION_THRESHOLD_PERCENT",
      "outputs": [
        {
          "internalType": "uint256",
          "name": "",
          "type": "uint256"
        }
      ],
      "stateMutability": "view",
      "type": "function"
    },
    {
      "inputs": [],
      "name": "LTV_RATIO_PERCENT",
      "outputs": [
        {
          "internalType": "uint256",
          "name": "",
          "type": "uint256"
        }
      ],
      "stateMutability": "view",
      "type": "function"
    },
    {
      "inputs": [],
      "name": "PRECISION",
      "outputs": [
        {
          "internalType": "uint256",
          "name": "",
          "type": "uint256"
        }
      ],
      "stateMutability": "view",
      "type": "function"
    },
    {
      "inputs": [
        {
          "internalType": "uint256",
          "name": "_amount",
          "type": "uint256"
        }
      ],
      "name": "borrowLuminaCoin",
      "outputs": [],
      "stateMutability": "nonpayable",
      "type": "function"
    },
    {
      "inputs": [
        {
          "internalType": "address",
          "name": "",
          "type": "address"
        }
      ],
      "name": "collateralBalances",
      "outputs": [
        {
          "internalType": "uint256",
          "name": "",
          "type": "uint256"
        }
      ],
      "stateMutability": "view",
      "type": "function"
    },
    {
      "inputs": [
        {
          "internalType": "address",
          "name": "",
          "type": "address"
        }
      ],
      "name": "debtBalances",
      "outputs": [
        {
          "internalType": "uint256",
          "name": "",
          "type": "uint256"
        }
      ],
      "stateMutability": "view",
      "type": "function"
    },
    {
      "inputs": [],
      "name": "depositCollateral",
      "outputs": [],
      "stateMutability": "payable",
      "type": "function"
    },
    {
      "inputs": [],
      "name": "ethUsdPriceFeed",
      "outputs": [
        {
          "internalType": "contract IPriceFeed",
          "name": "",
          "type": "address"
        }
      ],
      "stateMutability": "view",
      "type": "function"
    },
    {
      "inputs": [
        {
          "internalType": "address",
          "name": "_user",
          "type": "address"
        }
      ],
      "name": "getAccountCollateralValue",
      "outputs": [
        {
          "internalType": "uint256",
          "name": "",
          "type": "uint256"
        }
      ],
      "stateMutability": "view",
      "type": "function"
    },
    {
      "inputs": [
        {
          "internalType": "address",
          "name": "_user",
          "type": "address"
        }
      ],
      "name": "getAccountValues",
      "outputs": [
        {
          "internalType": "uint256",
          "name": "collateralValue",
          "type": "uint256"
        },
        {
          "internalType": "uint256",
          "name": "debtValue",
          "type": "uint256"
        }
      ],
      "stateMutability": "view",
      "type": "function"
    },
    {
      "inputs": [],
      "name": "getEthPriceInUsd",
      "outputs": [
        {
          "internalType": "uint256",
          "name": "",
          "type": "uint256"
        }
      ],
      "stateMutability": "view",
      "type": "function"
    },
    {
      "inputs": [
        {
          "internalType": "address",
          "name": "_user",
          "type": "address"
        }
      ],
      "name": "getHealthFactor",
      "outputs": [
        {
          "internalType": "uint256",
          "name": "",
          "type": "uint256"
        }
      ],
      "stateMutability": "view",
      "type": "function"
    },
    {
      "inputs": [
        {
          "internalType": "address",
          "name": "_user",
          "type": "address"
        }
      ],
      "name": "liquidate",
      "outputs": [],
      "stateMutability": "nonpayable",
      "type": "function"
    },
    {
      "inputs": [],
      "name": "luminaCoin",
      "outputs": [
        {
          "internalType": "contract ILuminaCoin",
          "name": "",
          "type": "address"
        }
      ],
      "stateMutability": "view",
      "type": "function"
    },
    {
      "inputs": [],
      "name": "owner",
      "outputs": [
        {
          "internalType": "address",
          "name": "",
          "type": "address"
        }
      ],
      "stateMutability": "view",
      "type": "function"
    },
    {
      "inputs": [],
      "name": "renounceOwnership",
      "outputs": [],
      "stateMutability": "nonpayable",
      "type": "function"
    },
    {
      "inputs": [
        {
          "internalType": "uint256",
          "name": "_amount",
          "type": "uint256"
        }
      ],
      "name": "repayLuminaCoin",
      "outputs": [],
      "stateMutability": "nonpayable",
      "type": "function"
    },
    {
      "inputs": [
        {
          "internalType": "address",
          "name": "_newLuminaCoinAddress",
          "type": "address"
        }
      ],
      "name": "setLuminaCoinAddress",
      "outputs": [],
      "stateMutability": "nonpayable",
      "type": "function"
    },
    {
      "inputs": [
        {
          "internalType": "address",
          "name": "_newPriceFeedAddress",
          "type": "address"
        }
      ],
      "name": "setPriceFeedAddress",
      "outputs": [],
      "stateMutability": "nonpayable",
      "type": "function"
    },
    {
      "inputs": [
        {
          "internalType": "address",
          "name": "newOwner",
          "type": "address"
        }
      ],
      "name": "transferOwnership",
      "outputs": [],
      "stateMutability": "nonpayable",
      "type": "function"
    },
    {
      "inputs": [
        {
          "internalType": "uint256",
          "name": "_amount",
          "type": "uint256"
        }
      ],
      "name": "withdrawCollateral",
      "outputs": [],
      "stateMutability": "nonpayable",
      "type": "function"
    }
  ],
  "bytecode": "0x608060405234801561001057600080fd5b5060405161171638038061171683398101604081905261002f916101b9565b826001600160a01b03811661005e57604051631e4fbdf760e01b81526000600482015260240160405180910390fd5b6100678161014d565b50600180556001600160a01b0382166100935760405163e6c4247b60e01b815260040160405180910390fd5b6001600160a01b0381166100ba5760405163e6c4247b60e01b815260040160405180910390fd5b600380546001600160a01b038085166001600160a01b0319928316811790935560028054918516919092161790556040517f40d8738b990e6ff9a2f56f11247e657a1e7070472260b020a4fc3ab1844787bd90600090a26040516001600160a01b038216907f85b717180aab9a1d4b05b616cd308345f136afcbf41e57b8575bddb493fd366890600090a25050506101fc565b600080546001600160a01b038381166001600160a01b0319831681178455604051919092169283917f8be0079c531659141344cd1fd0a4f28419497f9722a3daafe3b4186f6b6457e09190a35050565b80516001600160a01b03811681146101b457600080fd5b919050565b6000806000606084860312156101ce57600080fd5b6101d78461019d565b92506101e56020850161019d565b91506101f36040850161019d565b90509250925092565b61150b8061020b6000396000f3fe6080604052600436106101345760003560e01c80638da5cb5b116100ab578063d67b98a91161006f578063d67b98a914610361578063d88c3cb914610376578063eaf188321461038b578063f2fde38b146103a0578063fe466700146103c0578063fe6bcd7c146103e057600080fd5b80638da5cb5b146102c5578063aaf5eb68146102e3578063c4ef1c4c146102ff578063c705a7ce1461032c578063d365f89e1461034157600080fd5b806347d265e6116100fd57806347d265e6146102285780636112fe2e146102485780636f75814014610268578063715018a6146102705780637388c2e6146102855780637d1a4450146102a557600080fd5b8062cf5db41461013957806329bc969d1461015b5780632f8655681461019b5780633baadca0146101bb57806342f6fb29146101f0575b600080fd5b34801561014557600080fd5b50610159610154366004611266565b610400565b005b34801561016757600080fd5b50610188610176366004611266565b60046020526000908152604090205481565b6040519081526020015b60405180910390f35b3480156101a757600080fd5b506101596101b6366004611266565b610479565b3480156101c757600080fd5b506101db6101d6366004611266565b6108ab565b60408051928352602083019190915201610192565b3480156101fc57600080fd5b50600354610210906001600160a01b031681565b6040516001600160a01b039091168152602001610192565b34801561023457600080fd5b50600254610210906001600160a01b031681565b34801561025457600080fd5b5061015961026336600461128f565b6108f0565b610159610a8a565b34801561027c57600080fd5b50610159610b17565b34801561029157600080fd5b506101596102a036600461128f565b610b29565b3480156102b157600080fd5b506101886102c0366004611266565b610d1d565b3480156102d157600080fd5b506000546001600160a01b0316610210565b3480156102ef57600080fd5b50610188670de0b6b3a764000081565b34801561030b57600080fd5b5061018861031a366004611266565b60056020526000908152604090205481565b34801561033857600080fd5b50610188605081565b34801561034d57600080fd5b5061015961035c36600461128f565b610d45565b34801561036d57600080fd5b50610188610eb6565b34801561038257600080fd5b50610188604281565b34801561039757600080fd5b50610188600581565b3480156103ac57600080fd5b506101596103bb366004611266565b61105a565b3480156103cc57600080fd5b506101596103db366004611266565b611095565b3480156103ec57600080fd5b506101886103fb366004611266565b61110e565b610408611132565b6001600160a01b03811661042f5760405163e6c4247b60e01b815260040160405180910390fd5b600380546001600160a01b0319166001600160a01b0383169081179091556040517f40d8738b990e6ff9a2f56f11247e657a1e7070472260b020a4fc3ab1844787bd90600090a250565b61048161115f565b60008061048d836108ab565b91509150600061049d8383611189565b9050670de0b6b3a764000081106104c75760405163085048a960e21b815260040160405180910390fd5b6001600160a01b0384166000908152600560205260408120549081900361050157604051637e1c541160e11b815260040160405180910390fd5b60035460408051633fabe5a360e21b815290516000926001600160a01b03169163feaf968c9160048083019260a09291908290030181865afa15801561054b573d6000803e3d6000fd5b505050506040513d601f19601f8201168201806040525081019061056f91906112c7565b50505091505060008113610596576040516307806b6560e31b815260040160405180910390fd5b6003546040805163313ce56760e01b8152905183926000926001600160a01b039091169163313ce567916004808201926020929091908290030181865afa1580156105e5573d6000803e3d6000fd5b505050506040513d601f19601f820116820180604052508101906106099190611319565b90506000606461061a600582611352565b6106249087611365565b61062e919061137c565b905060008361063e84600a611485565b6106489084611365565b610652919061137c565b6001600160a01b038b166000908152600460205260409020549091508082111561067a578091505b6001600160a01b038b16600090815260046020526040812080548492906106a2908490611494565b90915550506001600160a01b038b16600090815260056020526040812080548992906106cf908490611494565b90915550506002546040516323b872dd60e01b8152336004820152306024820152604481018990526000916001600160a01b0316906323b872dd906064016020604051808303816000875af115801561072c573d6000803e3d6000fd5b505050506040513d601f19601f8201168201806040525081019061075091906114a7565b905080610770576040516312171d8360e31b815260040160405180910390fd5b600254604051632770a7eb60e21b8152306004820152602481018a90526001600160a01b0390911690639dc29fac90604401600060405180830381600087803b1580156107bc57600080fd5b505af11580156107d0573d6000803e3d6000fd5b50506040516000925033915085908381818185875af1925050503d8060008114610816576040519150601f19603f3d011682016040523d82523d6000602084013e61081b565b606091505b505090508061083d576040516312171d8360e31b815260040160405180910390fd5b336001600160a01b03168d6001600160a01b03167fa457abeae7105eb8bccbb20968069d940e939bc0c8d8b9c2c13aaed4755e68c3868c60405161088b929190918252602082015260400190565b60405180910390a35050505050505050505050506108a860018055565b50565b6001600160a01b03811660009081526004602052604081205481906108cf906111d4565b6001600160a01b039093166000908152600560205260409020549293915050565b6108f861115f565b8060000361091957604051635e85ae7360e01b815260040160405180910390fd5b336000908152600460205260409020548082111561094a57604051633a23d82560e01b815260040160405180910390fd5b6109548282611494565b33600090815260046020908152604080832093909355600590522054156109e1573360009081526004602052604081205461098e906111d4565b3360009081526005602052604090205490915080158015906109c05750670de0b6b3a76400006109be8383611189565b105b156109de57604051633a23d82560e01b815260040160405180910390fd5b50505b604051600090339084908381818185875af1925050503d8060008114610a23576040519150601f19603f3d011682016040523d82523d6000602084013e610a28565b606091505b5050905080610a4a576040516312171d8360e31b815260040160405180910390fd5b60405183815233907fc30fcfbcaac9e0deffa719714eaa82396ff506a0d0d0eebe170830177288715d9060200160405180910390a250506108a860018055565b610a9261115f565b34600003610ab357604051635e85ae7360e01b815260040160405180910390fd5b3360009081526004602052604081208054349290610ad2908490611352565b909155505060405134815233907fd7243f6f8212d5188fd054141cf6ea89cfc0d91facb8c3afe2f88a13584801429060200160405180910390a2610b1560018055565b565b610b1f611132565b610b156000611216565b610b3161115f565b80600003610b5257604051635e85ae7360e01b815260040160405180910390fd5b6002546001600160a01b0316610b7b576040516327a8311f60e11b815260040160405180910390fd5b3360009081526005602052604081205490819003610bac57604051637e1c541160e11b815260040160405180910390fd5b6000818311610bbb5782610bbd565b815b9050610bc98183611494565b336000818152600560205260408082209390935560025492516323b872dd60e01b8152600481019290925230602483015260448201849052916001600160a01b0316906323b872dd906064016020604051808303816000875af1158015610c34573d6000803e3d6000fd5b505050506040513d601f19601f82011682018060405250810190610c5891906114a7565b905080610c78576040516312171d8360e31b815260040160405180910390fd5b600254604051632770a7eb60e21b8152306004820152602481018490526001600160a01b0390911690639dc29fac90604401600060405180830381600087803b158015610cc457600080fd5b505af1158015610cd8573d6000803e3d6000fd5b50506040518481523392507fc200a1f31dd659e356e0f112c82558e25f49f7b0f84438691cd96f5cb3558823915060200160405180910390a25050506108a860018055565b6001600160a01b038116600090815260046020526040812054610d3f906111d4565b92915050565b610d4d61115f565b80600003610d6e57604051635e85ae7360e01b815260040160405180910390fd5b6002546001600160a01b0316610d97576040516327a8311f60e11b815260040160405180910390fd5b3360008181526005602052604081205491610db190610d1d565b905060006064610dc2604284611365565b610dcc919061137c565b90506000610dda8585611352565b905081811115610dfd57604051633a23d82560e01b815260040160405180910390fd5b336000818152600560205260409081902083905560025490516340c10f1960e01b81526004810192909252602482018790526001600160a01b0316906340c10f1990604401600060405180830381600087803b158015610e5c57600080fd5b505af1158015610e70573d6000803e3d6000fd5b50506040518781523392507ffb8ea5178ac89ff9d832e8c9c1b977ca7ab31f52ac7a4179f2e2e065b093565b915060200160405180910390a2505050506108a860018055565b6003546000906001600160a01b0316610ee257604051637e68a04560e01b815260040160405180910390fd5b60035460408051633fabe5a360e21b815290516000926001600160a01b03169163feaf968c9160048083019260a09291908290030181865afa158015610f2c573d6000803e3d6000fd5b505050506040513d601f19601f82011682018060405250810190610f5091906112c7565b50505091505060008113610fc05760405162461bcd60e51b815260206004820152602c60248201527f436f6c6c61746572616c4d616e616765723a20496e76616c696420707269636560448201526b2066726f6d206f7261636c6560a01b60648201526084015b60405180910390fd5b6003546040805163313ce56760e01b815290516000926001600160a01b03169163313ce5679160048083019260209291908290030181865afa15801561100a573d6000803e3d6000fd5b505050506040513d601f19601f8201168201806040525081019061102e9190611319565b905061103e60ff82166012611494565b61104990600a6114c9565b6110539083611365565b9250505090565b611062611132565b6001600160a01b03811661108c57604051631e4fbdf760e01b815260006004820152602401610fb7565b6108a881611216565b61109d611132565b6001600160a01b0381166110c45760405163e6c4247b60e01b815260040160405180910390fd5b600280546001600160a01b0319166001600160a01b0383169081179091556040517f85b717180aab9a1d4b05b616cd308345f136afcbf41e57b8575bddb493fd366890600090a250565b600080600061111c846108ab565b9150915061112a8282611189565b949350505050565b6000546001600160a01b03163314610b155760405163118cdaa760e01b8152336004820152602401610fb7565b60026001540361118257604051633ee5aeb560e01b815260040160405180910390fd5b6002600155565b60008160000361119c5750600019610d3f565b600060646111ab605086611365565b6111b5919061137c565b9050826111ca670de0b6b3a764000083611365565b61112a919061137c565b6000816000036111e657506000919050565b60006111f0610eb6565b9050670de0b6b3a76400006112058285611365565b61120f919061137c565b9392505050565b600080546001600160a01b038381166001600160a01b0319831681178455604051919092169283917f8be0079c531659141344cd1fd0a4f28419497f9722a3daafe3b4186f6b6457e09190a35050565b60006020828403121561127857600080fd5b81356001600160a01b038116811461120f57600080fd5b6000602082840312156112a157600080fd5b5035919050565b805169ffffffffffffffffffff811681146112c257600080fd5b919050565b600080600080600060a086880312156112df57600080fd5b6112e8866112a8565b6020870151604088015160608901519297509095509350915061130d608087016112a8565b90509295509295909350565b60006020828403121561132b57600080fd5b815160ff8116811461120f57600080fd5b634e487b7160e01b600052601160045260246000fd5b80820180821115610d3f57610d3f61133c565b8082028115828204841417610d3f57610d3f61133c565b60008261139957634e487b7160e01b600052601260045260246000fd5b500490565b6001815b60018411156113d9578085048111156113bd576113bd61133c565b60018416156113cb57908102905b60019390931c9280026113a2565b935093915050565b6000826113f057506001610d3f565b816113fd57506000610d3f565b8160018114611413576002811461141d57611439565b6001915050610d3f565b60ff84111561142e5761142e61133c565b50506001821b610d3f565b5060208310610133831016604e8410600b841016171561145c575081810a610d3f565b611469600019848461139e565b806000190482111561147d5761147d61133c565b029392505050565b600061120f60ff8416836113e1565b81810381811115610d3f57610d3f61133c565b6000602082840312156114b957600080fd5b8151801515811461120f57600080fd5b600061120f83836113e156fea2646970667358221220cadd17ca50ab713d3fd9b6dab6215de968fa4df9c86d1a261672005dc605c1f364736f6c634300081c0033",
  "linkReferences": {},
  "deployedLinkReferences": {}
}