{
  "_format": "hh-sol-artifact-1",
  "contractName": "LuminaCoin",
  "sourceName": "contracts/LuminaCoin.sol",
  "abi": [
    {
      "inputs": [
        {
          "internalType": "address",
          "name": "_initialOwner",
          "type": "address"
        }
      ],
      "stateMutability": "nonpayable",
      "type": "constructor"
    },
    {
      "inputs": [
        {
          "internalType": "address",
          "name": "spender",
          "type": "address"
        },
        {
          "internalType": "uint256",
          "name": "allowance",
          "type": "uint256"
        },
        {
          "internalType": "uint256",
          "name": "needed",
          "type": "uint256"
        }
      ],
      "name": "ERC20InsufficientAllowance",
      "type": "error"
    },
    {
      "inputs": [
        {
          "internalType": "address",
          "name": "sender",
          "type": "address"
        },
        {
          "internalType": "uint256",
          "name": "balance",
          "type": "uint256"
        },
        {
          "internalType": "uint256",
          "name": "needed",
          "type": "uint256"
        }
      ],
      "name": "ERC20InsufficientBalance",
      "type": "error"
    },
    {
      "inputs": [
        {
          "internalType": "address",
          "name": "approver",
          "type": "address"
        }
      ],
      "name": "ERC20InvalidApprover",
      "type": "error"
    },
    {
      "inputs": [
        {
          "internalType": "address",
          "name": "receiver",
          "type": "address"
        }
      ],
      "name": "ERC20InvalidReceiver",
      "type": "error"
    },
    {
      "inputs": [
        {
          "internalType": "address",
          "name": "sender",
          "type": "address"
        }
      ],
      "name": "ERC20InvalidSender",
      "type": "error"
    },
    {
      "inputs": [
        {
          "internalType": "address",
          "name": "spender",
          "type": "address"
        }
      ],
      "name": "ERC20InvalidSpender",
      "type": "error"
    },
    {
      "inputs": [
        {
          "internalType": "address",
          "name": "owner",
          "type": "address"
        }
      ],
      "name": "OwnableInvalidOwner",
      "type": "error"
    },
    {
      "inputs": [
        {
          "internalType": "address",
          "name": "account",
          "type": "address"
        }
      ],
      "name": "OwnableUnauthorizedAccount",
      "type": "error"
    },
    {
      "anonymous": false,
      "inputs": [
        {
          "indexed": true,
          "internalType": "address",
          "name": "owner",
          "type": "address"
        },
        {
          "indexed": true,
          "internalType": "address",
          "name": "spender",
          "type": "address"
        },
        {
          "indexed": false,
          "internalType": "uint256",
          "name": "value",
          "type": "uint256"
        }
      ],
      "name": "Approval",
      "type": "event"
    },
    {
      "anonymous": false,
      "inputs": [
        {
          "indexed": true,
          "internalType": "address",
          "name": "manager",
          "type": "address"
        }
      ],
      "name": "CollateralManagerSet",
      "type": "event"
    },
    {
      "anonymous": false,
      "inputs": [
        {
          "indexed": true,
          "internalType": "address",
          "name": "previousOwner",
          "type": "address"
        },
        {
          "indexed": true,
          "internalType": "address",
          "name": "newOwner",
          "type": "address"
        }
      ],
      "name": "OwnershipTransferred",
      "type": "event"
    },
    {
      "anonymous": false,
      "inputs": [
        {
          "indexed": true,
          "internalType": "address",
          "name": "from",
          "type": "address"
        },
        {
          "indexed": true,
          "internalType": "address",
          "name": "to",
          "type": "address"
        },
        {
          "indexed": false,
          "internalType": "uint256",
          "name": "value",
          "type": "uint256"
        }
      ],
      "name": "Transfer",
      "type": "event"
    },
    {
      "inputs": [
        {
          "internalType": "address",
          "name": "owner",
          "type": "address"
        },
        {
          "internalType": "address",
          "name": "spender",
          "type": "address"
        }
      ],
      "name": "allowance",
      "outputs": [
        {
          "internalType": "uint256",
          "name": "",
          "type": "uint256"
        }
      ],
      "stateMutability": "view",
      "type": "function"
    },
    {
      "inputs": [
        {
          "internalType": "address",
          "name": "spender",
          "type": "address"
        },
        {
          "internalType": "uint256",
          "name": "value",
          "type": "uint256"
        }
      ],
      "name": "approve",
      "outputs": [
        {
          "internalType": "bool",
          "name": "",
          "type": "bool"
        }
      ],
      "stateMutability": "nonpayable",
      "type": "function"
    },
    {
      "inputs": [
        {
          "internalType": "address",
          "name": "account",
          "type": "address"
        }
      ],
      "name": "balanceOf",
      "outputs": [
        {
          "internalType": "uint256",
          "name": "",
          "type": "uint256"
        }
      ],
      "stateMutability": "view",
      "type": "function"
    },
    {
      "inputs": [
        {
          "internalType": "address",
          "name": "from",
          "type": "address"
        },
        {
          "internalType": "uint256",
          "name": "amount",
          "type": "uint256"
        }
      ],
      "name": "burnFrom",
      "outputs": [],
      "stateMutability": "nonpayable",
      "type": "function"
    },
    {
      "inputs": [
        {
          "internalType": "uint256",
          "name": "amount",
          "type": "uint256"
        }
      ],
      "name": "burnHeldTokens",
      "outputs": [],
      "stateMutability": "nonpayable",
      "type": "function"
    },
    {
      "inputs": [],
      "name": "collateralManager",
      "outputs": [
        {
          "internalType": "address",
          "name": "",
          "type": "address"
        }
      ],
      "stateMutability": "view",
      "type": "function"
    },
    {
      "inputs": [],
      "name": "decimals",
      "outputs": [
        {
          "internalType": "uint8",
          "name": "",
          "type": "uint8"
        }
      ],
      "stateMutability": "view",
      "type": "function"
    },
    {
      "inputs": [
        {
          "internalType": "address",
          "name": "to",
          "type": "address"
        },
        {
          "internalType": "uint256",
          "name": "amount",
          "type": "uint256"
        }
      ],
      "name": "mint",
      "outputs": [],
      "stateMutability": "nonpayable",
      "type": "function"
    },
    {
      "inputs": [],
      "name": "name",
      "outputs": [
        {
          "internalType": "string",
          "name": "",
          "type": "string"
        }
      ],
      "stateMutability": "view",
      "type": "function"
    },
    {
      "inputs": [],
      "name": "owner",
      "outputs": [
        {
          "internalType": "address",
          "name": "",
          "type": "address"
        }
      ],
      "stateMutability": "view",
      "type": "function"
    },
    {
      "inputs": [],
      "name": "renounceOwnership",
      "outputs": [],
      "stateMutability": "nonpayable",
      "type": "function"
    },
    {
      "inputs": [
        {
          "internalType": "address",
          "name": "_manager",
          "type": "address"
        }
      ],
      "name": "setCollateralManager",
      "outputs": [],
      "stateMutability": "nonpayable",
      "type": "function"
    },
    {
      "inputs": [],
      "name": "symbol",
      "outputs": [
        {
          "internalType": "string",
          "name": "",
          "type": "string"
        }
      ],
      "stateMutability": "view",
      "type": "function"
    },
    {
      "inputs": [],
      "name": "totalSupply",
      "outputs": [
        {
          "internalType": "uint256",
          "name": "",
          "type": "uint256"
        }
      ],
      "stateMutability": "view",
      "type": "function"
    },
    {
      "inputs": [
        {
          "internalType": "address",
          "name": "to",
          "type": "address"
        },
        {
          "internalType": "uint256",
          "name": "value",
          "type": "uint256"
        }
      ],
      "name": "transfer",
      "outputs": [
        {
          "internalType": "bool",
          "name": "",
          "type": "bool"
        }
      ],
      "stateMutability": "nonpayable",
      "type": "function"
    },
    {
      "inputs": [
        {
          "internalType": "address",
          "name": "from",
          "type": "address"
        },
        {
          "internalType": "address",
          "name": "to",
          "type": "address"
        },
        {
          "internalType": "uint256",
          "name": "value",
          "type": "uint256"
        }
      ],
      "name": "transferFrom",
      "outputs": [
        {
          "internalType": "bool",
          "name": "",
          "type": "bool"
        }
      ],
      "stateMutability": "nonpayable",
      "type": "function"
    },
    {
      "inputs": [
        {
          "internalType": "address",
          "name": "newOwner",
          "type": "address"
        }
      ],
      "name": "transferOwnership",
      "outputs": [],
      "stateMutability": "nonpayable",
      "type": "function"
    }
  ],
  "bytecode": "0x608060405234801561001057600080fd5b50604051610dfd380380610dfd83398101604081905261002f9161011e565b806040518060400160405280600a815260200169263ab6b4b730a1b7b4b760b11b815250604051806040016040528060038152602001624c4d4360e81b815250816003908161007e91906101ed565b50600461008b82826101ed565b5050506001600160a01b0381166100bc57604051631e4fbdf760e01b81526000600482015260240160405180910390fd5b6100c5816100cc565b50506102ab565b600580546001600160a01b038381166001600160a01b0319831681179093556040519116919082907f8be0079c531659141344cd1fd0a4f28419497f9722a3daafe3b4186f6b6457e090600090a35050565b60006020828403121561013057600080fd5b81516001600160a01b038116811461014757600080fd5b9392505050565b634e487b7160e01b600052604160045260246000fd5b600181811c9082168061017857607f821691505b60208210810361019857634e487b7160e01b600052602260045260246000fd5b50919050565b601f8211156101e857806000526020600020601f840160051c810160208510156101c55750805b601f840160051c820191505b818110156101e557600081556001016101d1565b50505b505050565b81516001600160401b038111156102065761020661014e565b61021a816102148454610164565b8461019e565b6020601f82116001811461024e57600083156102365750848201515b600019600385901b1c1916600184901b1784556101e5565b600084815260208120601f198516915b8281101561027e578785015182556020948501946001909201910161025e565b508482101561029c5786840151600019600387901b60f8161c191681555b50505050600190811b01905550565b610b43806102ba6000396000f3fe608060405234801561001057600080fd5b506004361061010b5760003560e01c806370a08231116100a25780638da5cb5b116100715780638da5cb5b1461022f57806395d89b4114610240578063a9059cbb14610248578063dd62ed3e1461025b578063f2fde38b1461029457600080fd5b806370a08231146101d8578063715018a61461020157806379cc679014610209578063842a05d41461021c57600080fd5b806323be345c116100de57806323be345c14610176578063313ce567146101a157806340c10f19146101b057806342c38089146101c557600080fd5b806306fdde0314610110578063095ea7b31461012e57806318160ddd1461015157806323b872dd14610163575b600080fd5b6101186102a7565b6040516101259190610924565b60405180910390f35b61014161013c36600461098e565b610339565b6040519015158152602001610125565b6002545b604051908152602001610125565b6101416101713660046109b8565b610353565b600654610189906001600160a01b031681565b6040516001600160a01b039091168152602001610125565b60405160128152602001610125565b6101c36101be36600461098e565b610377565b005b6101c36101d33660046109f5565b6103b8565b6101556101e6366004610a0e565b6001600160a01b031660009081526020819052604090205490565b6101c36103ef565b6101c361021736600461098e565b610403565b6101c361022a366004610a0e565b610437565b6005546001600160a01b0316610189565b6101186104f2565b61014161025636600461098e565b610501565b610155610269366004610a30565b6001600160a01b03918216600090815260016020908152604080832093909416825291909152205490565b6101c36102a2366004610a0e565b61050f565b6060600380546102b690610a63565b80601f01602080910402602001604051908101604052809291908181526020018280546102e290610a63565b801561032f5780601f106103045761010080835404028352916020019161032f565b820191906000526020600020905b81548152906001019060200180831161031257829003601f168201915b5050505050905090565b60003361034781858561054a565b60019150505b92915050565b60003361036185828561055c565b61036c8585856105db565b506001949350505050565b6006546001600160a01b031633146103aa5760405162461bcd60e51b81526004016103a190610a9d565b60405180910390fd5b6103b4828261063a565b5050565b6006546001600160a01b031633146103e25760405162461bcd60e51b81526004016103a190610a9d565b6103ec3082610670565b50565b6103f76106a6565b61040160006106d3565b565b6006546001600160a01b0316331461042d5760405162461bcd60e51b81526004016103a190610a9d565b6103b48282610670565b61043f6106a6565b6001600160a01b0381166104a85760405162461bcd60e51b815260206004820152602a60248201527f4c756d696e61436f696e3a204d616e6167657220616464726573732063616e6e6044820152696f74206265207a65726f60b01b60648201526084016103a1565b600680546001600160a01b0319166001600160a01b0383169081179091556040517f3370510cbff7ce3d801e216bba0f5168df704747803543a6d82f83cd04776f2790600090a250565b6060600480546102b690610a63565b6000336103478185856105db565b6105176106a6565b6001600160a01b03811661054157604051631e4fbdf760e01b8152600060048201526024016103a1565b6103ec816106d3565b6105578383836001610725565b505050565b6001600160a01b038381166000908152600160209081526040808320938616835292905220546000198110156105d557818110156105c657604051637dc7a0d960e11b81526001600160a01b038416600482015260248101829052604481018390526064016103a1565b6105d584848484036000610725565b50505050565b6001600160a01b03831661060557604051634b637e8f60e11b8152600060048201526024016103a1565b6001600160a01b03821661062f5760405163ec442f0560e01b8152600060048201526024016103a1565b6105578383836107fa565b6001600160a01b0382166106645760405163ec442f0560e01b8152600060048201526024016103a1565b6103b4600083836107fa565b6001600160a01b03821661069a57604051634b637e8f60e11b8152600060048201526024016103a1565b6103b4826000836107fa565b6005546001600160a01b031633146104015760405163118cdaa760e01b81523360048201526024016103a1565b600580546001600160a01b038381166001600160a01b0319831681179093556040519116919082907f8be0079c531659141344cd1fd0a4f28419497f9722a3daafe3b4186f6b6457e090600090a35050565b6001600160a01b03841661074f5760405163e602df0560e01b8152600060048201526024016103a1565b6001600160a01b03831661077957604051634a1406b160e11b8152600060048201526024016103a1565b6001600160a01b03808516600090815260016020908152604080832093871683529290522082905580156105d557826001600160a01b0316846001600160a01b03167f8c5be1e5ebec7d5bd14f71427d1e84f3dd0314c0f7b2291e5b200ac8c7c3b925846040516107ec91815260200190565b60405180910390a350505050565b6001600160a01b03831661082557806002600082825461081a9190610aec565b909155506108979050565b6001600160a01b038316600090815260208190526040902054818110156108785760405163391434e360e21b81526001600160a01b038516600482015260248101829052604481018390526064016103a1565b6001600160a01b03841660009081526020819052604090209082900390555b6001600160a01b0382166108b3576002805482900390556108d2565b6001600160a01b03821660009081526020819052604090208054820190555b816001600160a01b0316836001600160a01b03167fddf252ad1be2c89b69c2b068fc378daa952ba7f163c4a11628f55a4df523b3ef8360405161091791815260200190565b60405180910390a3505050565b602081526000825180602084015260005b818110156109525760208186018101516040868401015201610935565b506000604082850101526040601f19601f83011684010191505092915050565b80356001600160a01b038116811461098957600080fd5b919050565b600080604083850312156109a157600080fd5b6109aa83610972565b946020939093013593505050565b6000806000606084860312156109cd57600080fd5b6109d684610972565b92506109e460208501610972565b929592945050506040919091013590565b600060208284031215610a0757600080fd5b5035919050565b600060208284031215610a2057600080fd5b610a2982610972565b9392505050565b60008060408385031215610a4357600080fd5b610a4c83610972565b9150610a5a60208401610972565b90509250929050565b600181811c90821680610a7757607f821691505b602082108103610a9757634e487b7160e01b600052602260045260246000fd5b50919050565b6020808252602f908201527f4c756d696e61436f696e3a2043616c6c6572206973206e6f742074686520436f60408201526e363630ba32b930b626b0b730b3b2b960891b606082015260800190565b8082018082111561034d57634e487b7160e01b600052601160045260246000fdfea26469706673582212209f2e91e594a565803791873b0085ad10321bd678996804e0a8903ff3ae2da73864736f6c634300081c0033",
  "linkReferences": {},
  "deployedLinkReferences": {}
}