{
  "_format": "hh-sol-artifact-1",
  "contractName": "AccountTakeoverChallenge",
  "sourceName": "contracts/AccountTakeoverChallenge.sol",
  "abi": [
    {
      "constant": false,
      "inputs": [],
      "name": "authenticate",
      "outputs": [],
      "payable": false,
      "stateMutability": "nonpayable",
      "type": "function"
    },
    {
      "constant": true,
      "inputs": [],
      "name": "isComplete",
      "outputs": [
        {
          "name": "",
          "type": "bool"
        }
      ],
      "payable": false,
      "stateMutability": "view",
      "type": "function"
    }
  ],
  "bytecode": "0x6060604052736b477781b0e68031109f21887e6b5afeaaeb002b6000806101000a81548173ffffffffffffffffffffffffffffffffffffffff021916908373ffffffffffffffffffffffffffffffffffffffff160217905550341561006357600080fd5b61014a806100726000396000f30060606040526004361061004c576000357c0100000000000000000000000000000000000000000000000000000000900463ffffffff168063380c7a6714610051578063b2fa1c9e14610066575b600080fd5b341561005c57600080fd5b610064610093565b005b341561007157600080fd5b61007961010b565b604051808215151515815260200191505060405180910390f35b6000809054906101000a900473ffffffffffffffffffffffffffffffffffffffff1673ffffffffffffffffffffffffffffffffffffffff163373ffffffffffffffffffffffffffffffffffffffff161415156100ee57600080fd5b6001600060146101000a81548160ff021916908315150217905550565b600060149054906101000a900460ff16815600a165627a7a72305820c7b6d522433e5a06254dab0cef0ef429edbdc0ae7136939347bd857300b641d20029",
  "linkReferences": {},
  "deployedLinkReferences": {}
}