{
  "_format": "hh-sol-artifact-1",
  "contractName": "NicknameChallenge",
  "sourceName": "contracts/NicknameChallenge.sol",
  "abi": [
    {
      "constant": true,
      "inputs": [],
      "name": "isComplete",
      "outputs": [
        {
          "name": "",
          "type": "bool"
        }
      ],
      "payable": false,
      "stateMutability": "view",
      "type": "function"
    },
    {
      "inputs": [
        {
          "name": "_player",
          "type": "address"
        }
      ],
      "payable": false,
      "stateMutability": "nonpayable",
      "type": "constructor"
    }
  ],
  "bytecode": "0x6060604052336000806101000a81548173ffffffffffffffffffffffffffffffffffffffff021916908373ffffffffffffffffffffffffffffffffffffffff160217905550341561004f57600080fd5b6040516020806102ce8339810160405280805190602001909190505080600160006101000a81548173ffffffffffffffffffffffffffffffffffffffff021916908373ffffffffffffffffffffffffffffffffffffffff16021790555050610212806100bc6000396000f300606060405260043610610041576000357c0100000000000000000000000000000000000000000000000000000000900463ffffffff168063b2fa1c9e14610046575b600080fd5b341561005157600080fd5b610059610073565b604051808215151515815260200191505060405180910390f35b6000807f0100000000000000000000000000000000000000000000000000000000000000026000809054906101000a900473ffffffffffffffffffffffffffffffffffffffff1673ffffffffffffffffffffffffffffffffffffffff16636790081c600160009054906101000a900473ffffffffffffffffffffffffffffffffffffffff166040518263ffffffff167c0100000000000000000000000000000000000000000000000000000000028152600401808273ffffffffffffffffffffffffffffffffffffffff1673ffffffffffffffffffffffffffffffffffffffff168152602001915050602060405180830381600087803b151561017557600080fd5b5af1151561018257600080fd5b50505060405180519050600060208110151561019a57fe5b1a7f0100000000000000000000000000000000000000000000000000000000000000027effffffffffffffffffffffffffffffffffffffffffffffffffffffffffffff191614159050905600a165627a7a723058202009007a0daa8cba9adbb52ba453189d3f91c88452edc4dc09da8e05d71376600029",
  "linkReferences": {},
  "deployedLinkReferences": {}
}