{"contracts/CollateralManager.sol":{"CollateralManager":{"abi":[{"inputs":[{"internalType":"address","name":"_initialOwner","type":"address"},{"internalType":"address","name":"_priceFeedAddress","type":"address"},{"internalType":"address","name":"_luminaCoinAddress","type":"address"}],"stateMutability":"nonpayable","type":"constructor"},{"inputs":[],"name":"AmountMustBeGreaterThanZero","type":"error"},{"inputs":[],"name":"HealthFactorOk","type":"error"},{"inputs":[],"name":"InsufficientCollateral","type":"error"},{"inputs":[],"name":"InvalidAddress","type":"error"},{"inputs":[],"name":"LiquidationNotImplemented","type":"error"},{"inputs":[],"name":"LuminaCoinNotSet","type":"error"},{"inputs":[],"name":"NoDebtExists","type":"error"},{"inputs":[{"internalType":"address","name":"owner","type":"address"}],"name":"OwnableInvalidOwner","type":"error"},{"inputs":[{"internalType":"address","name":"account","type":"address"}],"name":"OwnableUnauthorizedAccount","type":"error"},{"inputs":[],"name":"PriceFeedInvalid","type":"error"},{"inputs":[],"name":"PriceFeedNotSet","type":"error"},{"inputs":[],"name":"ReentrancyGuardReentrantCall","type":"error"},{"inputs":[],"name":"RepaymentExceedsDebt","type":"error"},{"inputs":[],"name":"TransferFailed","type":"error"},{"anonymous":false,"inputs":[{"indexed":true,"internalType":"address","name":"user","type":"address"},{"indexed":false,"internalType":"uint256","name":"amount","type":"uint256"}],"name":"CollateralDeposited","type":"event"},{"anonymous":false,"inputs":[{"indexed":true,"internalType":"address","name":"user","type":"address"},{"indexed":false,"internalType":"uint256","name":"amount","type":"uint256"}],"name":"CollateralWithdrawn","type":"event"},{"anonymous":false,"inputs":[{"indexed":true,"internalType":"address","name":"user","type":"address"},{"indexed":false,"internalType":"uint256","name":"amount","type":"uint256"}],"name":"LoanBorrowed","type":"event"},{"anonymous":false,"inputs":[{"indexed":true,"internalType":"address","name":"user","type":"address"},{"indexed":false,"internalType":"uint256","name":"amount","type":"uint256"}],"name":"LoanRepaid","type":"event"},{"anonymous":false,"inputs":[{"indexed":true,"internalType":"address","name":"tokenAddress","type":"address"}],"name":"LuminaCoinSet","type":"event"},{"anonymous":false,"inputs":[{"indexed":true,"internalType":"address","name":"previousOwner","type":"address"},{"indexed":true,"internalType":"address","name":"newOwner","type":"address"}],"name":"OwnershipTransferred","type":"event"},{"anonymous":false,"inputs":[{"indexed":true,"internalType":"address","name":"user","type":"address"},{"indexed":true,"internalType":"address","name":"liquidator","type":"address"},{"indexed":false,"internalType":"uint256","name":"collateralLiquidated","type":"uint256"},{"indexed":false,"internalType":"uint256","name":"debtRepaid","type":"uint256"}],"name":"PositionLiquidated","type":"event"},{"anonymous":false,"inputs":[{"indexed":true,"internalType":"address","name":"feedAddress","type":"address"}],"name":"PriceFeedSet","type":"event"},{"inputs":[],"name":"LIQUIDATION_BONUS_PERCENT","outputs":[{"internalType":"uint256","name":"","type":"uint256"}],"stateMutability":"view","type":"function"},{"inputs":[],"name":"LIQUIDATION_THRESHOLD_PERCENT","outputs":[{"internalType":"uint256","name":"","type":"uint256"}],"stateMutability":"view","type":"function"},{"inputs":[],"name":"LTV_RATIO_PERCENT","outputs":[{"internalType":"uint256","name":"","type":"uint256"}],"stateMutability":"view","type":"function"},{"inputs":[],"name":"PRECISION","outputs":[{"internalType":"uint256","name":"","type":"uint256"}],"stateMutability":"view","type":"function"},{"inputs":[{"internalType":"uint256","name":"_amount","type":"uint256"}],"name":"borrowLuminaCoin","outputs":[],"stateMutability":"nonpayable","type":"function"},{"inputs":[{"internalType":"address","name":"","type":"address"}],"name":"collateralBalances","outputs":[{"internalType":"uint256","name":"","type":"uint256"}],"stateMutability":"view","type":"function"},{"inputs":[{"internalType":"address","name":"","type":"address"}],"name":"debtBalances","outputs":[{"internalType":"uint256","name":"","type":"uint256"}],"stateMutability":"view","type":"function"},{"inputs":[],"name":"depositCollateral","outputs":[],"stateMutability":"payable","type":"function"},{"inputs":[],"name":"ethUsdPriceFeed","outputs":[{"internalType":"contract IPriceFeed","name":"","type":"address"}],"stateMutability":"view","type":"function"},{"inputs":[{"internalType":"address","name":"_user","type":"address"}],"name":"getAccountCollateralValue","outputs":[{"internalType":"uint256","name":"","type":"uint256"}],"stateMutability":"view","type":"function"},{"inputs":[{"internalType":"address","name":"_user","type":"address"}],"name":"getAccountValues","outputs":[{"internalType":"uint256","name":"collateralValue","type":"uint256"},{"internalType":"uint256","name":"debtValue","type":"uint256"}],"stateMutability":"view","type":"function"},{"inputs":[],"name":"getEthPriceInUsd","outputs":[{"internalType":"uint256","name":"","type":"uint256"}],"stateMutability":"view","type":"function"},{"inputs":[{"internalType":"address","name":"_user","type":"address"}],"name":"getHealthFactor","outputs":[{"internalType":"uint256","name":"","type":"uint256"}],"stateMutability":"view","type":"function"},{"inputs":[{"internalType":"address","name":"_user","type":"address"}],"name":"liquidate","outputs":[],"stateMutability":"nonpayable","type":"function"},{"inputs":[],"name":"luminaCoin","outputs":[{"internalType":"contract ILuminaCoin","name":"","type":"address"}],"stateMutability":"view","type":"function"},{"inputs":[],"name":"owner","outputs":[{"internalType":"address","name":"","type":"address"}],"stateMutability":"view","type":"function"},{"inputs":[],"name":"renounceOwnership","outputs":[],"stateMutability":"nonpayable","type":"function"},{"inputs":[{"internalType":"uint256","name":"_amount","type":"uint256"}],"name":"repayLuminaCoin","outputs":[],"stateMutability":"nonpayable","type":"function"},{"inputs":[{"internalType":"address","name":"_newLuminaCoinAddress","type":"address"}],"name":"setLuminaCoinAddress","outputs":[],"stateMutability":"nonpayable","type":"function"},{"inputs":[{"internalType":"address","name":"_newPriceFeedAddress","type":"address"}],"name":"setPriceFeedAddress","outputs":[],"stateMutability":"nonpayable","type":"function"},{"inputs":[{"internalType":"address","name":"newOwner","type":"address"}],"name":"transferOwnership","outputs":[],"stateMutability":"nonpayable","type":"function"},{"inputs":[{"internalType":"uint256","name":"_amount","type":"uint256"}],"name":"withdrawCollateral","outputs":[],"stateMutability":"nonpayable","type":"function"}],"evm":{"bytecode":{"linkReferences":{},"object":"608060405234801561001057600080fd5b5060405161171638038061171683398101604081905261002f916101b9565b826001600160a01b03811661005e57604051631e4fbdf760e01b81526000600482015260240160405180910390fd5b6100678161014d565b50600180556001600160a01b0382166100935760405163e6c4247b60e01b815260040160405180910390fd5b6001600160a01b0381166100ba5760405163e6c4247b60e01b815260040160405180910390fd5b600380546001600160a01b038085166001600160a01b0319928316811790935560028054918516919092161790556040517f40d8738b990e6ff9a2f56f11247e657a1e7070472260b020a4fc3ab1844787bd90600090a26040516001600160a01b038216907f85b717180aab9a1d4b05b616cd308345f136afcbf41e57b8575bddb493fd366890600090a25050506101fc565b600080546001600160a01b038381166001600160a01b0319831681178455604051919092169283917f8be0079c531659141344cd1fd0a4f28419497f9722a3daafe3b4186f6b6457e09190a35050565b80516001600160a01b03811681146101b457600080fd5b919050565b6000806000606084860312156101ce57600080fd5b6101d78461019d565b92506101e56020850161019d565b91506101f36040850161019d565b90509250925092565b61150b8061020b6000396000f3fe6080604052600436106101345760003560e01c80638da5cb5b116100ab578063d67b98a91161006f578063d67b98a914610361578063d88c3cb914610376578063eaf188321461038b578063f2fde38b146103a0578063fe466700146103c0578063fe6bcd7c146103e057600080fd5b80638da5cb5b146102c5578063aaf5eb68146102e3578063c4ef1c4c146102ff578063c705a7ce1461032c578063d365f89e1461034157600080fd5b806347d265e6116100fd57806347d265e6146102285780636112fe2e146102485780636f75814014610268578063715018a6146102705780637388c2e6146102855780637d1a4450146102a557600080fd5b8062cf5db41461013957806329bc969d1461015b5780632f8655681461019b5780633baadca0146101bb57806342f6fb29146101f0575b600080fd5b34801561014557600080fd5b50610159610154366004611266565b610400565b005b34801561016757600080fd5b50610188610176366004611266565b60046020526000908152604090205481565b6040519081526020015b60405180910390f35b3480156101a757600080fd5b506101596101b6366004611266565b610479565b3480156101c757600080fd5b506101db6101d6366004611266565b6108ab565b60408051928352602083019190915201610192565b3480156101fc57600080fd5b50600354610210906001600160a01b031681565b6040516001600160a01b039091168152602001610192565b34801561023457600080fd5b50600254610210906001600160a01b031681565b34801561025457600080fd5b5061015961026336600461128f565b6108f0565b610159610a8a565b34801561027c57600080fd5b50610159610b17565b34801561029157600080fd5b506101596102a036600461128f565b610b29565b3480156102b157600080fd5b506101886102c0366004611266565b610d1d565b3480156102d157600080fd5b506000546001600160a01b0316610210565b3480156102ef57600080fd5b50610188670de0b6b3a764000081565b34801561030b57600080fd5b5061018861031a366004611266565b60056020526000908152604090205481565b34801561033857600080fd5b50610188605081565b34801561034d57600080fd5b5061015961035c36600461128f565b610d45565b34801561036d57600080fd5b50610188610eb6565b34801561038257600080fd5b50610188604281565b34801561039757600080fd5b50610188600581565b3480156103ac57600080fd5b506101596103bb366004611266565b61105a565b3480156103cc57600080fd5b506101596103db366004611266565b611095565b3480156103ec57600080fd5b506101886103fb366004611266565b61110e565b610408611132565b6001600160a01b03811661042f5760405163e6c4247b60e01b815260040160405180910390fd5b600380546001600160a01b0319166001600160a01b0383169081179091556040517f40d8738b990e6ff9a2f56f11247e657a1e7070472260b020a4fc3ab1844787bd90600090a250565b61048161115f565b60008061048d836108ab565b91509150600061049d8383611189565b9050670de0b6b3a764000081106104c75760405163085048a960e21b815260040160405180910390fd5b6001600160a01b0384166000908152600560205260408120549081900361050157604051637e1c541160e11b815260040160405180910390fd5b60035460408051633fabe5a360e21b815290516000926001600160a01b03169163feaf968c9160048083019260a09291908290030181865afa15801561054b573d6000803e3d6000fd5b505050506040513d601f19601f8201168201806040525081019061056f91906112c7565b50505091505060008113610596576040516307806b6560e31b815260040160405180910390fd5b6003546040805163313ce56760e01b8152905183926000926001600160a01b039091169163313ce567916004808201926020929091908290030181865afa1580156105e5573d6000803e3d6000fd5b505050506040513d601f19601f820116820180604052508101906106099190611319565b90506000606461061a600582611352565b6106249087611365565b61062e919061137c565b905060008361063e84600a611485565b6106489084611365565b610652919061137c565b6001600160a01b038b166000908152600460205260409020549091508082111561067a578091505b6001600160a01b038b16600090815260046020526040812080548492906106a2908490611494565b90915550506001600160a01b038b16600090815260056020526040812080548992906106cf908490611494565b90915550506002546040516323b872dd60e01b8152336004820152306024820152604481018990526000916001600160a01b0316906323b872dd906064016020604051808303816000875af115801561072c573d6000803e3d6000fd5b505050506040513d601f19601f8201168201806040525081019061075091906114a7565b905080610770576040516312171d8360e31b815260040160405180910390fd5b600254604051632770a7eb60e21b8152306004820152602481018a90526001600160a01b0390911690639dc29fac90604401600060405180830381600087803b1580156107bc57600080fd5b505af11580156107d0573d6000803e3d6000fd5b50506040516000925033915085908381818185875af1925050503d8060008114610816576040519150601f19603f3d011682016040523d82523d6000602084013e61081b565b606091505b505090508061083d576040516312171d8360e31b815260040160405180910390fd5b336001600160a01b03168d6001600160a01b03167fa457abeae7105eb8bccbb20968069d940e939bc0c8d8b9c2c13aaed4755e68c3868c60405161088b929190918252602082015260400190565b60405180910390a35050505050505050505050506108a860018055565b50565b6001600160a01b03811660009081526004602052604081205481906108cf906111d4565b6001600160a01b039093166000908152600560205260409020549293915050565b6108f861115f565b8060000361091957604051635e85ae7360e01b815260040160405180910390fd5b336000908152600460205260409020548082111561094a57604051633a23d82560e01b815260040160405180910390fd5b6109548282611494565b33600090815260046020908152604080832093909355600590522054156109e1573360009081526004602052604081205461098e906111d4565b3360009081526005602052604090205490915080158015906109c05750670de0b6b3a76400006109be8383611189565b105b156109de57604051633a23d82560e01b815260040160405180910390fd5b50505b604051600090339084908381818185875af1925050503d8060008114610a23576040519150601f19603f3d011682016040523d82523d6000602084013e610a28565b606091505b5050905080610a4a576040516312171d8360e31b815260040160405180910390fd5b60405183815233907fc30fcfbcaac9e0deffa719714eaa82396ff506a0d0d0eebe170830177288715d9060200160405180910390a250506108a860018055565b610a9261115f565b34600003610ab357604051635e85ae7360e01b815260040160405180910390fd5b3360009081526004602052604081208054349290610ad2908490611352565b909155505060405134815233907fd7243f6f8212d5188fd054141cf6ea89cfc0d91facb8c3afe2f88a13584801429060200160405180910390a2610b1560018055565b565b610b1f611132565b610b156000611216565b610b3161115f565b80600003610b5257604051635e85ae7360e01b815260040160405180910390fd5b6002546001600160a01b0316610b7b576040516327a8311f60e11b815260040160405180910390fd5b3360009081526005602052604081205490819003610bac57604051637e1c541160e11b815260040160405180910390fd5b6000818311610bbb5782610bbd565b815b9050610bc98183611494565b336000818152600560205260408082209390935560025492516323b872dd60e01b8152600481019290925230602483015260448201849052916001600160a01b0316906323b872dd906064016020604051808303816000875af1158015610c34573d6000803e3d6000fd5b505050506040513d601f19601f82011682018060405250810190610c5891906114a7565b905080610c78576040516312171d8360e31b815260040160405180910390fd5b600254604051632770a7eb60e21b8152306004820152602481018490526001600160a01b0390911690639dc29fac90604401600060405180830381600087803b158015610cc457600080fd5b505af1158015610cd8573d6000803e3d6000fd5b50506040518481523392507fc200a1f31dd659e356e0f112c82558e25f49f7b0f84438691cd96f5cb3558823915060200160405180910390a25050506108a860018055565b6001600160a01b038116600090815260046020526040812054610d3f906111d4565b92915050565b610d4d61115f565b80600003610d6e57604051635e85ae7360e01b815260040160405180910390fd5b6002546001600160a01b0316610d97576040516327a8311f60e11b815260040160405180910390fd5b3360008181526005602052604081205491610db190610d1d565b905060006064610dc2604284611365565b610dcc919061137c565b90506000610dda8585611352565b905081811115610dfd57604051633a23d82560e01b815260040160405180910390fd5b336000818152600560205260409081902083905560025490516340c10f1960e01b81526004810192909252602482018790526001600160a01b0316906340c10f1990604401600060405180830381600087803b158015610e5c57600080fd5b505af1158015610e70573d6000803e3d6000fd5b50506040518781523392507ffb8ea5178ac89ff9d832e8c9c1b977ca7ab31f52ac7a4179f2e2e065b093565b915060200160405180910390a2505050506108a860018055565b6003546000906001600160a01b0316610ee257604051637e68a04560e01b815260040160405180910390fd5b60035460408051633fabe5a360e21b815290516000926001600160a01b03169163feaf968c9160048083019260a09291908290030181865afa158015610f2c573d6000803e3d6000fd5b505050506040513d601f19601f82011682018060405250810190610f5091906112c7565b50505091505060008113610fc05760405162461bcd60e51b815260206004820152602c60248201527f436f6c6c61746572616c4d616e616765723a20496e76616c696420707269636560448201526b2066726f6d206f7261636c6560a01b60648201526084015b60405180910390fd5b6003546040805163313ce56760e01b815290516000926001600160a01b03169163313ce5679160048083019260209291908290030181865afa15801561100a573d6000803e3d6000fd5b505050506040513d601f19601f8201168201806040525081019061102e9190611319565b905061103e60ff82166012611494565b61104990600a6114c9565b6110539083611365565b9250505090565b611062611132565b6001600160a01b03811661108c57604051631e4fbdf760e01b815260006004820152602401610fb7565b6108a881611216565b61109d611132565b6001600160a01b0381166110c45760405163e6c4247b60e01b815260040160405180910390fd5b600280546001600160a01b0319166001600160a01b0383169081179091556040517f85b717180aab9a1d4b05b616cd308345f136afcbf41e57b8575bddb493fd366890600090a250565b600080600061111c846108ab565b9150915061112a8282611189565b949350505050565b6000546001600160a01b03163314610b155760405163118cdaa760e01b8152336004820152602401610fb7565b60026001540361118257604051633ee5aeb560e01b815260040160405180910390fd5b6002600155565b60008160000361119c5750600019610d3f565b600060646111ab605086611365565b6111b5919061137c565b9050826111ca670de0b6b3a764000083611365565b61112a919061137c565b6000816000036111e657506000919050565b60006111f0610eb6565b9050670de0b6b3a76400006112058285611365565b61120f919061137c565b9392505050565b600080546001600160a01b038381166001600160a01b0319831681178455604051919092169283917f8be0079c531659141344cd1fd0a4f28419497f9722a3daafe3b4186f6b6457e09190a35050565b60006020828403121561127857600080fd5b81356001600160a01b038116811461120f57600080fd5b6000602082840312156112a157600080fd5b5035919050565b805169ffffffffffffffffffff811681146112c257600080fd5b919050565b600080600080600060a086880312156112df57600080fd5b6112e8866112a8565b6020870151604088015160608901519297509095509350915061130d608087016112a8565b90509295509295909350565b60006020828403121561132b57600080fd5b815160ff8116811461120f57600080fd5b634e487b7160e01b600052601160045260246000fd5b80820180821115610d3f57610d3f61133c565b8082028115828204841417610d3f57610d3f61133c565b60008261139957634e487b7160e01b600052601260045260246000fd5b500490565b6001815b60018411156113d9578085048111156113bd576113bd61133c565b60018416156113cb57908102905b60019390931c9280026113a2565b935093915050565b6000826113f057506001610d3f565b816113fd57506000610d3f565b8160018114611413576002811461141d57611439565b6001915050610d3f565b60ff84111561142e5761142e61133c565b50506001821b610d3f565b5060208310610133831016604e8410600b841016171561145c575081810a610d3f565b611469600019848461139e565b806000190482111561147d5761147d61133c565b029392505050565b600061120f60ff8416836113e1565b81810381811115610d3f57610d3f61133c565b6000602082840312156114b957600080fd5b8151801515811461120f57600080fd5b600061120f83836113e156fea2646970667358221220cadd17ca50ab713d3fd9b6dab6215de968fa4df9c86d1a261672005dc605c1f364736f6c634300081c0033","opcodes":"PUSH1 0x80 PUSH1 0x40 MSTORE CALLVALUE DUP1 ISZERO PUSH2 0x10 JUMPI PUSH1 0x0 DUP1 REVERT JUMPDEST POP PUSH1 0x40 MLOAD PUSH2 0x1716 CODESIZE SUB DUP1 PUSH2 0x1716 DUP4 CODECOPY DUP2 ADD PUSH1 0x40 DUP2 SWAP1 MSTORE PUSH2 0x2F SWAP2 PUSH2 0x1B9 JUMP JUMPDEST DUP3 PUSH1 0x1 PUSH1 0x1 PUSH1 0xA0 SHL SUB DUP2 AND PUSH2 0x5E JUMPI PUSH1 0x40 MLOAD PUSH4 0x1E4FBDF7 PUSH1 0xE0 SHL DUP2 MSTORE PUSH1 0x0 PUSH1 0x4 DUP3 ADD MSTORE PUSH1 0x24 ADD PUSH1 0x40 MLOAD DUP1 SWAP2 SUB SWAP1 REVERT JUMPDEST PUSH2 0x67 DUP2 PUSH2 0x14D JUMP JUMPDEST POP PUSH1 0x1 DUP1 SSTORE PUSH1 0x1 PUSH1 0x1 PUSH1 0xA0 SHL SUB DUP3 AND PUSH2 0x93 JUMPI PUSH1 0x40 MLOAD PUSH4 0xE6C4247B PUSH1 0xE0 SHL DUP2 MSTORE PUSH1 0x4 ADD PUSH1 0x40 MLOAD DUP1 SWAP2 SUB SWAP1 REVERT JUMPDEST PUSH1 0x1 PUSH1 0x1 PUSH1 0xA0 SHL SUB DUP2 AND PUSH2 0xBA JUMPI PUSH1 0x40 MLOAD PUSH4 0xE6C4247B PUSH1 0xE0 SHL DUP2 MSTORE PUSH1 0x4 ADD PUSH1 0x40 MLOAD DUP1 SWAP2 SUB SWAP1 REVERT JUMPDEST PUSH1 0x3 DUP1 SLOAD PUSH1 0x1 PUSH1 0x1 PUSH1 0xA0 SHL SUB DUP1 DUP6 AND PUSH1 0x1 PUSH1 0x1 PUSH1 0xA0 SHL SUB NOT SWAP3 DUP4 AND DUP2 OR SWAP1 SWAP4 SSTORE PUSH1 0x2 DUP1 SLOAD SWAP2 DUP6 AND SWAP2 SWAP1 SWAP3 AND OR SWAP1 SSTORE PUSH1 0x40 MLOAD PUSH32 0x40D8738B990E6FF9A2F56F11247E657A1E7070472260B020A4FC3AB1844787BD SWAP1 PUSH1 0x0 SWAP1 LOG2 PUSH1 0x40 MLOAD PUSH1 0x1 PUSH1 0x1 PUSH1 0xA0 SHL SUB DUP3 AND SWAP1 PUSH32 0x85B717180AAB9A1D4B05B616CD308345F136AFCBF41E57B8575BDDB493FD3668 SWAP1 PUSH1 0x0 SWAP1 LOG2 POP POP POP PUSH2 0x1FC JUMP JUMPDEST PUSH1 0x0 DUP1 SLOAD PUSH1 0x1 PUSH1 0x1 PUSH1 0xA0 SHL SUB DUP4 DUP2 AND PUSH1 0x1 PUSH1 0x1 PUSH1 0xA0 SHL SUB NOT DUP4 AND DUP2 OR DUP5 SSTORE PUSH1 0x40 MLOAD SWAP2 SWAP1 SWAP3 AND SWAP3 DUP4 SWAP2 PUSH32 0x8BE0079C531659141344CD1FD0A4F28419497F9722A3DAAFE3B4186F6B6457E0 SWAP2 SWAP1 LOG3 POP POP JUMP JUMPDEST DUP1 MLOAD PUSH1 0x1 PUSH1 0x1 PUSH1 0xA0 SHL SUB DUP2 AND DUP2 EQ PUSH2 0x1B4 JUMPI PUSH1 0x0 DUP1 REVERT JUMPDEST SWAP2 SWAP1 POP JUMP JUMPDEST PUSH1 0x0 DUP1 PUSH1 0x0 PUSH1 0x60 DUP5 DUP7 SUB SLT ISZERO PUSH2 0x1CE JUMPI PUSH1 0x0 DUP1 REVERT JUMPDEST PUSH2 0x1D7 DUP5 PUSH2 0x19D JUMP JUMPDEST SWAP3 POP PUSH2 0x1E5 PUSH1 0x20 DUP6 ADD PUSH2 0x19D JUMP JUMPDEST SWAP2 POP PUSH2 0x1F3 PUSH1 0x40 DUP6 ADD PUSH2 0x19D JUMP JUMPDEST SWAP1 POP SWAP3 POP SWAP3 POP SWAP3 JUMP JUMPDEST PUSH2 0x150B DUP1 PUSH2 0x20B PUSH1 0x0 CODECOPY PUSH1 0x0 RETURN INVALID PUSH1 0x80 PUSH1 0x40 MSTORE PUSH1 0x4 CALLDATASIZE LT PUSH2 0x134 JUMPI PUSH1 0x0 CALLDATALOAD PUSH1 0xE0 SHR DUP1 PUSH4 0x8DA5CB5B GT PUSH2 0xAB JUMPI DUP1 PUSH4 0xD67B98A9 GT PUSH2 0x6F JUMPI DUP1 PUSH4 0xD67B98A9 EQ PUSH2 0x361 JUMPI DUP1 PUSH4 0xD88C3CB9 EQ PUSH2 0x376 JUMPI DUP1 PUSH4 0xEAF18832 EQ PUSH2 0x38B JUMPI DUP1 PUSH4 0xF2FDE38B EQ PUSH2 0x3A0 JUMPI DUP1 PUSH4 0xFE466700 EQ PUSH2 0x3C0 JUMPI DUP1 PUSH4 0xFE6BCD7C EQ PUSH2 0x3E0 JUMPI PUSH1 0x0 DUP1 REVERT JUMPDEST DUP1 PUSH4 0x8DA5CB5B EQ PUSH2 0x2C5 JUMPI DUP1 PUSH4 0xAAF5EB68 EQ PUSH2 0x2E3 JUMPI DUP1 PUSH4 0xC4EF1C4C EQ PUSH2 0x2FF JUMPI DUP1 PUSH4 0xC705A7CE EQ PUSH2 0x32C JUMPI DUP1 PUSH4 0xD365F89E EQ PUSH2 0x341 JUMPI PUSH1 0x0 DUP1 REVERT JUMPDEST DUP1 PUSH4 0x47D265E6 GT PUSH2 0xFD JUMPI DUP1 PUSH4 0x47D265E6 EQ PUSH2 0x228 JUMPI DUP1 PUSH4 0x6112FE2E EQ PUSH2 0x248 JUMPI DUP1 PUSH4 0x6F758140 EQ PUSH2 0x268 JUMPI DUP1 PUSH4 0x715018A6 EQ PUSH2 0x270 JUMPI DUP1 PUSH4 0x7388C2E6 EQ PUSH2 0x285 JUMPI DUP1 PUSH4 0x7D1A4450 EQ PUSH2 0x2A5 JUMPI PUSH1 0x0 DUP1 REVERT JUMPDEST DUP1 PUSH3 0xCF5DB4 EQ PUSH2 0x139 JUMPI DUP1 PUSH4 0x29BC969D EQ PUSH2 0x15B JUMPI DUP1 PUSH4 0x2F865568 EQ PUSH2 0x19B JUMPI DUP1 PUSH4 0x3BAADCA0 EQ PUSH2 0x1BB JUMPI DUP1 PUSH4 0x42F6FB29 EQ PUSH2 0x1F0 JUMPI JUMPDEST PUSH1 0x0 DUP1 REVERT JUMPDEST CALLVALUE DUP1 ISZERO PUSH2 0x145 JUMPI PUSH1 0x0 DUP1 REVERT JUMPDEST POP PUSH2 0x159 PUSH2 0x154 CALLDATASIZE PUSH1 0x4 PUSH2 0x1266 JUMP JUMPDEST PUSH2 0x400 JUMP JUMPDEST STOP JUMPDEST CALLVALUE DUP1 ISZERO PUSH2 0x167 JUMPI PUSH1 0x0 DUP1 REVERT JUMPDEST POP PUSH2 0x188 PUSH2 0x176 CALLDATASIZE PUSH1 0x4 PUSH2 0x1266 JUMP JUMPDEST PUSH1 0x4 PUSH1 0x20 MSTORE PUSH1 0x0 SWAP1 DUP2 MSTORE PUSH1 0x40 SWAP1 KECCAK256 SLOAD DUP2 JUMP JUMPDEST PUSH1 0x40 MLOAD SWAP1 DUP2 MSTORE PUSH1 0x20 ADD JUMPDEST PUSH1 0x40 MLOAD DUP1 SWAP2 SUB SWAP1 RETURN JUMPDEST CALLVALUE DUP1 ISZERO PUSH2 0x1A7 JUMPI PUSH1 0x0 DUP1 REVERT JUMPDEST POP PUSH2 0x159 PUSH2 0x1B6 CALLDATASIZE PUSH1 0x4 PUSH2 0x1266 JUMP JUMPDEST PUSH2 0x479 JUMP JUMPDEST CALLVALUE DUP1 ISZERO PUSH2 0x1C7 JUMPI PUSH1 0x0 DUP1 REVERT JUMPDEST POP PUSH2 0x1DB PUSH2 0x1D6 CALLDATASIZE PUSH1 0x4 PUSH2 0x1266 JUMP JUMPDEST PUSH2 0x8AB JUMP JUMPDEST PUSH1 0x40 DUP1 MLOAD SWAP3 DUP4 MSTORE PUSH1 0x20 DUP4 ADD SWAP2 SWAP1 SWAP2 MSTORE ADD PUSH2 0x192 JUMP JUMPDEST CALLVALUE DUP1 ISZERO PUSH2 0x1FC JUMPI PUSH1 0x0 DUP1 REVERT JUMPDEST POP PUSH1 0x3 SLOAD PUSH2 0x210 SWAP1 PUSH1 0x1 PUSH1 0x1 PUSH1 0xA0 SHL SUB AND DUP2 JUMP JUMPDEST PUSH1 0x40 MLOAD PUSH1 0x1 PUSH1 0x1 PUSH1 0xA0 SHL SUB SWAP1 SWAP2 AND DUP2 MSTORE PUSH1 0x20 ADD PUSH2 0x192 JUMP JUMPDEST CALLVALUE DUP1 ISZERO PUSH2 0x234 JUMPI PUSH1 0x0 DUP1 REVERT JUMPDEST POP PUSH1 0x2 SLOAD PUSH2 0x210 SWAP1 PUSH1 0x1 PUSH1 0x1 PUSH1 0xA0 SHL SUB AND DUP2 JUMP JUMPDEST CALLVALUE DUP1 ISZERO PUSH2 0x254 JUMPI PUSH1 0x0 DUP1 REVERT JUMPDEST POP PUSH2 0x159 PUSH2 0x263 CALLDATASIZE PUSH1 0x4 PUSH2 0x128F JUMP JUMPDEST PUSH2 0x8F0 JUMP JUMPDEST PUSH2 0x159 PUSH2 0xA8A JUMP JUMPDEST CALLVALUE DUP1 ISZERO PUSH2 0x27C JUMPI PUSH1 0x0 DUP1 REVERT JUMPDEST POP PUSH2 0x159 PUSH2 0xB17 JUMP JUMPDEST CALLVALUE DUP1 ISZERO PUSH2 0x291 JUMPI PUSH1 0x0 DUP1 REVERT JUMPDEST POP PUSH2 0x159 PUSH2 0x2A0 CALLDATASIZE PUSH1 0x4 PUSH2 0x128F JUMP JUMPDEST PUSH2 0xB29 JUMP JUMPDEST CALLVALUE DUP1 ISZERO PUSH2 0x2B1 JUMPI PUSH1 0x0 DUP1 REVERT JUMPDEST POP PUSH2 0x188 PUSH2 0x2C0 CALLDATASIZE PUSH1 0x4 PUSH2 0x1266 JUMP JUMPDEST PUSH2 0xD1D JUMP JUMPDEST CALLVALUE DUP1 ISZERO PUSH2 0x2D1 JUMPI PUSH1 0x0 DUP1 REVERT JUMPDEST POP PUSH1 0x0 SLOAD PUSH1 0x1 PUSH1 0x1 PUSH1 0xA0 SHL SUB AND PUSH2 0x210 JUMP JUMPDEST CALLVALUE DUP1 ISZERO PUSH2 0x2EF JUMPI PUSH1 0x0 DUP1 REVERT JUMPDEST POP PUSH2 0x188 PUSH8 0xDE0B6B3A7640000 DUP2 JUMP JUMPDEST CALLVALUE DUP1 ISZERO PUSH2 0x30B JUMPI PUSH1 0x0 DUP1 REVERT JUMPDEST POP PUSH2 0x188 PUSH2 0x31A CALLDATASIZE PUSH1 0x4 PUSH2 0x1266 JUMP JUMPDEST PUSH1 0x5 PUSH1 0x20 MSTORE PUSH1 0x0 SWAP1 DUP2 MSTORE PUSH1 0x40 SWAP1 KECCAK256 SLOAD DUP2 JUMP JUMPDEST CALLVALUE DUP1 ISZERO PUSH2 0x338 JUMPI PUSH1 0x0 DUP1 REVERT JUMPDEST POP PUSH2 0x188 PUSH1 0x50 DUP2 JUMP JUMPDEST CALLVALUE DUP1 ISZERO PUSH2 0x34D JUMPI PUSH1 0x0 DUP1 REVERT JUMPDEST POP PUSH2 0x159 PUSH2 0x35C CALLDATASIZE PUSH1 0x4 PUSH2 0x128F JUMP JUMPDEST PUSH2 0xD45 JUMP JUMPDEST CALLVALUE DUP1 ISZERO PUSH2 0x36D JUMPI PUSH1 0x0 DUP1 REVERT JUMPDEST POP PUSH2 0x188 PUSH2 0xEB6 JUMP JUMPDEST CALLVALUE DUP1 ISZERO PUSH2 0x382 JUMPI PUSH1 0x0 DUP1 REVERT JUMPDEST POP PUSH2 0x188 PUSH1 0x42 DUP2 JUMP JUMPDEST CALLVALUE DUP1 ISZERO PUSH2 0x397 JUMPI PUSH1 0x0 DUP1 REVERT JUMPDEST POP PUSH2 0x188 PUSH1 0x5 DUP2 JUMP JUMPDEST CALLVALUE DUP1 ISZERO PUSH2 0x3AC JUMPI PUSH1 0x0 DUP1 REVERT JUMPDEST POP PUSH2 0x159 PUSH2 0x3BB CALLDATASIZE PUSH1 0x4 PUSH2 0x1266 JUMP JUMPDEST PUSH2 0x105A JUMP JUMPDEST CALLVALUE DUP1 ISZERO PUSH2 0x3CC JUMPI PUSH1 0x0 DUP1 REVERT JUMPDEST POP PUSH2 0x159 PUSH2 0x3DB CALLDATASIZE PUSH1 0x4 PUSH2 0x1266 JUMP JUMPDEST PUSH2 0x1095 JUMP JUMPDEST CALLVALUE DUP1 ISZERO PUSH2 0x3EC JUMPI PUSH1 0x0 DUP1 REVERT JUMPDEST POP PUSH2 0x188 PUSH2 0x3FB CALLDATASIZE PUSH1 0x4 PUSH2 0x1266 JUMP JUMPDEST PUSH2 0x110E JUMP JUMPDEST PUSH2 0x408 PUSH2 0x1132 JUMP JUMPDEST PUSH1 0x1 PUSH1 0x1 PUSH1 0xA0 SHL SUB DUP2 AND PUSH2 0x42F JUMPI PUSH1 0x40 MLOAD PUSH4 0xE6C4247B PUSH1 0xE0 SHL DUP2 MSTORE PUSH1 0x4 ADD PUSH1 0x40 MLOAD DUP1 SWAP2 SUB SWAP1 REVERT JUMPDEST PUSH1 0x3 DUP1 SLOAD PUSH1 0x1 PUSH1 0x1 PUSH1 0xA0 SHL SUB NOT AND PUSH1 0x1 PUSH1 0x1 PUSH1 0xA0 SHL SUB DUP4 AND SWAP1 DUP2 OR SWAP1 SWAP2 SSTORE PUSH1 0x40 MLOAD PUSH32 0x40D8738B990E6FF9A2F56F11247E657A1E7070472260B020A4FC3AB1844787BD SWAP1 PUSH1 0x0 SWAP1 LOG2 POP JUMP JUMPDEST PUSH2 0x481 PUSH2 0x115F JUMP JUMPDEST PUSH1 0x0 DUP1 PUSH2 0x48D DUP4 PUSH2 0x8AB JUMP JUMPDEST SWAP2 POP SWAP2 POP PUSH1 0x0 PUSH2 0x49D DUP4 DUP4 PUSH2 0x1189 JUMP JUMPDEST SWAP1 POP PUSH8 0xDE0B6B3A7640000 DUP2 LT PUSH2 0x4C7 JUMPI PUSH1 0x40 MLOAD PUSH4 0x85048A9 PUSH1 0xE2 SHL DUP2 MSTORE PUSH1 0x4 ADD PUSH1 0x40 MLOAD DUP1 SWAP2 SUB SWAP1 REVERT JUMPDEST PUSH1 0x1 PUSH1 0x1 PUSH1 0xA0 SHL SUB DUP5 AND PUSH1 0x0 SWAP1 DUP2 MSTORE PUSH1 0x5 PUSH1 0x20 MSTORE PUSH1 0x40 DUP2 KECCAK256 SLOAD SWAP1 DUP2 SWAP1 SUB PUSH2 0x501 JUMPI PUSH1 0x40 MLOAD PUSH4 0x7E1C5411 PUSH1 0xE1 SHL DUP2 MSTORE PUSH1 0x4 ADD PUSH1 0x40 MLOAD DUP1 SWAP2 SUB SWAP1 REVERT JUMPDEST PUSH1 0x3 SLOAD PUSH1 0x40 DUP1 MLOAD PUSH4 0x3FABE5A3 PUSH1 0xE2 SHL DUP2 MSTORE SWAP1 MLOAD PUSH1 0x0 SWAP3 PUSH1 0x1 PUSH1 0x1 PUSH1 0xA0 SHL SUB AND SWAP2 PUSH4 0xFEAF968C SWAP2 PUSH1 0x4 DUP1 DUP4 ADD SWAP3 PUSH1 0xA0 SWAP3 SWAP2 SWAP1 DUP3 SWAP1 SUB ADD DUP2 DUP7 GAS STATICCALL ISZERO DUP1 ISZERO PUSH2 0x54B JUMPI RETURNDATASIZE PUSH1 0x0 DUP1 RETURNDATACOPY RETURNDATASIZE PUSH1 0x0 REVERT JUMPDEST POP POP POP POP PUSH1 0x40 MLOAD RETURNDATASIZE PUSH1 0x1F NOT PUSH1 0x1F DUP3 ADD AND DUP3 ADD DUP1 PUSH1 0x40 MSTORE POP DUP2 ADD SWAP1 PUSH2 0x56F SWAP2 SWAP1 PUSH2 0x12C7 JUMP JUMPDEST POP POP POP SWAP2 POP POP PUSH1 0x0 DUP2 SGT PUSH2 0x596 JUMPI PUSH1 0x40 MLOAD PUSH4 0x7806B65 PUSH1 0xE3 SHL DUP2 MSTORE PUSH1 0x4 ADD PUSH1 0x40 MLOAD DUP1 SWAP2 SUB SWAP1 REVERT JUMPDEST PUSH1 0x3 SLOAD PUSH1 0x40 DUP1 MLOAD PUSH4 0x313CE567 PUSH1 0xE0 SHL DUP2 MSTORE SWAP1 MLOAD DUP4 SWAP3 PUSH1 0x0 SWAP3 PUSH1 0x1 PUSH1 0x1 PUSH1 0xA0 SHL SUB SWAP1 SWAP2 AND SWAP2 PUSH4 0x313CE567 SWAP2 PUSH1 0x4 DUP1 DUP3 ADD SWAP3 PUSH1 0x20 SWAP3 SWAP1 SWAP2 SWAP1 DUP3 SWAP1 SUB ADD DUP2 DUP7 GAS STATICCALL ISZERO DUP1 ISZERO PUSH2 0x5E5 JUMPI RETURNDATASIZE PUSH1 0x0 DUP1 RETURNDATACOPY RETURNDATASIZE PUSH1 0x0 REVERT JUMPDEST POP POP POP POP PUSH1 0x40 MLOAD RETURNDATASIZE PUSH1 0x1F NOT PUSH1 0x1F DUP3 ADD AND DUP3 ADD DUP1 PUSH1 0x40 MSTORE POP DUP2 ADD SWAP1 PUSH2 0x609 SWAP2 SWAP1 PUSH2 0x1319 JUMP JUMPDEST SWAP1 POP PUSH1 0x0 PUSH1 0x64 PUSH2 0x61A PUSH1 0x5 DUP3 PUSH2 0x1352 JUMP JUMPDEST PUSH2 0x624 SWAP1 DUP8 PUSH2 0x1365 JUMP JUMPDEST PUSH2 0x62E SWAP2 SWAP1 PUSH2 0x137C JUMP JUMPDEST SWAP1 POP PUSH1 0x0 DUP4 PUSH2 0x63E DUP5 PUSH1 0xA PUSH2 0x1485 JUMP JUMPDEST PUSH2 0x648 SWAP1 DUP5 PUSH2 0x1365 JUMP JUMPDEST PUSH2 0x652 SWAP2 SWAP1 PUSH2 0x137C JUMP JUMPDEST PUSH1 0x1 PUSH1 0x1 PUSH1 0xA0 SHL SUB DUP12 AND PUSH1 0x0 SWAP1 DUP2 MSTORE PUSH1 0x4 PUSH1 0x20 MSTORE PUSH1 0x40 SWAP1 KECCAK256 SLOAD SWAP1 SWAP2 POP DUP1 DUP3 GT ISZERO PUSH2 0x67A JUMPI DUP1 SWAP2 POP JUMPDEST PUSH1 0x1 PUSH1 0x1 PUSH1 0xA0 SHL SUB DUP12 AND PUSH1 0x0 SWAP1 DUP2 MSTORE PUSH1 0x4 PUSH1 0x20 MSTORE PUSH1 0x40 DUP2 KECCAK256 DUP1 SLOAD DUP5 SWAP3 SWAP1 PUSH2 0x6A2 SWAP1 DUP5 SWAP1 PUSH2 0x1494 JUMP JUMPDEST SWAP1 SWAP2 SSTORE POP POP PUSH1 0x1 PUSH1 0x1 PUSH1 0xA0 SHL SUB DUP12 AND PUSH1 0x0 SWAP1 DUP2 MSTORE PUSH1 0x5 PUSH1 0x20 MSTORE PUSH1 0x40 DUP2 KECCAK256 DUP1 SLOAD DUP10 SWAP3 SWAP1 PUSH2 0x6CF SWAP1 DUP5 SWAP1 PUSH2 0x1494 JUMP JUMPDEST SWAP1 SWAP2 SSTORE POP POP PUSH1 0x2 SLOAD PUSH1 0x40 MLOAD PUSH4 0x23B872DD PUSH1 0xE0 SHL DUP2 MSTORE CALLER PUSH1 0x4 DUP3 ADD MSTORE ADDRESS PUSH1 0x24 DUP3 ADD MSTORE PUSH1 0x44 DUP2 ADD DUP10 SWAP1 MSTORE PUSH1 0x0 SWAP2 PUSH1 0x1 PUSH1 0x1 PUSH1 0xA0 SHL SUB AND SWAP1 PUSH4 0x23B872DD SWAP1 PUSH1 0x64 ADD PUSH1 0x20 PUSH1 0x40 MLOAD DUP1 DUP4 SUB DUP2 PUSH1 0x0 DUP8 GAS CALL ISZERO DUP1 ISZERO PUSH2 0x72C JUMPI RETURNDATASIZE PUSH1 0x0 DUP1 RETURNDATACOPY RETURNDATASIZE PUSH1 0x0 REVERT JUMPDEST POP POP POP POP PUSH1 0x40 MLOAD RETURNDATASIZE PUSH1 0x1F NOT PUSH1 0x1F DUP3 ADD AND DUP3 ADD DUP1 PUSH1 0x40 MSTORE POP DUP2 ADD SWAP1 PUSH2 0x750 SWAP2 SWAP1 PUSH2 0x14A7 JUMP JUMPDEST SWAP1 POP DUP1 PUSH2 0x770 JUMPI PUSH1 0x40 MLOAD PUSH4 0x12171D83 PUSH1 0xE3 SHL DUP2 MSTORE PUSH1 0x4 ADD PUSH1 0x40 MLOAD DUP1 SWAP2 SUB SWAP1 REVERT JUMPDEST PUSH1 0x2 SLOAD PUSH1 0x40 MLOAD PUSH4 0x2770A7EB PUSH1 0xE2 SHL DUP2 MSTORE ADDRESS PUSH1 0x4 DUP3 ADD MSTORE PUSH1 0x24 DUP2 ADD DUP11 SWAP1 MSTORE PUSH1 0x1 PUSH1 0x1 PUSH1 0xA0 SHL SUB SWAP1 SWAP2 AND SWAP1 PUSH4 0x9DC29FAC SWAP1 PUSH1 0x44 ADD PUSH1 0x0 PUSH1 0x40 MLOAD DUP1 DUP4 SUB DUP2 PUSH1 0x0 DUP8 DUP1 EXTCODESIZE ISZERO DUP1 ISZERO PUSH2 0x7BC JUMPI PUSH1 0x0 DUP1 REVERT JUMPDEST POP GAS CALL ISZERO DUP1 ISZERO PUSH2 0x7D0 JUMPI RETURNDATASIZE PUSH1 0x0 DUP1 RETURNDATACOPY RETURNDATASIZE PUSH1 0x0 REVERT JUMPDEST POP POP PUSH1 0x40 MLOAD PUSH1 0x0 SWAP3 POP CALLER SWAP2 POP DUP6 SWAP1 DUP4 DUP2 DUP2 DUP2 DUP6 DUP8 GAS CALL SWAP3 POP POP POP RETURNDATASIZE DUP1 PUSH1 0x0 DUP2 EQ PUSH2 0x816 JUMPI PUSH1 0x40 MLOAD SWAP2 POP PUSH1 0x1F NOT PUSH1 0x3F RETURNDATASIZE ADD AND DUP3 ADD PUSH1 0x40 MSTORE RETURNDATASIZE DUP3 MSTORE RETURNDATASIZE PUSH1 0x0 PUSH1 0x20 DUP5 ADD RETURNDATACOPY PUSH2 0x81B JUMP JUMPDEST PUSH1 0x60 SWAP2 POP JUMPDEST POP POP SWAP1 POP DUP1 PUSH2 0x83D JUMPI PUSH1 0x40 MLOAD PUSH4 0x12171D83 PUSH1 0xE3 SHL DUP2 MSTORE PUSH1 0x4 ADD PUSH1 0x40 MLOAD DUP1 SWAP2 SUB SWAP1 REVERT JUMPDEST CALLER PUSH1 0x1 PUSH1 0x1 PUSH1 0xA0 SHL SUB AND DUP14 PUSH1 0x1 PUSH1 0x1 PUSH1 0xA0 SHL SUB AND PUSH32 0xA457ABEAE7105EB8BCCBB20968069D940E939BC0C8D8B9C2C13AAED4755E68C3 DUP7 DUP13 PUSH1 0x40 MLOAD PUSH2 0x88B SWAP3 SWAP2 SWAP1 SWAP2 DUP3 MSTORE PUSH1 0x20 DUP3 ADD MSTORE PUSH1 0x40 ADD SWAP1 JUMP JUMPDEST PUSH1 0x40 MLOAD DUP1 SWAP2 SUB SWAP1 LOG3 POP POP POP POP POP POP POP POP POP POP POP POP PUSH2 0x8A8 PUSH1 0x1 DUP1 SSTORE JUMP JUMPDEST POP JUMP JUMPDEST PUSH1 0x1 PUSH1 0x1 PUSH1 0xA0 SHL SUB DUP2 AND PUSH1 0x0 SWAP1 DUP2 MSTORE PUSH1 0x4 PUSH1 0x20 MSTORE PUSH1 0x40 DUP2 KECCAK256 SLOAD DUP2 SWAP1 PUSH2 0x8CF SWAP1 PUSH2 0x11D4 JUMP JUMPDEST PUSH1 0x1 PUSH1 0x1 PUSH1 0xA0 SHL SUB SWAP1 SWAP4 AND PUSH1 0x0 SWAP1 DUP2 MSTORE PUSH1 0x5 PUSH1 0x20 MSTORE PUSH1 0x40 SWAP1 KECCAK256 SLOAD SWAP3 SWAP4 SWAP2 POP POP JUMP JUMPDEST PUSH2 0x8F8 PUSH2 0x115F JUMP JUMPDEST DUP1 PUSH1 0x0 SUB PUSH2 0x919 JUMPI PUSH1 0x40 MLOAD PUSH4 0x5E85AE73 PUSH1 0xE0 SHL DUP2 MSTORE PUSH1 0x4 ADD PUSH1 0x40 MLOAD DUP1 SWAP2 SUB SWAP1 REVERT JUMPDEST CALLER PUSH1 0x0 SWAP1 DUP2 MSTORE PUSH1 0x4 PUSH1 0x20 MSTORE PUSH1 0x40 SWAP1 KECCAK256 SLOAD DUP1 DUP3 GT ISZERO PUSH2 0x94A JUMPI PUSH1 0x40 MLOAD PUSH4 0x3A23D825 PUSH1 0xE0 SHL DUP2 MSTORE PUSH1 0x4 ADD PUSH1 0x40 MLOAD DUP1 SWAP2 SUB SWAP1 REVERT JUMPDEST PUSH2 0x954 DUP3 DUP3 PUSH2 0x1494 JUMP JUMPDEST CALLER PUSH1 0x0 SWAP1 DUP2 MSTORE PUSH1 0x4 PUSH1 0x20 SWAP1 DUP2 MSTORE PUSH1 0x40 DUP1 DUP4 KECCAK256 SWAP4 SWAP1 SWAP4 SSTORE PUSH1 0x5 SWAP1 MSTORE KECCAK256 SLOAD ISZERO PUSH2 0x9E1 JUMPI CALLER PUSH1 0x0 SWAP1 DUP2 MSTORE PUSH1 0x4 PUSH1 0x20 MSTORE PUSH1 0x40 DUP2 KECCAK256 SLOAD PUSH2 0x98E SWAP1 PUSH2 0x11D4 JUMP JUMPDEST CALLER PUSH1 0x0 SWAP1 DUP2 MSTORE PUSH1 0x5 PUSH1 0x20 MSTORE PUSH1 0x40 SWAP1 KECCAK256 SLOAD SWAP1 SWAP2 POP DUP1 ISZERO DUP1 ISZERO SWAP1 PUSH2 0x9C0 JUMPI POP PUSH8 0xDE0B6B3A7640000 PUSH2 0x9BE DUP4 DUP4 PUSH2 0x1189 JUMP JUMPDEST LT JUMPDEST ISZERO PUSH2 0x9DE JUMPI PUSH1 0x40 MLOAD PUSH4 0x3A23D825 PUSH1 0xE0 SHL DUP2 MSTORE PUSH1 0x4 ADD PUSH1 0x40 MLOAD DUP1 SWAP2 SUB SWAP1 REVERT JUMPDEST POP POP JUMPDEST PUSH1 0x40 MLOAD PUSH1 0x0 SWAP1 CALLER SWAP1 DUP5 SWAP1 DUP4 DUP2 DUP2 DUP2 DUP6 DUP8 GAS CALL SWAP3 POP POP POP RETURNDATASIZE DUP1 PUSH1 0x0 DUP2 EQ PUSH2 0xA23 JUMPI PUSH1 0x40 MLOAD SWAP2 POP PUSH1 0x1F NOT PUSH1 0x3F RETURNDATASIZE ADD AND DUP3 ADD PUSH1 0x40 MSTORE RETURNDATASIZE DUP3 MSTORE RETURNDATASIZE PUSH1 0x0 PUSH1 0x20 DUP5 ADD RETURNDATACOPY PUSH2 0xA28 JUMP JUMPDEST PUSH1 0x60 SWAP2 POP JUMPDEST POP POP SWAP1 POP DUP1 PUSH2 0xA4A JUMPI PUSH1 0x40 MLOAD PUSH4 0x12171D83 PUSH1 0xE3 SHL DUP2 MSTORE PUSH1 0x4 ADD PUSH1 0x40 MLOAD DUP1 SWAP2 SUB SWAP1 REVERT JUMPDEST PUSH1 0x40 MLOAD DUP4 DUP2 MSTORE CALLER SWAP1 PUSH32 0xC30FCFBCAAC9E0DEFFA719714EAA82396FF506A0D0D0EEBE170830177288715D SWAP1 PUSH1 0x20 ADD PUSH1 0x40 MLOAD DUP1 SWAP2 SUB SWAP1 LOG2 POP POP PUSH2 0x8A8 PUSH1 0x1 DUP1 SSTORE JUMP JUMPDEST PUSH2 0xA92 PUSH2 0x115F JUMP JUMPDEST CALLVALUE PUSH1 0x0 SUB PUSH2 0xAB3 JUMPI PUSH1 0x40 MLOAD PUSH4 0x5E85AE73 PUSH1 0xE0 SHL DUP2 MSTORE PUSH1 0x4 ADD PUSH1 0x40 MLOAD DUP1 SWAP2 SUB SWAP1 REVERT JUMPDEST CALLER PUSH1 0x0 SWAP1 DUP2 MSTORE PUSH1 0x4 PUSH1 0x20 MSTORE PUSH1 0x40 DUP2 KECCAK256 DUP1 SLOAD CALLVALUE SWAP3 SWAP1 PUSH2 0xAD2 SWAP1 DUP5 SWAP1 PUSH2 0x1352 JUMP JUMPDEST SWAP1 SWAP2 SSTORE POP POP PUSH1 0x40 MLOAD CALLVALUE DUP2 MSTORE CALLER SWAP1 PUSH32 0xD7243F6F8212D5188FD054141CF6EA89CFC0D91FACB8C3AFE2F88A1358480142 SWAP1 PUSH1 0x20 ADD PUSH1 0x40 MLOAD DUP1 SWAP2 SUB SWAP1 LOG2 PUSH2 0xB15 PUSH1 0x1 DUP1 SSTORE JUMP JUMPDEST JUMP JUMPDEST PUSH2 0xB1F PUSH2 0x1132 JUMP JUMPDEST PUSH2 0xB15 PUSH1 0x0 PUSH2 0x1216 JUMP JUMPDEST PUSH2 0xB31 PUSH2 0x115F JUMP JUMPDEST DUP1 PUSH1 0x0 SUB PUSH2 0xB52 JUMPI PUSH1 0x40 MLOAD PUSH4 0x5E85AE73 PUSH1 0xE0 SHL DUP2 MSTORE PUSH1 0x4 ADD PUSH1 0x40 MLOAD DUP1 SWAP2 SUB SWAP1 REVERT JUMPDEST PUSH1 0x2 SLOAD PUSH1 0x1 PUSH1 0x1 PUSH1 0xA0 SHL SUB AND PUSH2 0xB7B JUMPI PUSH1 0x40 MLOAD PUSH4 0x27A8311F PUSH1 0xE1 SHL DUP2 MSTORE PUSH1 0x4 ADD PUSH1 0x40 MLOAD DUP1 SWAP2 SUB SWAP1 REVERT JUMPDEST CALLER PUSH1 0x0 SWAP1 DUP2 MSTORE PUSH1 0x5 PUSH1 0x20 MSTORE PUSH1 0x40 DUP2 KECCAK256 SLOAD SWAP1 DUP2 SWAP1 SUB PUSH2 0xBAC JUMPI PUSH1 0x40 MLOAD PUSH4 0x7E1C5411 PUSH1 0xE1 SHL DUP2 MSTORE PUSH1 0x4 ADD PUSH1 0x40 MLOAD DUP1 SWAP2 SUB SWAP1 REVERT JUMPDEST PUSH1 0x0 DUP2 DUP4 GT PUSH2 0xBBB JUMPI DUP3 PUSH2 0xBBD JUMP JUMPDEST DUP2 JUMPDEST SWAP1 POP PUSH2 0xBC9 DUP2 DUP4 PUSH2 0x1494 JUMP JUMPDEST CALLER PUSH1 0x0 DUP2 DUP2 MSTORE PUSH1 0x5 PUSH1 0x20 MSTORE PUSH1 0x40 DUP1 DUP3 KECCAK256 SWAP4 SWAP1 SWAP4 SSTORE PUSH1 0x2 SLOAD SWAP3 MLOAD PUSH4 0x23B872DD PUSH1 0xE0 SHL DUP2 MSTORE PUSH1 0x4 DUP2 ADD SWAP3 SWAP1 SWAP3 MSTORE ADDRESS PUSH1 0x24 DUP4 ADD MSTORE PUSH1 0x44 DUP3 ADD DUP5 SWAP1 MSTORE SWAP2 PUSH1 0x1 PUSH1 0x1 PUSH1 0xA0 SHL SUB AND SWAP1 PUSH4 0x23B872DD SWAP1 PUSH1 0x64 ADD PUSH1 0x20 PUSH1 0x40 MLOAD DUP1 DUP4 SUB DUP2 PUSH1 0x0 DUP8 GAS CALL ISZERO DUP1 ISZERO PUSH2 0xC34 JUMPI RETURNDATASIZE PUSH1 0x0 DUP1 RETURNDATACOPY RETURNDATASIZE PUSH1 0x0 REVERT JUMPDEST POP POP POP POP PUSH1 0x40 MLOAD RETURNDATASIZE PUSH1 0x1F NOT PUSH1 0x1F DUP3 ADD AND DUP3 ADD DUP1 PUSH1 0x40 MSTORE POP DUP2 ADD SWAP1 PUSH2 0xC58 SWAP2 SWAP1 PUSH2 0x14A7 JUMP JUMPDEST SWAP1 POP DUP1 PUSH2 0xC78 JUMPI PUSH1 0x40 MLOAD PUSH4 0x12171D83 PUSH1 0xE3 SHL DUP2 MSTORE PUSH1 0x4 ADD PUSH1 0x40 MLOAD DUP1 SWAP2 SUB SWAP1 REVERT JUMPDEST PUSH1 0x2 SLOAD PUSH1 0x40 MLOAD PUSH4 0x2770A7EB PUSH1 0xE2 SHL DUP2 MSTORE ADDRESS PUSH1 0x4 DUP3 ADD MSTORE PUSH1 0x24 DUP2 ADD DUP5 SWAP1 MSTORE PUSH1 0x1 PUSH1 0x1 PUSH1 0xA0 SHL SUB SWAP1 SWAP2 AND SWAP1 PUSH4 0x9DC29FAC SWAP1 PUSH1 0x44 ADD PUSH1 0x0 PUSH1 0x40 MLOAD DUP1 DUP4 SUB DUP2 PUSH1 0x0 DUP8 DUP1 EXTCODESIZE ISZERO DUP1 ISZERO PUSH2 0xCC4 JUMPI PUSH1 0x0 DUP1 REVERT JUMPDEST POP GAS CALL ISZERO DUP1 ISZERO PUSH2 0xCD8 JUMPI RETURNDATASIZE PUSH1 0x0 DUP1 RETURNDATACOPY RETURNDATASIZE PUSH1 0x0 REVERT JUMPDEST POP POP PUSH1 0x40 MLOAD DUP5 DUP2 MSTORE CALLER SWAP3 POP PUSH32 0xC200A1F31DD659E356E0F112C82558E25F49F7B0F84438691CD96F5CB3558823 SWAP2 POP PUSH1 0x20 ADD PUSH1 0x40 MLOAD DUP1 SWAP2 SUB SWAP1 LOG2 POP POP POP PUSH2 0x8A8 PUSH1 0x1 DUP1 SSTORE JUMP JUMPDEST PUSH1 0x1 PUSH1 0x1 PUSH1 0xA0 SHL SUB DUP2 AND PUSH1 0x0 SWAP1 DUP2 MSTORE PUSH1 0x4 PUSH1 0x20 MSTORE PUSH1 0x40 DUP2 KECCAK256 SLOAD PUSH2 0xD3F SWAP1 PUSH2 0x11D4 JUMP JUMPDEST SWAP3 SWAP2 POP POP JUMP JUMPDEST PUSH2 0xD4D PUSH2 0x115F JUMP JUMPDEST DUP1 PUSH1 0x0 SUB PUSH2 0xD6E JUMPI PUSH1 0x40 MLOAD PUSH4 0x5E85AE73 PUSH1 0xE0 SHL DUP2 MSTORE PUSH1 0x4 ADD PUSH1 0x40 MLOAD DUP1 SWAP2 SUB SWAP1 REVERT JUMPDEST PUSH1 0x2 SLOAD PUSH1 0x1 PUSH1 0x1 PUSH1 0xA0 SHL SUB AND PUSH2 0xD97 JUMPI PUSH1 0x40 MLOAD PUSH4 0x27A8311F PUSH1 0xE1 SHL DUP2 MSTORE PUSH1 0x4 ADD PUSH1 0x40 MLOAD DUP1 SWAP2 SUB SWAP1 REVERT JUMPDEST CALLER PUSH1 0x0 DUP2 DUP2 MSTORE PUSH1 0x5 PUSH1 0x20 MSTORE PUSH1 0x40 DUP2 KECCAK256 SLOAD SWAP2 PUSH2 0xDB1 SWAP1 PUSH2 0xD1D JUMP JUMPDEST SWAP1 POP PUSH1 0x0 PUSH1 0x64 PUSH2 0xDC2 PUSH1 0x42 DUP5 PUSH2 0x1365 JUMP JUMPDEST PUSH2 0xDCC SWAP2 SWAP1 PUSH2 0x137C JUMP JUMPDEST SWAP1 POP PUSH1 0x0 PUSH2 0xDDA DUP6 DUP6 PUSH2 0x1352 JUMP JUMPDEST SWAP1 POP DUP2 DUP2 GT ISZERO PUSH2 0xDFD JUMPI PUSH1 0x40 MLOAD PUSH4 0x3A23D825 PUSH1 0xE0 SHL DUP2 MSTORE PUSH1 0x4 ADD PUSH1 0x40 MLOAD DUP1 SWAP2 SUB SWAP1 REVERT JUMPDEST CALLER PUSH1 0x0 DUP2 DUP2 MSTORE PUSH1 0x5 PUSH1 0x20 MSTORE PUSH1 0x40 SWAP1 DUP2 SWAP1 KECCAK256 DUP4 SWAP1 SSTORE PUSH1 0x2 SLOAD SWAP1 MLOAD PUSH4 0x40C10F19 PUSH1 0xE0 SHL DUP2 MSTORE PUSH1 0x4 DUP2 ADD SWAP3 SWAP1 SWAP3 MSTORE PUSH1 0x24 DUP3 ADD DUP8 SWAP1 MSTORE PUSH1 0x1 PUSH1 0x1 PUSH1 0xA0 SHL SUB AND SWAP1 PUSH4 0x40C10F19 SWAP1 PUSH1 0x44 ADD PUSH1 0x0 PUSH1 0x40 MLOAD DUP1 DUP4 SUB DUP2 PUSH1 0x0 DUP8 DUP1 EXTCODESIZE ISZERO DUP1 ISZERO PUSH2 0xE5C JUMPI PUSH1 0x0 DUP1 REVERT JUMPDEST POP GAS CALL ISZERO DUP1 ISZERO PUSH2 0xE70 JUMPI RETURNDATASIZE PUSH1 0x0 DUP1 RETURNDATACOPY RETURNDATASIZE PUSH1 0x0 REVERT JUMPDEST POP POP PUSH1 0x40 MLOAD DUP8 DUP2 MSTORE CALLER SWAP3 POP PUSH32 0xFB8EA5178AC89FF9D832E8C9C1B977CA7AB31F52AC7A4179F2E2E065B093565B SWAP2 POP PUSH1 0x20 ADD PUSH1 0x40 MLOAD DUP1 SWAP2 SUB SWAP1 LOG2 POP POP POP POP PUSH2 0x8A8 PUSH1 0x1 DUP1 SSTORE JUMP JUMPDEST PUSH1 0x3 SLOAD PUSH1 0x0 SWAP1 PUSH1 0x1 PUSH1 0x1 PUSH1 0xA0 SHL SUB AND PUSH2 0xEE2 JUMPI PUSH1 0x40 MLOAD PUSH4 0x7E68A045 PUSH1 0xE0 SHL DUP2 MSTORE PUSH1 0x4 ADD PUSH1 0x40 MLOAD DUP1 SWAP2 SUB SWAP1 REVERT JUMPDEST PUSH1 0x3 SLOAD PUSH1 0x40 DUP1 MLOAD PUSH4 0x3FABE5A3 PUSH1 0xE2 SHL DUP2 MSTORE SWAP1 MLOAD PUSH1 0x0 SWAP3 PUSH1 0x1 PUSH1 0x1 PUSH1 0xA0 SHL SUB AND SWAP2 PUSH4 0xFEAF968C SWAP2 PUSH1 0x4 DUP1 DUP4 ADD SWAP3 PUSH1 0xA0 SWAP3 SWAP2 SWAP1 DUP3 SWAP1 SUB ADD DUP2 DUP7 GAS STATICCALL ISZERO DUP1 ISZERO PUSH2 0xF2C JUMPI RETURNDATASIZE PUSH1 0x0 DUP1 RETURNDATACOPY RETURNDATASIZE PUSH1 0x0 REVERT JUMPDEST POP POP POP POP PUSH1 0x40 MLOAD RETURNDATASIZE PUSH1 0x1F NOT PUSH1 0x1F DUP3 ADD AND DUP3 ADD DUP1 PUSH1 0x40 MSTORE POP DUP2 ADD SWAP1 PUSH2 0xF50 SWAP2 SWAP1 PUSH2 0x12C7 JUMP JUMPDEST POP POP POP SWAP2 POP POP PUSH1 0x0 DUP2 SGT PUSH2 0xFC0 JUMPI PUSH1 0x40 MLOAD PUSH3 0x461BCD PUSH1 0xE5 SHL DUP2 MSTORE PUSH1 0x20 PUSH1 0x4 DUP3 ADD MSTORE PUSH1 0x2C PUSH1 0x24 DUP3 ADD MSTORE PUSH32 0x436F6C6C61746572616C4D616E616765723A20496E76616C6964207072696365 PUSH1 0x44 DUP3 ADD MSTORE PUSH12 0x2066726F6D206F7261636C65 PUSH1 0xA0 SHL PUSH1 0x64 DUP3 ADD MSTORE PUSH1 0x84 ADD JUMPDEST PUSH1 0x40 MLOAD DUP1 SWAP2 SUB SWAP1 REVERT JUMPDEST PUSH1 0x3 SLOAD PUSH1 0x40 DUP1 MLOAD PUSH4 0x313CE567 PUSH1 0xE0 SHL DUP2 MSTORE SWAP1 MLOAD PUSH1 0x0 SWAP3 PUSH1 0x1 PUSH1 0x1 PUSH1 0xA0 SHL SUB AND SWAP2 PUSH4 0x313CE567 SWAP2 PUSH1 0x4 DUP1 DUP4 ADD SWAP3 PUSH1 0x20 SWAP3 SWAP2 SWAP1 DUP3 SWAP1 SUB ADD DUP2 DUP7 GAS STATICCALL ISZERO DUP1 ISZERO PUSH2 0x100A JUMPI RETURNDATASIZE PUSH1 0x0 DUP1 RETURNDATACOPY RETURNDATASIZE PUSH1 0x0 REVERT JUMPDEST POP POP POP POP PUSH1 0x40 MLOAD RETURNDATASIZE PUSH1 0x1F NOT PUSH1 0x1F DUP3 ADD AND DUP3 ADD DUP1 PUSH1 0x40 MSTORE POP DUP2 ADD SWAP1 PUSH2 0x102E SWAP2 SWAP1 PUSH2 0x1319 JUMP JUMPDEST SWAP1 POP PUSH2 0x103E PUSH1 0xFF DUP3 AND PUSH1 0x12 PUSH2 0x1494 JUMP JUMPDEST PUSH2 0x1049 SWAP1 PUSH1 0xA PUSH2 0x14C9 JUMP JUMPDEST PUSH2 0x1053 SWAP1 DUP4 PUSH2 0x1365 JUMP JUMPDEST SWAP3 POP POP POP SWAP1 JUMP JUMPDEST PUSH2 0x1062 PUSH2 0x1132 JUMP JUMPDEST PUSH1 0x1 PUSH1 0x1 PUSH1 0xA0 SHL SUB DUP2 AND PUSH2 0x108C JUMPI PUSH1 0x40 MLOAD PUSH4 0x1E4FBDF7 PUSH1 0xE0 SHL DUP2 MSTORE PUSH1 0x0 PUSH1 0x4 DUP3 ADD MSTORE PUSH1 0x24 ADD PUSH2 0xFB7 JUMP JUMPDEST PUSH2 0x8A8 DUP2 PUSH2 0x1216 JUMP JUMPDEST PUSH2 0x109D PUSH2 0x1132 JUMP JUMPDEST PUSH1 0x1 PUSH1 0x1 PUSH1 0xA0 SHL SUB DUP2 AND PUSH2 0x10C4 JUMPI PUSH1 0x40 MLOAD PUSH4 0xE6C4247B PUSH1 0xE0 SHL DUP2 MSTORE PUSH1 0x4 ADD PUSH1 0x40 MLOAD DUP1 SWAP2 SUB SWAP1 REVERT JUMPDEST PUSH1 0x2 DUP1 SLOAD PUSH1 0x1 PUSH1 0x1 PUSH1 0xA0 SHL SUB NOT AND PUSH1 0x1 PUSH1 0x1 PUSH1 0xA0 SHL SUB DUP4 AND SWAP1 DUP2 OR SWAP1 SWAP2 SSTORE PUSH1 0x40 MLOAD PUSH32 0x85B717180AAB9A1D4B05B616CD308345F136AFCBF41E57B8575BDDB493FD3668 SWAP1 PUSH1 0x0 SWAP1 LOG2 POP JUMP JUMPDEST PUSH1 0x0 DUP1 PUSH1 0x0 PUSH2 0x111C DUP5 PUSH2 0x8AB JUMP JUMPDEST SWAP2 POP SWAP2 POP PUSH2 0x112A DUP3 DUP3 PUSH2 0x1189 JUMP JUMPDEST SWAP5 SWAP4 POP POP POP POP JUMP JUMPDEST PUSH1 0x0 SLOAD PUSH1 0x1 PUSH1 0x1 PUSH1 0xA0 SHL SUB AND CALLER EQ PUSH2 0xB15 JUMPI PUSH1 0x40 MLOAD PUSH4 0x118CDAA7 PUSH1 0xE0 SHL DUP2 MSTORE CALLER PUSH1 0x4 DUP3 ADD MSTORE PUSH1 0x24 ADD PUSH2 0xFB7 JUMP JUMPDEST PUSH1 0x2 PUSH1 0x1 SLOAD SUB PUSH2 0x1182 JUMPI PUSH1 0x40 MLOAD PUSH4 0x3EE5AEB5 PUSH1 0xE0 SHL DUP2 MSTORE PUSH1 0x4 ADD PUSH1 0x40 MLOAD DUP1 SWAP2 SUB SWAP1 REVERT JUMPDEST PUSH1 0x2 PUSH1 0x1 SSTORE JUMP JUMPDEST PUSH1 0x0 DUP2 PUSH1 0x0 SUB PUSH2 0x119C JUMPI POP PUSH1 0x0 NOT PUSH2 0xD3F JUMP JUMPDEST PUSH1 0x0 PUSH1 0x64 PUSH2 0x11AB PUSH1 0x50 DUP7 PUSH2 0x1365 JUMP JUMPDEST PUSH2 0x11B5 SWAP2 SWAP1 PUSH2 0x137C JUMP JUMPDEST SWAP1 POP DUP3 PUSH2 0x11CA PUSH8 0xDE0B6B3A7640000 DUP4 PUSH2 0x1365 JUMP JUMPDEST PUSH2 0x112A SWAP2 SWAP1 PUSH2 0x137C JUMP JUMPDEST PUSH1 0x0 DUP2 PUSH1 0x0 SUB PUSH2 0x11E6 JUMPI POP PUSH1 0x0 SWAP2 SWAP1 POP JUMP JUMPDEST PUSH1 0x0 PUSH2 0x11F0 PUSH2 0xEB6 JUMP JUMPDEST SWAP1 POP PUSH8 0xDE0B6B3A7640000 PUSH2 0x1205 DUP3 DUP6 PUSH2 0x1365 JUMP JUMPDEST PUSH2 0x120F SWAP2 SWAP1 PUSH2 0x137C JUMP JUMPDEST SWAP4 SWAP3 POP POP POP JUMP JUMPDEST PUSH1 0x0 DUP1 SLOAD PUSH1 0x1 PUSH1 0x1 PUSH1 0xA0 SHL SUB DUP4 DUP2 AND PUSH1 0x1 PUSH1 0x1 PUSH1 0xA0 SHL SUB NOT DUP4 AND DUP2 OR DUP5 SSTORE PUSH1 0x40 MLOAD SWAP2 SWAP1 SWAP3 AND SWAP3 DUP4 SWAP2 PUSH32 0x8BE0079C531659141344CD1FD0A4F28419497F9722A3DAAFE3B4186F6B6457E0 SWAP2 SWAP1 LOG3 POP POP JUMP JUMPDEST PUSH1 0x0 PUSH1 0x20 DUP3 DUP5 SUB SLT ISZERO PUSH2 0x1278 JUMPI PUSH1 0x0 DUP1 REVERT JUMPDEST DUP2 CALLDATALOAD PUSH1 0x1 PUSH1 0x1 PUSH1 0xA0 SHL SUB DUP2 AND DUP2 EQ PUSH2 0x120F JUMPI PUSH1 0x0 DUP1 REVERT JUMPDEST PUSH1 0x0 PUSH1 0x20 DUP3 DUP5 SUB SLT ISZERO PUSH2 0x12A1 JUMPI PUSH1 0x0 DUP1 REVERT JUMPDEST POP CALLDATALOAD SWAP2 SWAP1 POP JUMP JUMPDEST DUP1 MLOAD PUSH10 0xFFFFFFFFFFFFFFFFFFFF DUP2 AND DUP2 EQ PUSH2 0x12C2 JUMPI PUSH1 0x0 DUP1 REVERT JUMPDEST SWAP2 SWAP1 POP JUMP JUMPDEST PUSH1 0x0 DUP1 PUSH1 0x0 DUP1 PUSH1 0x0 PUSH1 0xA0 DUP7 DUP9 SUB SLT ISZERO PUSH2 0x12DF JUMPI PUSH1 0x0 DUP1 REVERT JUMPDEST PUSH2 0x12E8 DUP7 PUSH2 0x12A8 JUMP JUMPDEST PUSH1 0x20 DUP8 ADD MLOAD PUSH1 0x40 DUP9 ADD MLOAD PUSH1 0x60 DUP10 ADD MLOAD SWAP3 SWAP8 POP SWAP1 SWAP6 POP SWAP4 POP SWAP2 POP PUSH2 0x130D PUSH1 0x80 DUP8 ADD PUSH2 0x12A8 JUMP JUMPDEST SWAP1 POP SWAP3 SWAP6 POP SWAP3 SWAP6 SWAP1 SWAP4 POP JUMP JUMPDEST PUSH1 0x0 PUSH1 0x20 DUP3 DUP5 SUB SLT ISZERO PUSH2 0x132B JUMPI PUSH1 0x0 DUP1 REVERT JUMPDEST DUP2 MLOAD PUSH1 0xFF DUP2 AND DUP2 EQ PUSH2 0x120F JUMPI PUSH1 0x0 DUP1 REVERT JUMPDEST PUSH4 0x4E487B71 PUSH1 0xE0 SHL PUSH1 0x0 MSTORE PUSH1 0x11 PUSH1 0x4 MSTORE PUSH1 0x24 PUSH1 0x0 REVERT JUMPDEST DUP1 DUP3 ADD DUP1 DUP3 GT ISZERO PUSH2 0xD3F JUMPI PUSH2 0xD3F PUSH2 0x133C JUMP JUMPDEST DUP1 DUP3 MUL DUP2 ISZERO DUP3 DUP3 DIV DUP5 EQ OR PUSH2 0xD3F JUMPI PUSH2 0xD3F PUSH2 0x133C JUMP JUMPDEST PUSH1 0x0 DUP3 PUSH2 0x1399 JUMPI PUSH4 0x4E487B71 PUSH1 0xE0 SHL PUSH1 0x0 MSTORE PUSH1 0x12 PUSH1 0x4 MSTORE PUSH1 0x24 PUSH1 0x0 REVERT JUMPDEST POP DIV SWAP1 JUMP JUMPDEST PUSH1 0x1 DUP2 JUMPDEST PUSH1 0x1 DUP5 GT ISZERO PUSH2 0x13D9 JUMPI DUP1 DUP6 DIV DUP2 GT ISZERO PUSH2 0x13BD JUMPI PUSH2 0x13BD PUSH2 0x133C JUMP JUMPDEST PUSH1 0x1 DUP5 AND ISZERO PUSH2 0x13CB JUMPI SWAP1 DUP2 MUL SWAP1 JUMPDEST PUSH1 0x1 SWAP4 SWAP1 SWAP4 SHR SWAP3 DUP1 MUL PUSH2 0x13A2 JUMP JUMPDEST SWAP4 POP SWAP4 SWAP2 POP POP JUMP JUMPDEST PUSH1 0x0 DUP3 PUSH2 0x13F0 JUMPI POP PUSH1 0x1 PUSH2 0xD3F JUMP JUMPDEST DUP2 PUSH2 0x13FD JUMPI POP PUSH1 0x0 PUSH2 0xD3F JUMP JUMPDEST DUP2 PUSH1 0x1 DUP2 EQ PUSH2 0x1413 JUMPI PUSH1 0x2 DUP2 EQ PUSH2 0x141D JUMPI PUSH2 0x1439 JUMP JUMPDEST PUSH1 0x1 SWAP2 POP POP PUSH2 0xD3F JUMP JUMPDEST PUSH1 0xFF DUP5 GT ISZERO PUSH2 0x142E JUMPI PUSH2 0x142E PUSH2 0x133C JUMP JUMPDEST POP POP PUSH1 0x1 DUP3 SHL PUSH2 0xD3F JUMP JUMPDEST POP PUSH1 0x20 DUP4 LT PUSH2 0x133 DUP4 LT AND PUSH1 0x4E DUP5 LT PUSH1 0xB DUP5 LT AND OR ISZERO PUSH2 0x145C JUMPI POP DUP2 DUP2 EXP PUSH2 0xD3F JUMP JUMPDEST PUSH2 0x1469 PUSH1 0x0 NOT DUP5 DUP5 PUSH2 0x139E JUMP JUMPDEST DUP1 PUSH1 0x0 NOT DIV DUP3 GT ISZERO PUSH2 0x147D JUMPI PUSH2 0x147D PUSH2 0x133C JUMP JUMPDEST MUL SWAP4 SWAP3 POP POP POP JUMP JUMPDEST PUSH1 0x0 PUSH2 0x120F PUSH1 0xFF DUP5 AND DUP4 PUSH2 0x13E1 JUMP JUMPDEST DUP2 DUP2 SUB DUP2 DUP2 GT ISZERO PUSH2 0xD3F JUMPI PUSH2 0xD3F PUSH2 0x133C JUMP JUMPDEST PUSH1 0x0 PUSH1 0x20 DUP3 DUP5 SUB SLT ISZERO PUSH2 0x14B9 JUMPI PUSH1 0x0 DUP1 REVERT JUMPDEST DUP2 MLOAD DUP1 ISZERO ISZERO DUP2 EQ PUSH2 0x120F JUMPI PUSH1 0x0 DUP1 REVERT JUMPDEST PUSH1 0x0 PUSH2 0x120F DUP4 DUP4 PUSH2 0x13E1 JUMP INVALID LOG2 PUSH5 0x6970667358 0x22 SLT KECCAK256 0xCA 0xDD OR 0xCA POP 0xAB PUSH18 0x3D3FD9B6DAB6215DE968FA4DF9C86D1A2616 PUSH19 0x5DC605C1F364736F6C634300081C00330000 "},"methodIdentifiers":{"LIQUIDATION_BONUS_PERCENT()":"eaf18832","LIQUIDATION_THRESHOLD_PERCENT()":"c705a7ce","LTV_RATIO_PERCENT()":"d88c3cb9","PRECISION()":"aaf5eb68","borrowLuminaCoin(uint256)":"d365f89e","collateralBalances(address)":"29bc969d","debtBalances(address)":"c4ef1c4c","depositCollateral()":"6f758140","ethUsdPriceFeed()":"42f6fb29","getAccountCollateralValue(address)":"7d1a4450","getAccountValues(address)":"3baadca0","getEthPriceInUsd()":"d67b98a9","getHealthFactor(address)":"fe6bcd7c","liquidate(address)":"2f865568","luminaCoin()":"47d265e6","owner()":"8da5cb5b","renounceOwnership()":"715018a6","repayLuminaCoin(uint256)":"7388c2e6","setLuminaCoinAddress(address)":"fe466700","setPriceFeedAddress(address)":"00cf5db4","transferOwnership(address)":"f2fde38b","withdrawCollateral(uint256)":"6112fe2e"}}}}}