{"contracts/LuminaCoin.sol":{"LuminaCoin":{"abi":[{"inputs":[{"internalType":"address","name":"_initialOwner","type":"address"}],"stateMutability":"nonpayable","type":"constructor"},{"inputs":[{"internalType":"address","name":"spender","type":"address"},{"internalType":"uint256","name":"allowance","type":"uint256"},{"internalType":"uint256","name":"needed","type":"uint256"}],"name":"ERC20InsufficientAllowance","type":"error"},{"inputs":[{"internalType":"address","name":"sender","type":"address"},{"internalType":"uint256","name":"balance","type":"uint256"},{"internalType":"uint256","name":"needed","type":"uint256"}],"name":"ERC20InsufficientBalance","type":"error"},{"inputs":[{"internalType":"address","name":"approver","type":"address"}],"name":"ERC20InvalidApprover","type":"error"},{"inputs":[{"internalType":"address","name":"receiver","type":"address"}],"name":"ERC20InvalidReceiver","type":"error"},{"inputs":[{"internalType":"address","name":"sender","type":"address"}],"name":"ERC20InvalidSender","type":"error"},{"inputs":[{"internalType":"address","name":"spender","type":"address"}],"name":"ERC20InvalidSpender","type":"error"},{"inputs":[{"internalType":"address","name":"owner","type":"address"}],"name":"OwnableInvalidOwner","type":"error"},{"inputs":[{"internalType":"address","name":"account","type":"address"}],"name":"OwnableUnauthorizedAccount","type":"error"},{"anonymous":false,"inputs":[{"indexed":true,"internalType":"address","name":"owner","type":"address"},{"indexed":true,"internalType":"address","name":"spender","type":"address"},{"indexed":false,"internalType":"uint256","name":"value","type":"uint256"}],"name":"Approval","type":"event"},{"anonymous":false,"inputs":[{"indexed":true,"internalType":"address","name":"manager","type":"address"}],"name":"CollateralManagerSet","type":"event"},{"anonymous":false,"inputs":[{"indexed":true,"internalType":"address","name":"previousOwner","type":"address"},{"indexed":true,"internalType":"address","name":"newOwner","type":"address"}],"name":"OwnershipTransferred","type":"event"},{"anonymous":false,"inputs":[{"indexed":true,"internalType":"address","name":"from","type":"address"},{"indexed":true,"internalType":"address","name":"to","type":"address"},{"indexed":false,"internalType":"uint256","name":"value","type":"uint256"}],"name":"Transfer","type":"event"},{"inputs":[{"internalType":"address","name":"owner","type":"address"},{"internalType":"address","name":"spender","type":"address"}],"name":"allowance","outputs":[{"internalType":"uint256","name":"","type":"uint256"}],"stateMutability":"view","type":"function"},{"inputs":[{"internalType":"address","name":"spender","type":"address"},{"internalType":"uint256","name":"value","type":"uint256"}],"name":"approve","outputs":[{"internalType":"bool","name":"","type":"bool"}],"stateMutability":"nonpayable","type":"function"},{"inputs":[{"internalType":"address","name":"account","type":"address"}],"name":"balanceOf","outputs":[{"internalType":"uint256","name":"","type":"uint256"}],"stateMutability":"view","type":"function"},{"inputs":[{"internalType":"address","name":"from","type":"address"},{"internalType":"uint256","name":"amount","type":"uint256"}],"name":"burnFrom","outputs":[],"stateMutability":"nonpayable","type":"function"},{"inputs":[{"internalType":"uint256","name":"amount","type":"uint256"}],"name":"burnHeldTokens","outputs":[],"stateMutability":"nonpayable","type":"function"},{"inputs":[],"name":"collateralManager","outputs":[{"internalType":"address","name":"","type":"address"}],"stateMutability":"view","type":"function"},{"inputs":[],"name":"decimals","outputs":[{"internalType":"uint8","name":"","type":"uint8"}],"stateMutability":"view","type":"function"},{"inputs":[{"internalType":"address","name":"to","type":"address"},{"internalType":"uint256","name":"amount","type":"uint256"}],"name":"mint","outputs":[],"stateMutability":"nonpayable","type":"function"},{"inputs":[],"name":"name","outputs":[{"internalType":"string","name":"","type":"string"}],"stateMutability":"view","type":"function"},{"inputs":[],"name":"owner","outputs":[{"internalType":"address","name":"","type":"address"}],"stateMutability":"view","type":"function"},{"inputs":[],"name":"renounceOwnership","outputs":[],"stateMutability":"nonpayable","type":"function"},{"inputs":[{"internalType":"address","name":"_manager","type":"address"}],"name":"setCollateralManager","outputs":[],"stateMutability":"nonpayable","type":"function"},{"inputs":[],"name":"symbol","outputs":[{"internalType":"string","name":"","type":"string"}],"stateMutability":"view","type":"function"},{"inputs":[],"name":"totalSupply","outputs":[{"internalType":"uint256","name":"","type":"uint256"}],"stateMutability":"view","type":"function"},{"inputs":[{"internalType":"address","name":"to","type":"address"},{"internalType":"uint256","name":"value","type":"uint256"}],"name":"transfer","outputs":[{"internalType":"bool","name":"","type":"bool"}],"stateMutability":"nonpayable","type":"function"},{"inputs":[{"internalType":"address","name":"from","type":"address"},{"internalType":"address","name":"to","type":"address"},{"internalType":"uint256","name":"value","type":"uint256"}],"name":"transferFrom","outputs":[{"internalType":"bool","name":"","type":"bool"}],"stateMutability":"nonpayable","type":"function"},{"inputs":[{"internalType":"address","name":"newOwner","type":"address"}],"name":"transferOwnership","outputs":[],"stateMutability":"nonpayable","type":"function"}],"evm":{"bytecode":{"linkReferences":{},"object":"608060405234801561001057600080fd5b50604051610dfd380380610dfd83398101604081905261002f9161011e565b806040518060400160405280600a815260200169263ab6b4b730a1b7b4b760b11b815250604051806040016040528060038152602001624c4d4360e81b815250816003908161007e91906101ed565b50600461008b82826101ed565b5050506001600160a01b0381166100bc57604051631e4fbdf760e01b81526000600482015260240160405180910390fd5b6100c5816100cc565b50506102ab565b600580546001600160a01b038381166001600160a01b0319831681179093556040519116919082907f8be0079c531659141344cd1fd0a4f28419497f9722a3daafe3b4186f6b6457e090600090a35050565b60006020828403121561013057600080fd5b81516001600160a01b038116811461014757600080fd5b9392505050565b634e487b7160e01b600052604160045260246000fd5b600181811c9082168061017857607f821691505b60208210810361019857634e487b7160e01b600052602260045260246000fd5b50919050565b601f8211156101e857806000526020600020601f840160051c810160208510156101c55750805b601f840160051c820191505b818110156101e557600081556001016101d1565b50505b505050565b81516001600160401b038111156102065761020661014e565b61021a816102148454610164565b8461019e565b6020601f82116001811461024e57600083156102365750848201515b600019600385901b1c1916600184901b1784556101e5565b600084815260208120601f198516915b8281101561027e578785015182556020948501946001909201910161025e565b508482101561029c5786840151600019600387901b60f8161c191681555b50505050600190811b01905550565b610b43806102ba6000396000f3fe608060405234801561001057600080fd5b506004361061010b5760003560e01c806370a08231116100a25780638da5cb5b116100715780638da5cb5b1461022f57806395d89b4114610240578063a9059cbb14610248578063dd62ed3e1461025b578063f2fde38b1461029457600080fd5b806370a08231146101d8578063715018a61461020157806379cc679014610209578063842a05d41461021c57600080fd5b806323be345c116100de57806323be345c14610176578063313ce567146101a157806340c10f19146101b057806342c38089146101c557600080fd5b806306fdde0314610110578063095ea7b31461012e57806318160ddd1461015157806323b872dd14610163575b600080fd5b6101186102a7565b6040516101259190610924565b60405180910390f35b61014161013c36600461098e565b610339565b6040519015158152602001610125565b6002545b604051908152602001610125565b6101416101713660046109b8565b610353565b600654610189906001600160a01b031681565b6040516001600160a01b039091168152602001610125565b60405160128152602001610125565b6101c36101be36600461098e565b610377565b005b6101c36101d33660046109f5565b6103b8565b6101556101e6366004610a0e565b6001600160a01b031660009081526020819052604090205490565b6101c36103ef565b6101c361021736600461098e565b610403565b6101c361022a366004610a0e565b610437565b6005546001600160a01b0316610189565b6101186104f2565b61014161025636600461098e565b610501565b610155610269366004610a30565b6001600160a01b03918216600090815260016020908152604080832093909416825291909152205490565b6101c36102a2366004610a0e565b61050f565b6060600380546102b690610a63565b80601f01602080910402602001604051908101604052809291908181526020018280546102e290610a63565b801561032f5780601f106103045761010080835404028352916020019161032f565b820191906000526020600020905b81548152906001019060200180831161031257829003601f168201915b5050505050905090565b60003361034781858561054a565b60019150505b92915050565b60003361036185828561055c565b61036c8585856105db565b506001949350505050565b6006546001600160a01b031633146103aa5760405162461bcd60e51b81526004016103a190610a9d565b60405180910390fd5b6103b4828261063a565b5050565b6006546001600160a01b031633146103e25760405162461bcd60e51b81526004016103a190610a9d565b6103ec3082610670565b50565b6103f76106a6565b61040160006106d3565b565b6006546001600160a01b0316331461042d5760405162461bcd60e51b81526004016103a190610a9d565b6103b48282610670565b61043f6106a6565b6001600160a01b0381166104a85760405162461bcd60e51b815260206004820152602a60248201527f4c756d696e61436f696e3a204d616e6167657220616464726573732063616e6e6044820152696f74206265207a65726f60b01b60648201526084016103a1565b600680546001600160a01b0319166001600160a01b0383169081179091556040517f3370510cbff7ce3d801e216bba0f5168df704747803543a6d82f83cd04776f2790600090a250565b6060600480546102b690610a63565b6000336103478185856105db565b6105176106a6565b6001600160a01b03811661054157604051631e4fbdf760e01b8152600060048201526024016103a1565b6103ec816106d3565b6105578383836001610725565b505050565b6001600160a01b038381166000908152600160209081526040808320938616835292905220546000198110156105d557818110156105c657604051637dc7a0d960e11b81526001600160a01b038416600482015260248101829052604481018390526064016103a1565b6105d584848484036000610725565b50505050565b6001600160a01b03831661060557604051634b637e8f60e11b8152600060048201526024016103a1565b6001600160a01b03821661062f5760405163ec442f0560e01b8152600060048201526024016103a1565b6105578383836107fa565b6001600160a01b0382166106645760405163ec442f0560e01b8152600060048201526024016103a1565b6103b4600083836107fa565b6001600160a01b03821661069a57604051634b637e8f60e11b8152600060048201526024016103a1565b6103b4826000836107fa565b6005546001600160a01b031633146104015760405163118cdaa760e01b81523360048201526024016103a1565b600580546001600160a01b038381166001600160a01b0319831681179093556040519116919082907f8be0079c531659141344cd1fd0a4f28419497f9722a3daafe3b4186f6b6457e090600090a35050565b6001600160a01b03841661074f5760405163e602df0560e01b8152600060048201526024016103a1565b6001600160a01b03831661077957604051634a1406b160e11b8152600060048201526024016103a1565b6001600160a01b03808516600090815260016020908152604080832093871683529290522082905580156105d557826001600160a01b0316846001600160a01b03167f8c5be1e5ebec7d5bd14f71427d1e84f3dd0314c0f7b2291e5b200ac8c7c3b925846040516107ec91815260200190565b60405180910390a350505050565b6001600160a01b03831661082557806002600082825461081a9190610aec565b909155506108979050565b6001600160a01b038316600090815260208190526040902054818110156108785760405163391434e360e21b81526001600160a01b038516600482015260248101829052604481018390526064016103a1565b6001600160a01b03841660009081526020819052604090209082900390555b6001600160a01b0382166108b3576002805482900390556108d2565b6001600160a01b03821660009081526020819052604090208054820190555b816001600160a01b0316836001600160a01b03167fddf252ad1be2c89b69c2b068fc378daa952ba7f163c4a11628f55a4df523b3ef8360405161091791815260200190565b60405180910390a3505050565b602081526000825180602084015260005b818110156109525760208186018101516040868401015201610935565b506000604082850101526040601f19601f83011684010191505092915050565b80356001600160a01b038116811461098957600080fd5b919050565b600080604083850312156109a157600080fd5b6109aa83610972565b946020939093013593505050565b6000806000606084860312156109cd57600080fd5b6109d684610972565b92506109e460208501610972565b929592945050506040919091013590565b600060208284031215610a0757600080fd5b5035919050565b600060208284031215610a2057600080fd5b610a2982610972565b9392505050565b60008060408385031215610a4357600080fd5b610a4c83610972565b9150610a5a60208401610972565b90509250929050565b600181811c90821680610a7757607f821691505b602082108103610a9757634e487b7160e01b600052602260045260246000fd5b50919050565b6020808252602f908201527f4c756d696e61436f696e3a2043616c6c6572206973206e6f742074686520436f60408201526e363630ba32b930b626b0b730b3b2b960891b606082015260800190565b8082018082111561034d57634e487b7160e01b600052601160045260246000fdfea26469706673582212209f2e91e594a565803791873b0085ad10321bd678996804e0a8903ff3ae2da73864736f6c634300081c0033","opcodes":"PUSH1 0x80 PUSH1 0x40 MSTORE CALLVALUE DUP1 ISZERO PUSH2 0x10 JUMPI PUSH1 0x0 DUP1 REVERT JUMPDEST POP PUSH1 0x40 MLOAD PUSH2 0xDFD CODESIZE SUB DUP1 PUSH2 0xDFD DUP4 CODECOPY DUP2 ADD PUSH1 0x40 DUP2 SWAP1 MSTORE PUSH2 0x2F SWAP2 PUSH2 0x11E JUMP JUMPDEST DUP1 PUSH1 0x40 MLOAD DUP1 PUSH1 0x40 ADD PUSH1 0x40 MSTORE DUP1 PUSH1 0xA DUP2 MSTORE PUSH1 0x20 ADD PUSH10 0x263AB6B4B730A1B7B4B7 PUSH1 0xB1 SHL DUP2 MSTORE POP PUSH1 0x40 MLOAD DUP1 PUSH1 0x40 ADD PUSH1 0x40 MSTORE DUP1 PUSH1 0x3 DUP2 MSTORE PUSH1 0x20 ADD PUSH3 0x4C4D43 PUSH1 0xE8 SHL DUP2 MSTORE POP DUP2 PUSH1 0x3 SWAP1 DUP2 PUSH2 0x7E SWAP2 SWAP1 PUSH2 0x1ED JUMP JUMPDEST POP PUSH1 0x4 PUSH2 0x8B DUP3 DUP3 PUSH2 0x1ED JUMP JUMPDEST POP POP POP PUSH1 0x1 PUSH1 0x1 PUSH1 0xA0 SHL SUB DUP2 AND PUSH2 0xBC JUMPI PUSH1 0x40 MLOAD PUSH4 0x1E4FBDF7 PUSH1 0xE0 SHL DUP2 MSTORE PUSH1 0x0 PUSH1 0x4 DUP3 ADD MSTORE PUSH1 0x24 ADD PUSH1 0x40 MLOAD DUP1 SWAP2 SUB SWAP1 REVERT JUMPDEST PUSH2 0xC5 DUP2 PUSH2 0xCC JUMP JUMPDEST POP POP PUSH2 0x2AB JUMP JUMPDEST PUSH1 0x5 DUP1 SLOAD PUSH1 0x1 PUSH1 0x1 PUSH1 0xA0 SHL SUB DUP4 DUP2 AND PUSH1 0x1 PUSH1 0x1 PUSH1 0xA0 SHL SUB NOT DUP4 AND DUP2 OR SWAP1 SWAP4 SSTORE PUSH1 0x40 MLOAD SWAP2 AND SWAP2 SWAP1 DUP3 SWAP1 PUSH32 0x8BE0079C531659141344CD1FD0A4F28419497F9722A3DAAFE3B4186F6B6457E0 SWAP1 PUSH1 0x0 SWAP1 LOG3 POP POP JUMP JUMPDEST PUSH1 0x0 PUSH1 0x20 DUP3 DUP5 SUB SLT ISZERO PUSH2 0x130 JUMPI PUSH1 0x0 DUP1 REVERT JUMPDEST DUP2 MLOAD PUSH1 0x1 PUSH1 0x1 PUSH1 0xA0 SHL SUB DUP2 AND DUP2 EQ PUSH2 0x147 JUMPI PUSH1 0x0 DUP1 REVERT JUMPDEST SWAP4 SWAP3 POP POP POP JUMP JUMPDEST PUSH4 0x4E487B71 PUSH1 0xE0 SHL PUSH1 0x0 MSTORE PUSH1 0x41 PUSH1 0x4 MSTORE PUSH1 0x24 PUSH1 0x0 REVERT JUMPDEST PUSH1 0x1 DUP2 DUP2 SHR SWAP1 DUP3 AND DUP1 PUSH2 0x178 JUMPI PUSH1 0x7F DUP3 AND SWAP2 POP JUMPDEST PUSH1 0x20 DUP3 LT DUP2 SUB PUSH2 0x198 JUMPI PUSH4 0x4E487B71 PUSH1 0xE0 SHL PUSH1 0x0 MSTORE PUSH1 0x22 PUSH1 0x4 MSTORE PUSH1 0x24 PUSH1 0x0 REVERT JUMPDEST POP SWAP2 SWAP1 POP JUMP JUMPDEST PUSH1 0x1F DUP3 GT ISZERO PUSH2 0x1E8 JUMPI DUP1 PUSH1 0x0 MSTORE PUSH1 0x20 PUSH1 0x0 KECCAK256 PUSH1 0x1F DUP5 ADD PUSH1 0x5 SHR DUP2 ADD PUSH1 0x20 DUP6 LT ISZERO PUSH2 0x1C5 JUMPI POP DUP1 JUMPDEST PUSH1 0x1F DUP5 ADD PUSH1 0x5 SHR DUP3 ADD SWAP2 POP JUMPDEST DUP2 DUP2 LT ISZERO PUSH2 0x1E5 JUMPI PUSH1 0x0 DUP2 SSTORE PUSH1 0x1 ADD PUSH2 0x1D1 JUMP JUMPDEST POP POP JUMPDEST POP POP POP JUMP JUMPDEST DUP2 MLOAD PUSH1 0x1 PUSH1 0x1 PUSH1 0x40 SHL SUB DUP2 GT ISZERO PUSH2 0x206 JUMPI PUSH2 0x206 PUSH2 0x14E JUMP JUMPDEST PUSH2 0x21A DUP2 PUSH2 0x214 DUP5 SLOAD PUSH2 0x164 JUMP JUMPDEST DUP5 PUSH2 0x19E JUMP JUMPDEST PUSH1 0x20 PUSH1 0x1F DUP3 GT PUSH1 0x1 DUP2 EQ PUSH2 0x24E JUMPI PUSH1 0x0 DUP4 ISZERO PUSH2 0x236 JUMPI POP DUP5 DUP3 ADD MLOAD JUMPDEST PUSH1 0x0 NOT PUSH1 0x3 DUP6 SWAP1 SHL SHR NOT AND PUSH1 0x1 DUP5 SWAP1 SHL OR DUP5 SSTORE PUSH2 0x1E5 JUMP JUMPDEST PUSH1 0x0 DUP5 DUP2 MSTORE PUSH1 0x20 DUP2 KECCAK256 PUSH1 0x1F NOT DUP6 AND SWAP2 JUMPDEST DUP3 DUP2 LT ISZERO PUSH2 0x27E JUMPI DUP8 DUP6 ADD MLOAD DUP3 SSTORE PUSH1 0x20 SWAP5 DUP6 ADD SWAP5 PUSH1 0x1 SWAP1 SWAP3 ADD SWAP2 ADD PUSH2 0x25E JUMP JUMPDEST POP DUP5 DUP3 LT ISZERO PUSH2 0x29C JUMPI DUP7 DUP5 ADD MLOAD PUSH1 0x0 NOT PUSH1 0x3 DUP8 SWAP1 SHL PUSH1 0xF8 AND SHR NOT AND DUP2 SSTORE JUMPDEST POP POP POP POP PUSH1 0x1 SWAP1 DUP2 SHL ADD SWAP1 SSTORE POP JUMP JUMPDEST PUSH2 0xB43 DUP1 PUSH2 0x2BA PUSH1 0x0 CODECOPY PUSH1 0x0 RETURN INVALID PUSH1 0x80 PUSH1 0x40 MSTORE CALLVALUE DUP1 ISZERO PUSH2 0x10 JUMPI PUSH1 0x0 DUP1 REVERT JUMPDEST POP PUSH1 0x4 CALLDATASIZE LT PUSH2 0x10B JUMPI PUSH1 0x0 CALLDATALOAD PUSH1 0xE0 SHR DUP1 PUSH4 0x70A08231 GT PUSH2 0xA2 JUMPI DUP1 PUSH4 0x8DA5CB5B GT PUSH2 0x71 JUMPI DUP1 PUSH4 0x8DA5CB5B EQ PUSH2 0x22F JUMPI DUP1 PUSH4 0x95D89B41 EQ PUSH2 0x240 JUMPI DUP1 PUSH4 0xA9059CBB EQ PUSH2 0x248 JUMPI DUP1 PUSH4 0xDD62ED3E EQ PUSH2 0x25B JUMPI DUP1 PUSH4 0xF2FDE38B EQ PUSH2 0x294 JUMPI PUSH1 0x0 DUP1 REVERT JUMPDEST DUP1 PUSH4 0x70A08231 EQ PUSH2 0x1D8 JUMPI DUP1 PUSH4 0x715018A6 EQ PUSH2 0x201 JUMPI DUP1 PUSH4 0x79CC6790 EQ PUSH2 0x209 JUMPI DUP1 PUSH4 0x842A05D4 EQ PUSH2 0x21C JUMPI PUSH1 0x0 DUP1 REVERT JUMPDEST DUP1 PUSH4 0x23BE345C GT PUSH2 0xDE JUMPI DUP1 PUSH4 0x23BE345C EQ PUSH2 0x176 JUMPI DUP1 PUSH4 0x313CE567 EQ PUSH2 0x1A1 JUMPI DUP1 PUSH4 0x40C10F19 EQ PUSH2 0x1B0 JUMPI DUP1 PUSH4 0x42C38089 EQ PUSH2 0x1C5 JUMPI PUSH1 0x0 DUP1 REVERT JUMPDEST DUP1 PUSH4 0x6FDDE03 EQ PUSH2 0x110 JUMPI DUP1 PUSH4 0x95EA7B3 EQ PUSH2 0x12E JUMPI DUP1 PUSH4 0x18160DDD EQ PUSH2 0x151 JUMPI DUP1 PUSH4 0x23B872DD EQ PUSH2 0x163 JUMPI JUMPDEST PUSH1 0x0 DUP1 REVERT JUMPDEST PUSH2 0x118 PUSH2 0x2A7 JUMP JUMPDEST PUSH1 0x40 MLOAD PUSH2 0x125 SWAP2 SWAP1 PUSH2 0x924 JUMP JUMPDEST PUSH1 0x40 MLOAD DUP1 SWAP2 SUB SWAP1 RETURN JUMPDEST PUSH2 0x141 PUSH2 0x13C CALLDATASIZE PUSH1 0x4 PUSH2 0x98E JUMP JUMPDEST PUSH2 0x339 JUMP JUMPDEST PUSH1 0x40 MLOAD SWAP1 ISZERO ISZERO DUP2 MSTORE PUSH1 0x20 ADD PUSH2 0x125 JUMP JUMPDEST PUSH1 0x2 SLOAD JUMPDEST PUSH1 0x40 MLOAD SWAP1 DUP2 MSTORE PUSH1 0x20 ADD PUSH2 0x125 JUMP JUMPDEST PUSH2 0x141 PUSH2 0x171 CALLDATASIZE PUSH1 0x4 PUSH2 0x9B8 JUMP JUMPDEST PUSH2 0x353 JUMP JUMPDEST PUSH1 0x6 SLOAD PUSH2 0x189 SWAP1 PUSH1 0x1 PUSH1 0x1 PUSH1 0xA0 SHL SUB AND DUP2 JUMP JUMPDEST PUSH1 0x40 MLOAD PUSH1 0x1 PUSH1 0x1 PUSH1 0xA0 SHL SUB SWAP1 SWAP2 AND DUP2 MSTORE PUSH1 0x20 ADD PUSH2 0x125 JUMP JUMPDEST PUSH1 0x40 MLOAD PUSH1 0x12 DUP2 MSTORE PUSH1 0x20 ADD PUSH2 0x125 JUMP JUMPDEST PUSH2 0x1C3 PUSH2 0x1BE CALLDATASIZE PUSH1 0x4 PUSH2 0x98E JUMP JUMPDEST PUSH2 0x377 JUMP JUMPDEST STOP JUMPDEST PUSH2 0x1C3 PUSH2 0x1D3 CALLDATASIZE PUSH1 0x4 PUSH2 0x9F5 JUMP JUMPDEST PUSH2 0x3B8 JUMP JUMPDEST PUSH2 0x155 PUSH2 0x1E6 CALLDATASIZE PUSH1 0x4 PUSH2 0xA0E JUMP JUMPDEST PUSH1 0x1 PUSH1 0x1 PUSH1 0xA0 SHL SUB AND PUSH1 0x0 SWAP1 DUP2 MSTORE PUSH1 0x20 DUP2 SWAP1 MSTORE PUSH1 0x40 SWAP1 KECCAK256 SLOAD SWAP1 JUMP JUMPDEST PUSH2 0x1C3 PUSH2 0x3EF JUMP JUMPDEST PUSH2 0x1C3 PUSH2 0x217 CALLDATASIZE PUSH1 0x4 PUSH2 0x98E JUMP JUMPDEST PUSH2 0x403 JUMP JUMPDEST PUSH2 0x1C3 PUSH2 0x22A CALLDATASIZE PUSH1 0x4 PUSH2 0xA0E JUMP JUMPDEST PUSH2 0x437 JUMP JUMPDEST PUSH1 0x5 SLOAD PUSH1 0x1 PUSH1 0x1 PUSH1 0xA0 SHL SUB AND PUSH2 0x189 JUMP JUMPDEST PUSH2 0x118 PUSH2 0x4F2 JUMP JUMPDEST PUSH2 0x141 PUSH2 0x256 CALLDATASIZE PUSH1 0x4 PUSH2 0x98E JUMP JUMPDEST PUSH2 0x501 JUMP JUMPDEST PUSH2 0x155 PUSH2 0x269 CALLDATASIZE PUSH1 0x4 PUSH2 0xA30 JUMP JUMPDEST PUSH1 0x1 PUSH1 0x1 PUSH1 0xA0 SHL SUB SWAP2 DUP3 AND PUSH1 0x0 SWAP1 DUP2 MSTORE PUSH1 0x1 PUSH1 0x20 SWAP1 DUP2 MSTORE PUSH1 0x40 DUP1 DUP4 KECCAK256 SWAP4 SWAP1 SWAP5 AND DUP3 MSTORE SWAP2 SWAP1 SWAP2 MSTORE KECCAK256 SLOAD SWAP1 JUMP JUMPDEST PUSH2 0x1C3 PUSH2 0x2A2 CALLDATASIZE PUSH1 0x4 PUSH2 0xA0E JUMP JUMPDEST PUSH2 0x50F JUMP JUMPDEST PUSH1 0x60 PUSH1 0x3 DUP1 SLOAD PUSH2 0x2B6 SWAP1 PUSH2 0xA63 JUMP JUMPDEST DUP1 PUSH1 0x1F ADD PUSH1 0x20 DUP1 SWAP2 DIV MUL PUSH1 0x20 ADD PUSH1 0x40 MLOAD SWAP1 DUP2 ADD PUSH1 0x40 MSTORE DUP1 SWAP3 SWAP2 SWAP1 DUP2 DUP2 MSTORE PUSH1 0x20 ADD DUP3 DUP1 SLOAD PUSH2 0x2E2 SWAP1 PUSH2 0xA63 JUMP JUMPDEST DUP1 ISZERO PUSH2 0x32F JUMPI DUP1 PUSH1 0x1F LT PUSH2 0x304 JUMPI PUSH2 0x100 DUP1 DUP4 SLOAD DIV MUL DUP4 MSTORE SWAP2 PUSH1 0x20 ADD SWAP2 PUSH2 0x32F JUMP JUMPDEST DUP3 ADD SWAP2 SWAP1 PUSH1 0x0 MSTORE PUSH1 0x20 PUSH1 0x0 KECCAK256 SWAP1 JUMPDEST DUP2 SLOAD DUP2 MSTORE SWAP1 PUSH1 0x1 ADD SWAP1 PUSH1 0x20 ADD DUP1 DUP4 GT PUSH2 0x312 JUMPI DUP3 SWAP1 SUB PUSH1 0x1F AND DUP3 ADD SWAP2 JUMPDEST POP POP POP POP POP SWAP1 POP SWAP1 JUMP JUMPDEST PUSH1 0x0 CALLER PUSH2 0x347 DUP2 DUP6 DUP6 PUSH2 0x54A JUMP JUMPDEST PUSH1 0x1 SWAP2 POP POP JUMPDEST SWAP3 SWAP2 POP POP JUMP JUMPDEST PUSH1 0x0 CALLER PUSH2 0x361 DUP6 DUP3 DUP6 PUSH2 0x55C JUMP JUMPDEST PUSH2 0x36C DUP6 DUP6 DUP6 PUSH2 0x5DB JUMP JUMPDEST POP PUSH1 0x1 SWAP5 SWAP4 POP POP POP POP JUMP JUMPDEST PUSH1 0x6 SLOAD PUSH1 0x1 PUSH1 0x1 PUSH1 0xA0 SHL SUB AND CALLER EQ PUSH2 0x3AA JUMPI PUSH1 0x40 MLOAD PUSH3 0x461BCD PUSH1 0xE5 SHL DUP2 MSTORE PUSH1 0x4 ADD PUSH2 0x3A1 SWAP1 PUSH2 0xA9D JUMP JUMPDEST PUSH1 0x40 MLOAD DUP1 SWAP2 SUB SWAP1 REVERT JUMPDEST PUSH2 0x3B4 DUP3 DUP3 PUSH2 0x63A JUMP JUMPDEST POP POP JUMP JUMPDEST PUSH1 0x6 SLOAD PUSH1 0x1 PUSH1 0x1 PUSH1 0xA0 SHL SUB AND CALLER EQ PUSH2 0x3E2 JUMPI PUSH1 0x40 MLOAD PUSH3 0x461BCD PUSH1 0xE5 SHL DUP2 MSTORE PUSH1 0x4 ADD PUSH2 0x3A1 SWAP1 PUSH2 0xA9D JUMP JUMPDEST PUSH2 0x3EC ADDRESS DUP3 PUSH2 0x670 JUMP JUMPDEST POP JUMP JUMPDEST PUSH2 0x3F7 PUSH2 0x6A6 JUMP JUMPDEST PUSH2 0x401 PUSH1 0x0 PUSH2 0x6D3 JUMP JUMPDEST JUMP JUMPDEST PUSH1 0x6 SLOAD PUSH1 0x1 PUSH1 0x1 PUSH1 0xA0 SHL SUB AND CALLER EQ PUSH2 0x42D JUMPI PUSH1 0x40 MLOAD PUSH3 0x461BCD PUSH1 0xE5 SHL DUP2 MSTORE PUSH1 0x4 ADD PUSH2 0x3A1 SWAP1 PUSH2 0xA9D JUMP JUMPDEST PUSH2 0x3B4 DUP3 DUP3 PUSH2 0x670 JUMP JUMPDEST PUSH2 0x43F PUSH2 0x6A6 JUMP JUMPDEST PUSH1 0x1 PUSH1 0x1 PUSH1 0xA0 SHL SUB DUP2 AND PUSH2 0x4A8 JUMPI PUSH1 0x40 MLOAD PUSH3 0x461BCD PUSH1 0xE5 SHL DUP2 MSTORE PUSH1 0x20 PUSH1 0x4 DUP3 ADD MSTORE PUSH1 0x2A PUSH1 0x24 DUP3 ADD MSTORE PUSH32 0x4C756D696E61436F696E3A204D616E6167657220616464726573732063616E6E PUSH1 0x44 DUP3 ADD MSTORE PUSH10 0x6F74206265207A65726F PUSH1 0xB0 SHL PUSH1 0x64 DUP3 ADD MSTORE PUSH1 0x84 ADD PUSH2 0x3A1 JUMP JUMPDEST PUSH1 0x6 DUP1 SLOAD PUSH1 0x1 PUSH1 0x1 PUSH1 0xA0 SHL SUB NOT AND PUSH1 0x1 PUSH1 0x1 PUSH1 0xA0 SHL SUB DUP4 AND SWAP1 DUP2 OR SWAP1 SWAP2 SSTORE PUSH1 0x40 MLOAD PUSH32 0x3370510CBFF7CE3D801E216BBA0F5168DF704747803543A6D82F83CD04776F27 SWAP1 PUSH1 0x0 SWAP1 LOG2 POP JUMP JUMPDEST PUSH1 0x60 PUSH1 0x4 DUP1 SLOAD PUSH2 0x2B6 SWAP1 PUSH2 0xA63 JUMP JUMPDEST PUSH1 0x0 CALLER PUSH2 0x347 DUP2 DUP6 DUP6 PUSH2 0x5DB JUMP JUMPDEST PUSH2 0x517 PUSH2 0x6A6 JUMP JUMPDEST PUSH1 0x1 PUSH1 0x1 PUSH1 0xA0 SHL SUB DUP2 AND PUSH2 0x541 JUMPI PUSH1 0x40 MLOAD PUSH4 0x1E4FBDF7 PUSH1 0xE0 SHL DUP2 MSTORE PUSH1 0x0 PUSH1 0x4 DUP3 ADD MSTORE PUSH1 0x24 ADD PUSH2 0x3A1 JUMP JUMPDEST PUSH2 0x3EC DUP2 PUSH2 0x6D3 JUMP JUMPDEST PUSH2 0x557 DUP4 DUP4 DUP4 PUSH1 0x1 PUSH2 0x725 JUMP JUMPDEST POP POP POP JUMP JUMPDEST PUSH1 0x1 PUSH1 0x1 PUSH1 0xA0 SHL SUB DUP4 DUP2 AND PUSH1 0x0 SWAP1 DUP2 MSTORE PUSH1 0x1 PUSH1 0x20 SWAP1 DUP2 MSTORE PUSH1 0x40 DUP1 DUP4 KECCAK256 SWAP4 DUP7 AND DUP4 MSTORE SWAP3 SWAP1 MSTORE KECCAK256 SLOAD PUSH1 0x0 NOT DUP2 LT ISZERO PUSH2 0x5D5 JUMPI DUP2 DUP2 LT ISZERO PUSH2 0x5C6 JUMPI PUSH1 0x40 MLOAD PUSH4 0x7DC7A0D9 PUSH1 0xE1 SHL DUP2 MSTORE PUSH1 0x1 PUSH1 0x1 PUSH1 0xA0 SHL SUB DUP5 AND PUSH1 0x4 DUP3 ADD MSTORE PUSH1 0x24 DUP2 ADD DUP3 SWAP1 MSTORE PUSH1 0x44 DUP2 ADD DUP4 SWAP1 MSTORE PUSH1 0x64 ADD PUSH2 0x3A1 JUMP JUMPDEST PUSH2 0x5D5 DUP5 DUP5 DUP5 DUP5 SUB PUSH1 0x0 PUSH2 0x725 JUMP JUMPDEST POP POP POP POP JUMP JUMPDEST PUSH1 0x1 PUSH1 0x1 PUSH1 0xA0 SHL SUB DUP4 AND PUSH2 0x605 JUMPI PUSH1 0x40 MLOAD PUSH4 0x4B637E8F PUSH1 0xE1 SHL DUP2 MSTORE PUSH1 0x0 PUSH1 0x4 DUP3 ADD MSTORE PUSH1 0x24 ADD PUSH2 0x3A1 JUMP JUMPDEST PUSH1 0x1 PUSH1 0x1 PUSH1 0xA0 SHL SUB DUP3 AND PUSH2 0x62F JUMPI PUSH1 0x40 MLOAD PUSH4 0xEC442F05 PUSH1 0xE0 SHL DUP2 MSTORE PUSH1 0x0 PUSH1 0x4 DUP3 ADD MSTORE PUSH1 0x24 ADD PUSH2 0x3A1 JUMP JUMPDEST PUSH2 0x557 DUP4 DUP4 DUP4 PUSH2 0x7FA JUMP JUMPDEST PUSH1 0x1 PUSH1 0x1 PUSH1 0xA0 SHL SUB DUP3 AND PUSH2 0x664 JUMPI PUSH1 0x40 MLOAD PUSH4 0xEC442F05 PUSH1 0xE0 SHL DUP2 MSTORE PUSH1 0x0 PUSH1 0x4 DUP3 ADD MSTORE PUSH1 0x24 ADD PUSH2 0x3A1 JUMP JUMPDEST PUSH2 0x3B4 PUSH1 0x0 DUP4 DUP4 PUSH2 0x7FA JUMP JUMPDEST PUSH1 0x1 PUSH1 0x1 PUSH1 0xA0 SHL SUB DUP3 AND PUSH2 0x69A JUMPI PUSH1 0x40 MLOAD PUSH4 0x4B637E8F PUSH1 0xE1 SHL DUP2 MSTORE PUSH1 0x0 PUSH1 0x4 DUP3 ADD MSTORE PUSH1 0x24 ADD PUSH2 0x3A1 JUMP JUMPDEST PUSH2 0x3B4 DUP3 PUSH1 0x0 DUP4 PUSH2 0x7FA JUMP JUMPDEST PUSH1 0x5 SLOAD PUSH1 0x1 PUSH1 0x1 PUSH1 0xA0 SHL SUB AND CALLER EQ PUSH2 0x401 JUMPI PUSH1 0x40 MLOAD PUSH4 0x118CDAA7 PUSH1 0xE0 SHL DUP2 MSTORE CALLER PUSH1 0x4 DUP3 ADD MSTORE PUSH1 0x24 ADD PUSH2 0x3A1 JUMP JUMPDEST PUSH1 0x5 DUP1 SLOAD PUSH1 0x1 PUSH1 0x1 PUSH1 0xA0 SHL SUB DUP4 DUP2 AND PUSH1 0x1 PUSH1 0x1 PUSH1 0xA0 SHL SUB NOT DUP4 AND DUP2 OR SWAP1 SWAP4 SSTORE PUSH1 0x40 MLOAD SWAP2 AND SWAP2 SWAP1 DUP3 SWAP1 PUSH32 0x8BE0079C531659141344CD1FD0A4F28419497F9722A3DAAFE3B4186F6B6457E0 SWAP1 PUSH1 0x0 SWAP1 LOG3 POP POP JUMP JUMPDEST PUSH1 0x1 PUSH1 0x1 PUSH1 0xA0 SHL SUB DUP5 AND PUSH2 0x74F JUMPI PUSH1 0x40 MLOAD PUSH4 0xE602DF05 PUSH1 0xE0 SHL DUP2 MSTORE PUSH1 0x0 PUSH1 0x4 DUP3 ADD MSTORE PUSH1 0x24 ADD PUSH2 0x3A1 JUMP JUMPDEST PUSH1 0x1 PUSH1 0x1 PUSH1 0xA0 SHL SUB DUP4 AND PUSH2 0x779 JUMPI PUSH1 0x40 MLOAD PUSH4 0x4A1406B1 PUSH1 0xE1 SHL DUP2 MSTORE PUSH1 0x0 PUSH1 0x4 DUP3 ADD MSTORE PUSH1 0x24 ADD PUSH2 0x3A1 JUMP JUMPDEST PUSH1 0x1 PUSH1 0x1 PUSH1 0xA0 SHL SUB DUP1 DUP6 AND PUSH1 0x0 SWAP1 DUP2 MSTORE PUSH1 0x1 PUSH1 0x20 SWAP1 DUP2 MSTORE PUSH1 0x40 DUP1 DUP4 KECCAK256 SWAP4 DUP8 AND DUP4 MSTORE SWAP3 SWAP1 MSTORE KECCAK256 DUP3 SWAP1 SSTORE DUP1 ISZERO PUSH2 0x5D5 JUMPI DUP3 PUSH1 0x1 PUSH1 0x1 PUSH1 0xA0 SHL SUB AND DUP5 PUSH1 0x1 PUSH1 0x1 PUSH1 0xA0 SHL SUB AND PUSH32 0x8C5BE1E5EBEC7D5BD14F71427D1E84F3DD0314C0F7B2291E5B200AC8C7C3B925 DUP5 PUSH1 0x40 MLOAD PUSH2 0x7EC SWAP2 DUP2 MSTORE PUSH1 0x20 ADD SWAP1 JUMP JUMPDEST PUSH1 0x40 MLOAD DUP1 SWAP2 SUB SWAP1 LOG3 POP POP POP POP JUMP JUMPDEST PUSH1 0x1 PUSH1 0x1 PUSH1 0xA0 SHL SUB DUP4 AND PUSH2 0x825 JUMPI DUP1 PUSH1 0x2 PUSH1 0x0 DUP3 DUP3 SLOAD PUSH2 0x81A SWAP2 SWAP1 PUSH2 0xAEC JUMP JUMPDEST SWAP1 SWAP2 SSTORE POP PUSH2 0x897 SWAP1 POP JUMP JUMPDEST PUSH1 0x1 PUSH1 0x1 PUSH1 0xA0 SHL SUB DUP4 AND PUSH1 0x0 SWAP1 DUP2 MSTORE PUSH1 0x20 DUP2 SWAP1 MSTORE PUSH1 0x40 SWAP1 KECCAK256 SLOAD DUP2 DUP2 LT ISZERO PUSH2 0x878 JUMPI PUSH1 0x40 MLOAD PUSH4 0x391434E3 PUSH1 0xE2 SHL DUP2 MSTORE PUSH1 0x1 PUSH1 0x1 PUSH1 0xA0 SHL SUB DUP6 AND PUSH1 0x4 DUP3 ADD MSTORE PUSH1 0x24 DUP2 ADD DUP3 SWAP1 MSTORE PUSH1 0x44 DUP2 ADD DUP4 SWAP1 MSTORE PUSH1 0x64 ADD PUSH2 0x3A1 JUMP JUMPDEST PUSH1 0x1 PUSH1 0x1 PUSH1 0xA0 SHL SUB DUP5 AND PUSH1 0x0 SWAP1 DUP2 MSTORE PUSH1 0x20 DUP2 SWAP1 MSTORE PUSH1 0x40 SWAP1 KECCAK256 SWAP1 DUP3 SWAP1 SUB SWAP1 SSTORE JUMPDEST PUSH1 0x1 PUSH1 0x1 PUSH1 0xA0 SHL SUB DUP3 AND PUSH2 0x8B3 JUMPI PUSH1 0x2 DUP1 SLOAD DUP3 SWAP1 SUB SWAP1 SSTORE PUSH2 0x8D2 JUMP JUMPDEST PUSH1 0x1 PUSH1 0x1 PUSH1 0xA0 SHL SUB DUP3 AND PUSH1 0x0 SWAP1 DUP2 MSTORE PUSH1 0x20 DUP2 SWAP1 MSTORE PUSH1 0x40 SWAP1 KECCAK256 DUP1 SLOAD DUP3 ADD SWAP1 SSTORE JUMPDEST DUP2 PUSH1 0x1 PUSH1 0x1 PUSH1 0xA0 SHL SUB AND DUP4 PUSH1 0x1 PUSH1 0x1 PUSH1 0xA0 SHL SUB AND PUSH32 0xDDF252AD1BE2C89B69C2B068FC378DAA952BA7F163C4A11628F55A4DF523B3EF DUP4 PUSH1 0x40 MLOAD PUSH2 0x917 SWAP2 DUP2 MSTORE PUSH1 0x20 ADD SWAP1 JUMP JUMPDEST PUSH1 0x40 MLOAD DUP1 SWAP2 SUB SWAP1 LOG3 POP POP POP JUMP JUMPDEST PUSH1 0x20 DUP2 MSTORE PUSH1 0x0 DUP3 MLOAD DUP1 PUSH1 0x20 DUP5 ADD MSTORE PUSH1 0x0 JUMPDEST DUP2 DUP2 LT ISZERO PUSH2 0x952 JUMPI PUSH1 0x20 DUP2 DUP7 ADD DUP2 ADD MLOAD PUSH1 0x40 DUP7 DUP5 ADD ADD MSTORE ADD PUSH2 0x935 JUMP JUMPDEST POP PUSH1 0x0 PUSH1 0x40 DUP3 DUP6 ADD ADD MSTORE PUSH1 0x40 PUSH1 0x1F NOT PUSH1 0x1F DUP4 ADD AND DUP5 ADD ADD SWAP2 POP POP SWAP3 SWAP2 POP POP JUMP JUMPDEST DUP1 CALLDATALOAD PUSH1 0x1 PUSH1 0x1 PUSH1 0xA0 SHL SUB DUP2 AND DUP2 EQ PUSH2 0x989 JUMPI PUSH1 0x0 DUP1 REVERT JUMPDEST SWAP2 SWAP1 POP JUMP JUMPDEST PUSH1 0x0 DUP1 PUSH1 0x40 DUP4 DUP6 SUB SLT ISZERO PUSH2 0x9A1 JUMPI PUSH1 0x0 DUP1 REVERT JUMPDEST PUSH2 0x9AA DUP4 PUSH2 0x972 JUMP JUMPDEST SWAP5 PUSH1 0x20 SWAP4 SWAP1 SWAP4 ADD CALLDATALOAD SWAP4 POP POP POP JUMP JUMPDEST PUSH1 0x0 DUP1 PUSH1 0x0 PUSH1 0x60 DUP5 DUP7 SUB SLT ISZERO PUSH2 0x9CD JUMPI PUSH1 0x0 DUP1 REVERT JUMPDEST PUSH2 0x9D6 DUP5 PUSH2 0x972 JUMP JUMPDEST SWAP3 POP PUSH2 0x9E4 PUSH1 0x20 DUP6 ADD PUSH2 0x972 JUMP JUMPDEST SWAP3 SWAP6 SWAP3 SWAP5 POP POP POP PUSH1 0x40 SWAP2 SWAP1 SWAP2 ADD CALLDATALOAD SWAP1 JUMP JUMPDEST PUSH1 0x0 PUSH1 0x20 DUP3 DUP5 SUB SLT ISZERO PUSH2 0xA07 JUMPI PUSH1 0x0 DUP1 REVERT JUMPDEST POP CALLDATALOAD SWAP2 SWAP1 POP JUMP JUMPDEST PUSH1 0x0 PUSH1 0x20 DUP3 DUP5 SUB SLT ISZERO PUSH2 0xA20 JUMPI PUSH1 0x0 DUP1 REVERT JUMPDEST PUSH2 0xA29 DUP3 PUSH2 0x972 JUMP JUMPDEST SWAP4 SWAP3 POP POP POP JUMP JUMPDEST PUSH1 0x0 DUP1 PUSH1 0x40 DUP4 DUP6 SUB SLT ISZERO PUSH2 0xA43 JUMPI PUSH1 0x0 DUP1 REVERT JUMPDEST PUSH2 0xA4C DUP4 PUSH2 0x972 JUMP JUMPDEST SWAP2 POP PUSH2 0xA5A PUSH1 0x20 DUP5 ADD PUSH2 0x972 JUMP JUMPDEST SWAP1 POP SWAP3 POP SWAP3 SWAP1 POP JUMP JUMPDEST PUSH1 0x1 DUP2 DUP2 SHR SWAP1 DUP3 AND DUP1 PUSH2 0xA77 JUMPI PUSH1 0x7F DUP3 AND SWAP2 POP JUMPDEST PUSH1 0x20 DUP3 LT DUP2 SUB PUSH2 0xA97 JUMPI PUSH4 0x4E487B71 PUSH1 0xE0 SHL PUSH1 0x0 MSTORE PUSH1 0x22 PUSH1 0x4 MSTORE PUSH1 0x24 PUSH1 0x0 REVERT JUMPDEST POP SWAP2 SWAP1 POP JUMP JUMPDEST PUSH1 0x20 DUP1 DUP3 MSTORE PUSH1 0x2F SWAP1 DUP3 ADD MSTORE PUSH32 0x4C756D696E61436F696E3A2043616C6C6572206973206E6F742074686520436F PUSH1 0x40 DUP3 ADD MSTORE PUSH15 0x363630BA32B930B626B0B730B3B2B9 PUSH1 0x89 SHL PUSH1 0x60 DUP3 ADD MSTORE PUSH1 0x80 ADD SWAP1 JUMP JUMPDEST DUP1 DUP3 ADD DUP1 DUP3 GT ISZERO PUSH2 0x34D JUMPI PUSH4 0x4E487B71 PUSH1 0xE0 SHL PUSH1 0x0 MSTORE PUSH1 0x11 PUSH1 0x4 MSTORE PUSH1 0x24 PUSH1 0x0 REVERT INVALID LOG2 PUSH5 0x6970667358 0x22 SLT KECCAK256 SWAP16 0x2E SWAP2 0xE5 SWAP5 0xA5 PUSH6 0x803791873B00 DUP6 0xAD LT ORIGIN SHL 0xD6 PUSH25 0x996804E0A8903FF3AE2DA73864736F6C634300081C00330000 "},"methodIdentifiers":{"allowance(address,address)":"dd62ed3e","approve(address,uint256)":"095ea7b3","balanceOf(address)":"70a08231","burnFrom(address,uint256)":"79cc6790","burnHeldTokens(uint256)":"42c38089","collateralManager()":"23be345c","decimals()":"313ce567","mint(address,uint256)":"40c10f19","name()":"06fdde03","owner()":"8da5cb5b","renounceOwnership()":"715018a6","setCollateralManager(address)":"842a05d4","symbol()":"95d89b41","totalSupply()":"18160ddd","transfer(address,uint256)":"a9059cbb","transferFrom(address,address,uint256)":"23b872dd","transferOwnership(address)":"f2fde38b"}}}}}