{
  "_format": "hh-sol-artifact-1",
  "contractName": "MappingChallenge",
  "sourceName": "contracts/MappingChallenge.sol",
  "abi": [
    {
      "constant": false,
      "inputs": [
        {
          "name": "key",
          "type": "uint256"
        },
        {
          "name": "value",
          "type": "uint256"
        }
      ],
      "name": "set",
      "outputs": [],
      "payable": false,
      "stateMutability": "nonpayable",
      "type": "function"
    },
    {
      "constant": true,
      "inputs": [
        {
          "name": "key",
          "type": "uint256"
        }
      ],
      "name": "get",
      "outputs": [
        {
          "name": "",
          "type": "uint256"
        }
      ],
      "payable": false,
      "stateMutability": "view",
      "type": "function"
    },
    {
      "constant": true,
      "inputs": [],
      "name": "isComplete",
      "outputs": [
        {
          "name": "",
          "type": "bool"
        }
      ],
      "payable": false,
      "stateMutability": "view",
      "type": "function"
    }
  ],
  "bytecode": "0x6060604052341561000f57600080fd5b6101e38061001e6000396000f300606060405260043610610057576000357c0100000000000000000000000000000000000000000000000000000000900463ffffffff1680631ab06ee51461005c5780639507d39a14610088578063b2fa1c9e146100bf575b600080fd5b341561006757600080fd5b61008660048080359060200190919080359060200190919050506100ec565b005b341561009357600080fd5b6100a96004808035906020019091905050610130565b6040518082815260200191505060405180910390f35b34156100ca57600080fd5b6100d2610154565b604051808215151515815260200191505060405180910390f35b8160018054905011151561010d576001820160018161010b9190610166565b505b8060018381548110151561011d57fe5b9060005260206000209001819055505050565b600060018281548110151561014157fe5b9060005260206000209001549050919050565b6000809054906101000a900460ff1681565b81548183558181151161018d5781836000526020600020918201910161018c9190610192565b5b505050565b6101b491905b808211156101b0576000816000905550600101610198565b5090565b905600a165627a7a7230582072079228ca734da40b94778e4c9f5199899a0c3d35fb4a9164c406c53c7dd9250029",
  "linkReferences": {},
  "deployedLinkReferences": {}
}